:020000040002F8
:10300000287C0020153402001D3402001F34020009
:1030100021340200233402002534020000000000A5
:103020000000000000000000000000002734020043
:1030300029340200000000002B3402002D3402006D
:10304000CD3702002F340200F93B0200A9380200FC
:103050002F3402002F340200F53502002F34020015
:103060002F3402002F3402002F3402002F340200CC
:103070002F3402002F3402002F3402002F340200BC
:103080002F340200253802002F3402002F340200B2
:10309000F53802002F340200F93802002F34020004
:1030A0002F3402002F3402002F3402002F3402008C
:1030B0002F3402002F340200000000000000000046
:1030C0002F3402002F3402002F3402002F3402006C
:1030D0002F3402002F3402002F34020000000000C1
:1030E00000000000000000000000000000000000E0
:1030F00000000000000000000000000000000000D0
:1031000000000000000000000000000000000000BF
:1031100000000000000000000000000000000000AF
:10312000000000000000000000000000000000009F
:10313000000000000000000000000000000000008F
:10314000000000000000000000000000000000007F
:10315000000000000000000000000000000000006F
:10316000000000000000000000000000000000005F
:10317000000000000000000000000000000000004F
:10318000000000000000000000000000000000003F
:10319000000000000000000000000000000000002F
:1031A000000000000000000000000000000000001F
:1031B000000000000000000000000000000000000F
:1031C00000000000000000000000000000000000FF
:1031D00000000000000000000000000000000000EF
:1031E00000000000000000000000000000000000DF
:1031F00000000000000000000000000000000000CF
:10320000DFF80CD000F0B8F9004800476166020012
:10321000287C002030B450E8012F93B2C4892344A5
:103220008489A34228BF1B1B0489A34202BFBFF3AA
:103230002F8F002007E0C3EA020340E80134002C8E
:10324000E9D14FF001000A6030BC704750E8012F0F
:10325000C2EA024240E801210029F7D1704730B4A8
:1032600050E8022F1FFAA2F3C488A34202BFBFF3A3
:103270002F8F00200DE0C48923448489A34228BFF6
:103280001B1BC2EA034340E80234002CE8D14FF094
:1032900001000A6030BC704750E8022FC2EA2242A7
:1032A00040E802210029F7D17047034653E8022F76
:1032B000D988B2EB324F4FF0000017BF92B241EA0B
:1032C000014142EA014104E05A68B2EB324F08BFC3
:1032D000012043E80212002AE8D1704730B40446C6
:1032E00054E8000F0D4644E80053002BF8D1156058
:1032F00030BC704730B4044654E8000F40EA010582
:1033000044E80053002BF7D1156030BC704730B44F
:10331000044654E8000F00EA010544E80053002B7E
:10332000F7D1156030BC704730B4044654E8000F44
:1033300080EA010544E80053002BF7D1156030BC4A
:10334000704730B4044654E8000F00EB010544E830
:103350000053002BF7D1156030BC704730B40446E1
:1033600054E8000FA0EB010544E80053002BF7D10F
:10337000156030BC7047000030B4044654E8000FBC
:103380000D4644E80053002BF8D1156030BC70475F
:1033900030B4044654E8000F40EA010544E8005305
:1033A000002BF7D1156030BC704730B4044654E8A8
:1033B000000F00EA010544E80053002BF7D1156027
:1033C00030BC704730B4044654E8000F80EA010571
:1033D00044E80053002BF7D1156030BC704730B47F
:1033E000044654E8000F00EB010544E80053002BAD
:1033F000F7D1156030BC704730B4044654E8000F74
:10340000A0EB010544E80053002BF7D1156030BC58
:10341000704700000648804706480047FEE7FEE781
:10342000FEE7FEE7FEE7FEE7FEE7FEE7FEE7FEE774
:10343000FD380200013202002DE9F05F0546002050
:1034400092469B4688460646814640241BE0284615
:1034500041464746224600F07EF853465A46C01A77
:10346000914110D311461846224600F065F82D1AF6
:1034700067EB01084F4622460120002100F05CF86E
:1034800017EB00094E41201EA4F10104DFDC484681
:1034900031462A464346BDE8F09F00000048704789
:1034A00088A2020040EA01039B0703D009E008C993
:1034B000121F08C0042AFAD203E011F8013B00F8F9
:1034C000013B521EF9D27047D2B201E000F8012B45
:1034D000491EFBD270470022F6E710B513460A4694
:1034E00004461946FFF7F0FF204610BD421C10F8B5
:1034F000011B0029FBD1801A7047034611F8012BEC
:1035000000F8012B002AF9D11846704730B50B4658
:10351000014600202022012409E021FA02F59D4203
:1035200005D303FA02F5491B04FA02F52844151ED7
:10353000A2F10102F1DC30BD202A04DB203A00FABE
:1035400002F1002070479140C2F1200320FA03F3FA
:10355000194390407047202A04DB203A21FA02F0F8
:103560000021704721FA02F3D040C2F120029140BD
:103570000843194670470000064C074D06E0E06816
:1035800040F0010394E8070098471034AC42F6D3AA
:10359000FFF73AFE5CA902007CA9020070B58C1806
:1035A00010F8015B15F0070301D110F8013B2A1157
:1035B00006D110F8012B03E010F8016B01F8016B44
:1035C0005B1EF9D12B0705D40023521E0DD401F840
:1035D000013BFAE710F8013BCB1A921C03E013F809
:1035E000015B01F8015B521EF9D5A142D8D300203E
:1035F00070BD00002DE9F04700268CB0DFF8609127
:10360000B0464FF48075012437460696284604F0EC
:10361000EDFA38B1D9F80403204203D0284604F06B
:10362000DBFA26432D1D64007F1CADB2082FEDD3BD
:103630004FF4BE74204604F0D9FA48B1204604F095
:10364000CBFA46F0004606AA0121002004F0B0FAA9
:10365000444D16F0FF0F15D00127002437420DD03E
:1036600009EB8401D1F81005D1F81015C0F304203E
:1036700055F82420C1F3014102B190477F00641C3A
:10368000082CEBD3002E67DA4FF0FF30CDE908802D
:1036900000263446281910F8507F90F9000027F0D2
:1036A000C008401C44D009A9404603F0D4FA58B3DE
:1036B0004FEA9719404602F07BF955F820701FB188
:1036C000B9F1030F03D00FE0B9F1030F30D108A80F
:1036D0004FEAD80208F00703815C4FF0010C0CFAA6
:1036E00003FC41EA0C0181544FF0A04101EB88003A
:1036F000D0F8000706A9C0F3014A404603F0ABFA30
:1037000018B1BAF1020F03D012E0BAF1030F0FD1D2
:10371000B9F1030F08D1BAF1020F1BD002214046C4
:1037200004F022FA761CF6B217B149464046B84773
:10373000641C042CAED3002E0ED06A46012100205A
:1037400004F036FA06990098884205D00690089849
:1037500009909DE70321E2E70CB0BDE8F087000087
:1037600000600040DC31002000F01F020121914088
:103770004009800000F1E020C0F88012704700F09E
:103780001F02012191404009800000F1E020C0F8B3
:103790000011704700F01F02012191404009800094
:1037A00000F1E020C0F8001270474907090E002818
:1037B00006DA00F00F0000F1E02080F8141D7047D9
:1037C00000F1E02080F80014704700002DE9F0417E
:1037D0004FF48077384603F007FB0124104EA5070D
:1037E00048B1384603F007FB0120C5F808037470A0
:1037F000002002F0E5F84FF48277384603F0F4FA3F
:1038000000280BD0384603F0F6FA0220C5F808036A
:10381000B470BDE8F041012002F0D2B8BDE8F081FB
:10382000C831002007480021C0F84011C0F84411F9
:10383000C0F84811C0F84C11C0F80011C0F80411CC
:1038400006F018B80010014000F0E4B970B50E465B
:10385000144900EB400001EBC0051446E86A183536
:1038600020B101280FD0022805D113E0284600F02E
:1038700005FAA04201D2002411E022463146284632
:1038800000F034FA0BE0284600F0F8F9A042F4D238
:103890000446F2E73146284600F0FBF9044620468C
:1038A00070BD0000A0390020F8B511480F4D044646
:1038B0004FF48C7104F0E7FE002815D00026C4F800
:1038C0001861D4F818010090A87F2C46FF2801D079
:1038D00004F05BF966772672D4E9002101B004F1A7
:1038E0000800BDE8F0401047F8BD00005432002049
:1038F0000030004005F00CBF04F05ABEF0B5AE48F1
:103900000023021D01780125101D4FF08054062967
:103910000BD11678360708D10678C6F30316032EA6
:1039200006D0042E04D0052E02D0062907D00EE0C2
:10393000B4F82463A14FC6F304263E6002E0167873
:10394000360704D10678C6F30316032E02D00629E3
:1039500004D00FE09B4F9A4E7E670EE01678360734
:1039600008D10678C6F30316032E06D0042E04D021
:10397000052E02D0062907D00EE0D4F84462924FFB
:10398000C6F342363E6002E01678360704D1067868
:10399000C6F30316032E02D0062906D011E08B4E83
:1039A000376827F0807737600EE01678360708D141
:1039B0000678C6F30316032E06D0042E04D0052E77
:1039C00002D006290AD011E04FF08046C6F80C312B
:1039D000C6F810317C4E361F336002E01678360789
:1039E00004D10678C6F30316032E02D0062905D0AB
:1039F0000CE0754F032664373E600AE01678360700
:103A000004D10678C6F30316032E02D006290DD082
:103A100014E06F4F05263E606D4E783635606C4E73
:103A2000083633603F263F1D3E6002E016783607B9
:103A300004D10678C6F30316052E02D0062957D006
:103A400062E0644E3668644F3E60624E361D3668F2
:103A50003F1D3E605F4E083636683F1D3E605D4E3E
:103A60000C3636683F1D3E605A4E103636683F1D94
:103A70003E60584E143636683F1D3E60554E18362F
:103A80003668554F20373E60524E1C3636683F1D13
:103A90003E60504E203636683F1D3E604D4E243607
:103AA00036683F1D3E604B4E283636683F1D3E60EF
:103AB000484E2C3636683F1D3E60464E30363668DE
:103AC000454F40373E60434E343636683F1D3E60BA
:103AD000404E383636683F1D3E603E4E3C363668B6
:103AE0003F1D3E603B4E403636683F1D3E6002E063
:103AF0001678360708D10678C6F30316032E06D0CB
:103B0000042E04D0052E02D0062907D019E0D4F8DF
:103B10005812324A01F04F01116002E01178090792
:103B20000FD10078C0F30310032803D0042801D07C
:103B3000052806D12A480168C90702D06FF00101A3
:103B4000016022487438016841F470010160BFF3DC
:103B50004F8FBFF36F8F4FF01021D1F80002002874
:103B600003DBD1F80402002822DA1E4A15601E4841
:103B70000468002CFCD01524C1F800420568002D13
:103B8000FCD0C1F8044201680029FCD01360016830
:103B90000029FCD0BFF34F8F0C48F0380168134A5E
:103BA00001F4E06111430160BFF34F8F00BFFDE7F7
:103BB00010490F480860F0BDE00F00F040350140AB
:103BC0000DF0ADBA00C007403C050040FCED00E040
:103BD000105600400404001020C50040E40E0040D0
:103BE0000004004004E5014000E401400400FA053F
:103BF0000090D003302B00200448017F04480029A6
:103C0000024901D006F011B805F080BF343200201F
:103C10000020004010B5124C02202061606111A00C
:103C2000A06104F17800E0614FF400702062002090
:103C3000A06260620BA1A164E06204F51E71E16400
:103C40001021A065C4E91410E06509A1E01DFFF78B
:103C500054FC08A12046FFF750FC2020A07110BDA5
:103C6000A03900205465726D696E616C000000001F
:103C70005254540053454747455200000269C168F9
:103C80008A4203D88068401A104400E0501A401E4F
:103C900070472DE9F047C4681746894606464FF03D
:103CA00000083069A04201D9051B02E0B168201A62
:103CB0000D1AB0686D1E001BA84200D80546BD4213
:103CC00000D33D4670682A4620444946FFF7EAFB88
:103CD000B0687F1B2C44A844A944A04200D1002412
:103CE000F460002FDDD14046BDE8F0872DE9F041BA
:103CF00004468846D4E90207C51BE1686068164699
:103D00000844B54206D94146FFF7CCFBB819E0603C
:103D1000BDE8F0812A464146FFF7C4FB761B08EB5D
:103D2000050132466068FFF7BDFBE660F0E7000082
:103D30000FB4054B10B503A9044A029800F036F8F9
:103D400010BC5DF814FB00007B610200D42A002047
:103D500002E008C8121F08C1002AFAD17047704754
:103D6000002001E001C1121F002AFBD170470000B2
:103D70000121202803DA81400548014003E0402862
:103D800002DA2038814009B10120704700207047D5
:103D9000FC06FFBD082806D228B1012803D004285C
:103DA00001D0012070470020704700002DE9FF4F2F
:103DB00089B09B460446002506E025280BD05A46CC
:103DC0000B999047641C6D1C20780028F5D10DB02C
:103DD0002846BDE8F08F0027B8460122474900E099
:103DE000074314F8013F203B02FA03F00842F7D1E1
:103DF00020782E2819D114F8010F47F004072A283B
:103E00000ED06FF02F022078A0F1300109290CD8D4
:103E100008EB880102EB410100EB0108641CF2E7AA
:103E20000A98641C50F8048B0A9020780028CED0A1
:103E3000642808D0692806D075281ED05A460B99E8
:103E400090476D1C58E00A994FF00A0901C90A9180
:103E5000002802DA40422D2102E0390504D52B2149
:103E60008DF82010012103E0F90704D02021F7E7A5
:103E70008A4608AE0DE00021FAE70A994FF00A09D8
:103E800001C90A91F7E74946FFF740FB303106F8D0
:103E9000011D0028F7D1ADEB060000F120097807DD
:103EA00001D44FF00108C84502DDA8EB090000E08D
:103EB00000208046002706E008A85A46C05D0B99FE
:103EC00090476D1C7F1C5745F6DB04E030205A46B6
:103ED0000B9990476D1CB8F10001A8F10108F5DCC1
:103EE00005E016F8010B5A460B9990476D1CB9F185
:103EF0000001A9F10109F4DC641C65E7092801004F
:103F000010B501220221002001F07AFB08B1072838
:103F100010D107220221012001F072FB08B107280D
:103F200008D100210A22084601F06AFB08B10728DF
:103F300000D1002010BD022001F05ABA70B5002453
:103F4000064D06E06868012110F8340003F046F8D9
:103F5000641C28788442F5D3002070BD942A002088
:103F6000F8B515460C460646052A01D20720F8BDCD
:103F700003F01AF918B903F0E9F80028F7D110494D
:103F800000204E600C70C1E902500E4D08610DE03A
:103F900006EBC4006968009181788DF80110007803
:103FA000094A694603F06CF80028E0D1641EE4B2C7
:103FB000EED2BDE8F840054A0021024800F078B88A
:103FC000942A0020F49F02005D620200F15F02006B
:103FD00004F074F803F0D6FE0028FBD1104C012148
:103FE000208801EB00400FA103F0B8FF10480068E3
:103FF000C00700D000BE2088022101EB00400DA1C7
:1040000003F0ACFFBFF34F8F0948E43801680D4A55
:1040100001F4E06111430160BFF34F8F00BFFDE782
:10402000902B0020466174616C206572726F720083
:10403000F0ED00E053797374656D207265736574FB
:10404000000000000400FA050EB500210091CDE942
:1040500001106A4644F20100FFF7BAFF0EBD10B529
:104060008268C368934203D002F074F8002010BD48
:10407000052010BD29B112B1531E134203D00920EF
:1040800070470E2070470160838000218160C1600D
:104090000846704710B58268C3689A1A83889A42A6
:1040A00003D802F061F8002010BD042010BD00000C
:1040B000074B9B7823B12AB120B10068037C1BB168
:1040C0000820704707207047417442610020704704
:1040D0009832002070B504F0C9FC104800240B2170
:1040E000047044700E4D817014206C602C706C70E4
:1040F000FFF73AFB07211420FFF757FB1420FFF7C7
:104100003EFB0848046007211120FFF74EFB0548DD
:10411000001F0068A860002070BD000098320020D9
:10412000A82A0020081501402DE9FC47DFF8789007
:1041300099F8023073B368B3052902D20720BDE8AD
:10414000FC87436933B3437C012B25D00027044609
:104150000025884616468DF80050684600F0CAF8DB
:1041600001A805F06DFEC8B1012101700F4944603E
:104170000968C0E90218C0E904769DF8040089F8CE
:1041800001009DF8000000F0D9F81420FFF702FBB1
:104190002846D4E70820D2E70F46D8E704259DF843
:1041A000000000F0CBF8F3E798320020041501403E
:1041B0000649897839B130B1416921B100210174D2
:1041C000022105F033BB0820704700009832002020
:1041D00070B50A4E01460A48B578FFF740FF04461D
:1041E0004DB10020B070711C0122C81D03F0FCF815
:1041F00008B1FFF729FF204670BD0000BC2A00204F
:10420000A4330020F0B5284E89B01F460D000446A7
:1042100072603BD0A888296882B22448FFF72AFF41
:10422000002834D1A889A96882B220481030FFF74D
:1042300021FF00282BD120221D496846FFF732F9C3
:1042400060690690207C00B101208DF814008DF883
:104250001C70607C00B10E208DF81500E0680290A3
:10426000A068039020680190606800900E48114A91
:104270006946083003F084F8002808D1B07020683F
:10428000401C04D09DF81D0018B106E0072009B0BD
:10429000F0BD0548083003F0FFF803490122491C2E
:1042A000C81D03F0A1F8F2E7BC2A0020A4330020C7
:1042B000FC9F02006D9A020010B501460B48FFF703
:1042C000E9FE040010D10A4803F030FA60B9084949
:1042D00006480839FFF7C3FE30B9054901220839FD
:1042E000034803F09DF90446204610BDB433002076
:1042F000C42A002030B5EFF3108172B60D4A9468DD
:10430000012324B10370002900D162B630BD93604F
:104310004FF0E023D3F88051074C25401560C3F8D7
:104320008041D3F8844154605A17C3F88421002295
:104330000270E8E7C4330020FC06FFBD0B498A6821
:10434000002A11D000280FD1EFF3108072B60B684D
:104350004FF0E022C2F800314B68C2F8043100226D
:104360008A60002800D162B670470000C433002084
:104370002DE9F041064608680C46411C4FF0A04765
:104380004FF0010506D005FA00F1C7F808152068BE
:1043900003F0C5FB6068411C02D0002103F0B6FBAE
:1043A0003079204901EB4010A169007F0028306876
:1043B000C0F8241525D0607D227D31681043C1F8F6
:1043C0006C05D4E900123068C0F80C15C0F814254B
:1043D00024E0A068411C02D0002103F097FBE068B4
:1043E000411C05D08540C7F80855E06803F097FBED
:1043F000D4E902123068C0F80825C0F81015BDE8ED
:10440000F081607D217D32680843C2F86C05D4E9F3
:1044100000123068C0F81425C0F80C15207D012862
:10442000D7D0ECE7343200202DE9FC47002517886F
:104430000646158090F82D001446894630B13A465C
:104440002146484600F008FB050009D1B0784FF03E
:104450000C0A18B32088C846001DB84202D950463D
:10446000BDE8FC87684679DF0028F9D12088032160
:1044700008F8001020881921401C80B2208008F81C
:1044800000102088401C80B2208000EB0801BDF89D
:10449000000005F042FC218808442080F0780222C8
:1044A000C8B1218896F9033001F1030C4846BC4598
:1044B000D5D8425421884FF0010C491C89B2218083
:1044C00000F801C02188491C89B2218009F8013017
:1044D0002088401C20807068B8B1218890F9003095
:1044E00001F1030C4846BC45B9D8425421880A2240
:1044F000491C89B2218042542188491C89B22180FB
:1045000009F801302088401C2080308950B1CDE965
:1045100000474B460622022106F1080005F0A8FCE0
:1045200005009DD1308A50B1CDE900474B460722A6
:10453000032106F1100005F09BFC050090D1308BA3
:1045400050B1CDE900474B461522142106F1180061
:1045500005F08EFC050083D1306A30B13B4622461F
:10456000494601F0DBFC0500DBD1706A30B13B4607
:104570002246494602F0B0F90500D2D196F82C0047
:1045800038B13B4622464946304604F047FC050018
:10459000C7D1307838B13B4622464946304602F012
:1045A0009DFA0500BDD128465AE7F0B50C4693B0F8
:1045B0001F210726ADF80010ADF80410002750B1F8
:1045C000C17849070DD56A4602A9FFF72DFF0028DB
:1045D00008D102AD02E00025ADF800706CB1E078C2
:1045E00010B1304613B0F0BD01AA0AA92046FFF76A
:1045F0001BFF0028F6D10AAA02E00022ADF80470E1
:10460000BDF80400C3B2BDF80000C1B2284672DF95
:10461000E8E780F82410704770B50D00044653D0C9
:10462000F4B3012020700026E670202205F1780105
:10463000201DFEF737FF84F82460D5F89800C4F8F1
:10464000CC00D5F89C00C4F8D0004FF6FF70A4F859
:10465000C800C4F82560A4F8296084F82B6004F130
:1046600030003C210646FEF736FF287884F83000FB
:10467000A87884F83200E87884F83300687884F801
:104680003100D5E90401C4E91001D5E90201C4E90A
:104690000E01D5E90601C4E9120195F82D0000E0EC
:1046A00012E084F85D00686AD8B104F1780104F181
:1046B0006C0061676065696A09880180686A616D7C
:1046C00080888880002008E00E2070BD696A22186A
:1046D0008968095C82F87810401C616D8988814284
:1046E000F4D8A86AE8B104F1A400C4F8A0000C381A
:1046F000A065A96A89888180A86AA16D0088088060
:10470000002006E0A96A22188968095C82F8A410D2
:10471000401CA16D89888142F4D895F82C0084F85A
:104720005C00286A48B104F1C4002065296A498800
:104730004180286A216D00880880686800B1606344
:1047400005F13C013046BDE87040FFF72EBF10B5C3
:104750000288102A1AD0112A1FD01B2A1CD1007AD5
:104760000C46002818D1E0780521401CB0FBF1F27E
:1047700001FB1201204600F055F800280CD0D4F8B7
:10478000D010002908D0BDE810400847C27B012A9C
:1047900002D18088A1F8C80010BD0C46002184F821
:1047A000D4108088B4F8C8108842F5D12079002848
:1047B000F2D10121DEE710B50C46022801D0032812
:1047C00011D1607800280ED000206070E17820467A
:1047D00000F028F8002806D0D4F8D010002902D024
:1047E000BDE81040084710BD10B5044674DF012035
:1047F00084F8D400002084F8D600062084F8330022
:10480000002104F13000FFF7D0FE002809D1E17843
:10481000204600F007F818B1D4F8D01001B188474D
:10482000002010BD2DE9FF47044600780F4638B13F
:10483000E770002003F08CF8012628B16670D2E002
:10484000082004B0BDE8F0870025C4F82550A4F87E
:10485000295084F82B50A07910B1E078012806D0B7
:10486000E07970B1E078012801D0022809D1D4F8AC
:10487000CC1021B184F82C600820884701E084F82E
:104880002C5004F1260100200A5C0AB1304603E0F6
:10489000401C0628F8D300204FF002084FF0030A0E
:1048A0004FF00409012F06D0022F09D0032F0CD09E
:1048B000042F12D10DE0A17911B108B130460DE0FD
:1048C000E17911B108B1404608E0207A08B15046BC
:1048D00004E0607A08B1484600E02846E070D4F869
:1048E000CC1041B1032801D0042804D1607910B163
:1048F00094F8D400A8B184F8D5500095029501959C
:1049000003958DF800508DF80850E17804F12500EA
:1049100004F13002052958D2DFE801F0670A131FBD
:104920003B0084F8D65084F8D56007208847E4E738
:10493000A67001908DF80060ADF80C50ADF80A50EB
:1049400043E084F8028001908DF80060208AADF881
:104950000C00A089ADF80A0037E0A08AADF80A0083
:10496000208BADF80C00607980B194F8D40068B960
:1049700094F8D60050B18DF8088084F83390002167
:104980001046FFF712FE00BB05211AE084F802A0D2
:104990001BE0A08BADF80A00208CADF80C0060790C
:1049A00088B194F8D40070B994F8D60058B18DF855
:1049B000088084F8339000211046FFF7F6FD20B9F7
:1049C0000621A17001E084F80290E07830B194F8FB
:1049D0002410684673DF00287FF433AFD4F8CC107E
:1049E00009B1A078884700202BE7A570F6E7000002
:1049F00070B5040012D001461C221448FEF752FD87
:104A00001248134D0560206850B17ADF002806D1A6
:104A10002068016829604068686005E00E2070BD6C
:104A20000B487BDF0028FAD108484FF6FF71143895
:104A3000084A20F8041B0549343901600021FFF7BA
:104A400037FB0028EBD0032070BD0000F4300020BD
:104A50008C2A0020D99D02007CB5054608880C46AA
:104A60000930904201D90C207CBD68466DDF0028DA
:104A7000FAD121880820685420881B21401C80B26C
:104A8000208029542088401C80B220802844DDF8F2
:104A900001100160BDF8051081802088801D80B262
:104AA00020809DF80010490800D001212954208859
:104AB000401C208000207CBD70B5424D0188002242
:104AC0006E8888B0044623293FD022DC3E484FF050
:104AD00003031129008803EB004026D010DC0129D4
:104AE0004CD010290AD139A103F038FA072000F080
:104AF000A9FD08B1FFF7A8FAA088688008B070BDCA
:104B000013291CD02129F9D10092A08869468FDF92
:104B100021E03B292ED0512934D052291ED05629CC
:104B2000ECD18088132176DF1DE02BA103F016FA6B
:104B30004FF6FF70E1E700BFFFF786FADEE70023DC
:104B40001A46852130467FDF0DE000920192808871
:104B50000022694690DF0028EED1CFE700231A46F5
:104B600019463046A9DF0028C8D008B0BDE870401B
:104B7000FFF76ABA8088132176DFF4E7A088002166
:104B800066DFF0E71022A11D04A8FEF78BFC9DF85C
:104B900010100029B2D09DF81800042803D0062870
:104BA00001D00528AAD102290AD001208DF80000E1
:104BB0004FF4C170ADF80400A0886946A8DFCAE7C9
:104BC0000220F3E7682A0020902B0020436F6E6ECE
:104BD0006563746564000000446973636F6E6E659D
:104BE000637465640000000010B51A4C01886068A9
:104BF00010290ED011292BD1401E606028D1FFF75B
:104C00007FF9002824D02168002921D0BDE8104078
:104C10000847D0B900210122084600F0F1FC08B194
:104C200007280FD107220221012000F0E9FC08B17A
:104C3000072807D104220221002000F0E1FC20B166
:104C4000072802D0216801B188476068401C606075
:104C500010BD0000842A00202DE9F04701883B4E5A
:104C600040F2F3194FF6FF7510291BD011293ED0E1
:104C7000122954D0502946D1C188F289841D91420D
:104C800041D1618902293ED18688304601F012FB6C
:104C9000050038D004F10C0000F07EF9A8B32946D5
:104CA00030464EE0C17B8788044601292BD1A846B7
:104CB000284601F0FFFA050017D02F800020287247
:104CC000234843464A460168C5F80A104068C5F8BB
:104CD0000E0004F1100105F10A0001F097FB687263
:104CE000F08900280FD129462AE0042013E08088AB
:104CF00001F0E0FA040006D06068FFF759FA08B145
:104D000004F03AF82580BDE8F087FFE76868FFF710
:104D10004FFA0028F7D0BDE8F04704F02DB8878897
:104D20000646384601F0C6FA0400ECD02B464A4647
:104D300006F1080104F10A0001F068FB60722146E7
:104D40003846BDE8F04701F02FB90000F4300020EC
:104D50008C2A00202DE9F047044603883F480122B1
:104D6000A4B000F1480A102B09D0112B54D01A2BF3
:104D700070D1217AB2EB111F53D2012352E0D0E956
:104D800011218A430546011D12A803F0C8FF4422E1
:104D900012A901A8FEF786FBDFF8C090002637466F
:104DA00009F144090DF104080AE000BF08EB4600D0
:104DB0001D2283884946281D009703F075FF761C45
:104DC0000198B042F2D8686CA688C04303F08EFF09
:104DD000A0F57F41FF3917D005EB40000123868005
:104DE00032465146281D03F0BFFF01233246494693
:104DF000281D03F0B9FFE07B02280BD000231749E0
:104E0000A2884C31281D20E024B00420BDE8F047E2
:104E1000FFF71AB90123F2E70023A2885146001DCB
:104E200013E000230D490546A2885031001D03F010
:104E30009BFF207A0221B1EB101F01D2012300E079
:104E400000230649A2885431281D24B0BDE8F0474C
:104E500003F08ABF24B0BDE8F087000010310020C5
:104E600030B5174B0D4604000FCB85B08DE80F0011
:104E700023D015B34FF6FF70A0822868A0610020F0
:104E8000A0752146684662DF002814D120788DF88D
:104E900012000120ADF81000A21C04A9A0DF002818
:104EA00009D12946204603F018FE002803D12946DF
:104EB000204604F029FD05B030BD0E20FBE70000C0
:104EC000E09F02007FB5002917D0002815D0028886
:104ED000102A0DD0112A0DD0502A0FD0572A0CD1EC
:104EE0001A4B1868D3E902238DE80F0089692AE07C
:104EF000808801E04FF6FF7088827FBD01910C46EB
:104F0000821DC3880989002512308B4202D1518944
:104F100002290CD0A1898B42EFD1A1690029ECD0E4
:104F200002905089ADF80C008DF800500AE000F0B6
:104F300033F818B10120A075022001E0A575032007
:104F40008DF80000A169684688477FBDD09F0200A8
:104F50001FB560B1838AA3F57F44FF3C09D0837DF0
:104F60003BB11388F42B06D9072004B010BD0E20E6
:104F7000FBE70820F9E700230093019302930393D2
:104F80008388CDE90221ADF8003001218DF80210AF
:104F9000808A6946A6DFE8E7007800F001007047E4
:104FA00070B51C0005D0E5691DB1A378012B03D0B5
:104FB00004E04FF0FF350EE040F0800013466678C5
:104FC0000A4601463046A8470546616A01208847DF
:104FD0000DB16FF00105284670BD1CB5044603F005
:104FE00099FB002817D1A078012807D12346012278
:104FF00001A97F20FFF7D4FF00280CD1234601220E
:1050000069460020FFF7CCFF18B99DF80000D128B1
:1050100002D06FF002001CBD2070FF20E07020461F
:1050200000F03AF91CBD38B50446002000900D464A
:10503000084603F06FFB10B14FF0FF3038BD2B4630
:10504000022269467820FFF7ABFF0028F6D19DF8D1
:1050500000209DF8011042EA0121218038BDF8B5F9
:1050600006460D4600207178441E07460E291CD2C4
:10507000DFE801F0071C2E2828343A4640224C6F06
:1050800084A5284603F046FB70B96EB1341D29464D
:10509000204600F0FDFF002807D12A462146304671
:1050A000BDE8F84000F0F6BC2046F8BD2946304681
:1050B000BDE8F84004F0ECB829463046BDE8F840B9
:1050C00004F045B829463046BDE8F84004F080B900
:1050D00029463046BDE8F84004F03DB9294630463F
:1050E000BDE8F84004F098B829463046BDE8F840DD
:1050F00003F0D8BE29463046BDE8F84003F0ACBF07
:1051000029463046BDE8F84003F02ABF284603F0A0
:1051100001FB0028C8D1002EC6D08DF800702B46A8
:10512000012269465120FFF73BFF20B99DF800009E
:1051300040F010003AE00028B7D12946304604F08C
:10514000B3F90028B1D129463046BDE8F84001F056
:1051500033BC002DA8D0686A0028A5D08DF8007057
:105160002B46012269465120FFF71AFF0028E2D1A1
:10517000317A9DF8000061F3451017E0002D93D0BF
:10518000686A002890D08DF800702B46012269468D
:105190005120FFF705FF0028CDD19DF80000317A9E
:1051A00020F04000C1F3400140EA81108DF800007A
:1051B0002B4601226946512000F007F8BBE729463B
:1051C0003046BDE8F84004F06FB92DE9F0474FF0E4
:1051D00000061C00054690468946374608D0D4F89C
:1051E00020C0BCF1000F03D0A078012803D004E058
:1051F0004FF0FF3625E005F07F05207A112802D018
:10520000207C152818D113460A4660782946E047C5
:105210000646616A0120884710E0266A09EB07020A
:10522000607801232946B0476D1C0646616AEDB2DD
:10523000012088477F1CFFB24745EED30EB16FF0C7
:1052400001063046BDE8F08738B5044600208DF8E9
:1052500000000D46084603F05DFA10B14FF0FF3034
:1052600038BD2B46012269467B20FFF799FE0028B6
:10527000F6D19DF80000012C0BD020F0080000BFF3
:105280008DF800002B46012269467B20FFF79DFF29
:1052900038BD40F00800F3E738B504004FF0B60021
:1052A0008DF800000DD0606A58B12346012269468E
:1052B0007E20FFF78AFF0546616A0F2088471DB1EF
:1052C0001FE04FF0FF351CE0A078012807D12346EE
:1052D000012269467F20FFF763FE050011D10220FD
:1052E000E07108216171102222710322A271E07322
:1052F0006173142020730020A0736068A060E068D0
:105300002061284638BD00002DE9FC41114F0020E6
:105310001C4616467870054641F080008DF8040062
:10532000601CC0B200900C4B012201A90B4801F097
:10533000E9FF78780028FCD00021074804E04218F3
:1053400052787254491CC9B2A142F8D32846BDE82C
:10535000FC810000682A0020E62E0020449F020005
:105360002DE9F84F154F4FF000081C46924689462C
:1053700087F801804646581C01F078FA09F07F0151
:1053800005460170002005E01AF800102A18401C9C
:10539000517080B2A042F7D3641CE2B200232946C8
:1053A0000748CDF8008001F0ADFF78780028FCD0E8
:1053B000284600F0E9FE3046BDE8F88F682A002054
:1053C000449F02000149085C70470000859F02006D
:1053D0000649095C4FF0A040D0F81005C84010F015
:1053E000010000D0012080F001007047859F02007D
:1053F00007490B5C4FF0A041D1F8042501209840EB
:1054000020EA0203C1F808351040C1F80C057047C6
:10541000819F02000249085C012102F0BDBB00002F
:10542000819F02000249085C002102F0B5BB000028
:10543000819F02000649095C4FF0A040D0F80405A6
:10544000C84010F0010000D0012080F0010070473A
:10545000819F02007CB50024084E25460122305D64
:10546000009500231146019502F008FB641C042CF2
:10547000F4D3BDE87C4000F003B80000819F020037
:1054800010B500242046FFF7C5FF641C042CF9D397
:1054900010BD10B500242046FFF7C4FF641C042C87
:1054A000F9D310BD10B50246064B4FF0FF30002176
:1054B0005C5C944201D1084610BD491C0429F7D315
:1054C00010BD0000859F020070B50C4E0C004FF01F
:1054D000000530600BD0012000F06AF808B102200E
:1054E00004E0002000F064F800B10B202070706828
:1054F00010B9FEF705FD0546284670BD842A002038
:1055000010B5002000F0D0F908B1062806D101201E
:1055100000F0CAF908B1062800D1002010BD000033
:105520002DE9F0470D468146FFF7BCFF04460428ED
:1055300036D2DFF874801B481C4EA8F10C0725B347
:10554000012D0ED0022D2BD104EB440030444578C0
:10555000002D25D0B968002922D02846BDE8F047A3
:10556000084704EB4401755C0E44717849B10E4A5A
:105570004FF40041093A8068FEF7D6FD08B987F874
:105580000390B17808F80410E2E78068FEF710FE97
:1055900004EB4401314418F804008D78A842D7D0B8
:1055A000BDE8F0878C9F0200802A00209430002004
:1055B000FFF70EBF0146104810B54088042907D0F8
:1055C00007290ED00A2915D1BDE8104003F07ABF93
:1055D000132176DF0CE000280CD0BDE81040FEF768
:1055E00033BDA0F57F41FF3904D10448FFF7FCF833
:1055F0000828F0D110BD0000682A00207C2F002070
:1056000070B50023042810D20D4D00EB4004012A90
:1056100002D101290CD00022094E00EB4000304499
:1056200061B1012906D0022906D00723184670BDB2
:105630000E30C2B22A55F9E74270F7E78270F5E7FB
:1056400094300020044A014600201279D20702D08B
:10565000084600F04DB87047742A002070B5064621
:105660001E480024C0E90161B00720D500250122B1
:1056700011462846FFF7C4FF6D1C0446042D02D2D4
:10568000002CF4D013E094B940F26662042114486F
:10569000FEF766FC04000AD1FEF750FC040006D1B8
:1056A0000F48104A0021001FFEF702FD0446F007D4
:1056B00001D0FFF7CFFE74B909480B4A00210C381E
:1056C000FEF7F6FC040006D10548084A0121083817
:1056D000FEF7EEFC0446204670BD0000742A002050
:1056E000989F02004559020081640200373F020082
:1056F0002DE9F05F6A4C054600266078B34618B184
:1057000084F801B000F0A4FE664F4FF47A694FF4BC
:10571000C87A4FF00108182D62D2DFE805F0AC0C12
:105720000C31404D62676B746B74BE7D7D7D7D7DF9
:10573000ACAFB2B5BEBE0020FFF77CFE00284FF034
:10574000000008D0FFF766FE022D02D14FF4E160A1
:1057500008E0484606E0FFF765FE022D01D1C820AB
:1057600000E05046410CC0034FF4FA72801841F13A
:105770000001257052000023FDF75EFE01462AE07D
:105780000020FFF757FE00284FF0000004D0FFF77D
:1057900041FE4FF44870E5E7FFF744FEDFE70020E5
:1057A000FFF748FE00284FF0000002D0FFF732FE5E
:1057B000CFE7FFF737FED4E70020FFF73BFE0028D6
:1057C0004FF0000002D0FFF725FE01E0FFF72AFEB0
:1057D000257041F69A1100223868FEF7A5FC0646AE
:1057E00046E00020FFF704FE257008E0002051E0AD
:1057F00025703DE084F801800120FFF7F9FD0022CB
:1058000040F6CD41E8E784F801800120FFF7F0FD84
:1058100000224FF48041DFE77868FEF7C9FC0646B6
:10582000D5F1110000D02EB10220FFF7F3FD84F86E
:1058300002B01DE0012816D980B2C8214843C11723
:10584000C90341EA5041C0034FF4FA72801841F194
:10585000000152000023FDF7EFFD014600227868A9
:10586000FEF762FC06460220FFF7DCFD84F80280AA
:105870003046BDE8F09F00F0EBFDB9E700F0E8FD31
:10588000B4E700F0E5FD04E000F0E2FD0020FFF7E2
:10589000C9FD0120FFF7C6FDAAE7FFF7FAFDA7E75C
:1058A000742A00208C9F020010B5FFF78BFD0321A6
:1058B00002F049F9002010BDF8B5861C00208DF8D3
:1058C00000000C4601276846FEF714FD0F480168EA
:1058D0002160D0E90012891A82680446511AB51C69
:1058E00007E000BF00F072FED4E90001401AA16891
:1058F000091A491C8D42F5D82068304420609DF873
:105900000000FEF71BFD3846F8BD00008035002082
:1059100030B482680468531C8360A154D0E901123A
:105920008A4202D330BC01F01ABF30BC704700007D
:10593000034803C8814201D101207047002070470D
:105940008035002000780221FFF7EABD05494FF0BD
:10595000FF32082841F8202002D3084480F848206C
:1059600070470000DC310020F0B54FF0FF3512B178
:105970000023082601E008230C260C4C05E000BF9C
:1059800054F823707F1C04D05B1CB342F8D3284624
:10599000F0BD26185DB286F8305044F82310002A76
:1059A000F5D1E11881F84800F1E70000DC31002072
:1059B0000249084490F9300070470000DC310020B3
:1059C00070B5084C050009D010342168002907D0B3
:1059D00008682060496828468847F6E70834F4E7F5
:1059E00070BD0000C83100202DE9F05F26484168F5
:1059F000F1B3DFF898B00E688146DBF800408768A5
:105A00008078E11B21F07F45ED1CB0B9DFF8808084
:105A10004FF48030C8F84403C8F804031120FDF7A0
:105A2000A3FE1120FDF7ABFE4FF0010AC8F800A05D
:105A30002F2001F033FA89F802A0B54200D2354692
:105A4000124BE8193C3320F07F401860DBF800105F
:105A50005A46091B21F07F41001B20F07F40C91CE2
:105A600081420FD9106818602F2001F017FA00E06A
:105A700004E0BDE8F05F1120FDF78CBEBDE8F05FEB
:105A800002F0F4BFBDE8F09FA82A002004150140F1
:105A9000001001402DE9FC410E4614460746114610
:105AA00003F002FD002857D100258DF80050234651
:105AB000012269466220FFF773FA70B99DF8000071
:105AC00010F0020F0BD020F002008DF800002346EA
:105AD000012269466220FFF778FB00283CD121466D
:105AE000384600F02BFF002836D18DF800502346B1
:105AF000012269465920FFF753FA78B99DF8000052
:105B0000317820F08000890940EAC1108DF800004A
:105B10002346012269465920FFF757FB00281BD175
:105B20008DF800502346012269465F200195FFF75A
:105B300037FA002810D19DF80000234620F003001A
:105B40008DF800008DF8040070788DF805000222B1
:105B500001A95F20FFF739FBBDE8FC8138B501F0F2
:105B600023FB08B901F0F2FA0848094A69460068BF
:105B7000009003208DF801000B2001F081FA04460B
:105B800001210B2001F02AFA204638BD409F020077
:105B900071630200F8B5054600200E468DF800003E
:105BA0000B46012269465420FFF7FAF900281DD15F
:105BB0002878AC1C01289DF8000018D0217820F02E
:105BC0002000C1F3001140EA411000BF8DF8000031
:105BD000218800F0F000C1F3431101438DF800105B
:105BE0003346012269465420FFF7EFFAF8BD2178C9
:105BF00020F01000C1F3001140EA0110E6E70000B8
:105C000038B5044600200D468DF800000B460122F1
:105C100069465320FFF7C4F9002825D12178A01C3C
:105C200001299DF8001020D0007821F0800141EA80
:105C3000C01121F04001C0F3400241EA8211C0F3DB
:105C4000800221F0200141EA421121F01001C0F34D
:105C5000C00041EA001000BF8DF800002B46012271
:105C600069465320FFF7B1FA38BD007821F00801EA
:105C700000F0010241EAC20121F00401C0F3400238
:105C800041EA8201C0F3800221F0020141EA4201AF
:105C900021F00101C0F3C0000843DDE77CB50446F4
:105CA00000200D468DF800005F260B460190012272
:105CB00069463046FFF774F900282ED19DF80000A0
:105CC000218820F0FC00C90840EA81008DF800001E
:105CD0002B46012269463046FFF777FA00281CD18F
:105CE00062202B4601226946FFF75AF9002814D199
:105CF0009DF80000218820F00100C1F340210843F5
:105D00008DF800008DF80500A0788DF80400612062
:105D10002B46022201A9FFF758FA7CBD38B504468C
:105D200000200D460B460090022269466520FFF7D1
:105D300037F900282FD19DF800002B4620F00302F0
:105D4000207800F003011143C0F3810221F00C011F
:105D500041EA820121F0F001000941EA00108DF8CA
:105D600000009DF8010020F03F022088C0F30521CB
:105D70001143C0F3803221F0400141EA821121F049
:105D80008001C00B41EAC0108DF801000222694673
:105D90006520FFF71AFA38BD38B5044640780D463D
:105DA0008DF800000B46012269466020FFF70DFACE
:105DB00000282AD12B46012269466220FFF7F0F81D
:105DC000002822D19DF80000217820F00C0001F07D
:105DD000030140EA81008DF80000217820F03000B6
:105DE000C1F3810140EA01108DF80000217820F014
:105DF0000200C1F3401140EA41008DF800002B463B
:105E0000012269466220FFF7E0F938BD38B50D463A
:105E1000002104460091008810F0C00F08D0C0F3A4
:105E20008110012809D002280BD0032810D033E0BC
:105E300015208DF80000032007E02D208DF80000CC
:105E400028E01D208DF8000007208DF8010023E0D8
:105E50002B46022269467A20FFF7A2F8E0B99DF8A6
:105E60000000217820F01800C1F3410140EAC10090
:105E70008DF80000217820F00700C1F3C201014332
:105E80008DF800109DF80100218820F00700C1F373
:105E9000022101438DF801102B46022269467A2027
:105EA000FFF793F938BDF8B5074600200E461546B2
:105EB00013460090022269466320FFF771F800281C
:105EC0002BD178789DF80040032806D1308824F043
:105ED0000701C0F3C21040EA010431784023C1F346
:105EE000401003EA801024F040021043890920F09A
:105EF000800242EAC1108DF800009DF80110307850
:105F000021F01F0100F01F0008438DF8010002225C
:105F10002B4669466320FFF758F9F8BD2DE9F0419B
:105F200017880646B81D14460D46984202D90C2023
:105F3000BDE8F0813188072206290AD34FF4486C66
:105F40004FF6FF73614501D9994202D17088062846
:105F500001D21046ECE7604501D99842F9D1994247
:105F600003D0984201D08142F3D80520E85520881B
:105F70001221401C80B2208029542088401C80B20D
:105F800020804119308803F0C8FE2188084480B27F
:105F900020804119708803F0C0FE218808442080C9
:105FA0000020C5E7FEF750B838B54A7A0F4B62B10A
:105FB00000220A725969002906D001228DF80020BA
:105FC000ADF802006846884738BD0A7A62B19B681E
:105FD0004C68024619462046FEF7A6F80028F3D082
:105FE000BDE8384002F0C8BE5B68F1E7F43000203D
:105FF0002DE9F04100260125144C22E06068226959
:1060000000EBC607387805FA00F1114217D08A4331
:10601000226101F091F802463878E36805FA00F150
:10602000194002FA00F3994209D17978012901D087
:10603000012100E0002151407A6802B19047761CAE
:10604000F6B220788642D9D3BDE8F081942A0020A8
:106050000E4910B50A784C780023A24212D0521C87
:10606000D2B20A70022A00D10B70084A0B780C32A7
:1060700052F8232002608868104420F07F40886036
:10608000012010BD0360002010BD0000A82A0020E0
:10609000F8B504460D4600260B468DF80060012237
:1060A00069465020FEF77CFF00282BD12178C807D5
:1060B0009DF800001AD020F00100C1F34001014317
:1060C0008DF8001021F002002178C1F3800140EA30
:1060D00041008DF80000217820F00400C1F3C001D8
:1060E00040EA81008DF80000EE7005E020F0070026
:1060F0008DF80000FF20E8702B46012269465020F1
:10610000FFF763F8F8BD30B50446006885B00D466A
:10611000806800281CD014216846FDF7DCF9019541
:10612000A0680490207910B101280DD104E001206D
:106130008DF80000206904E002208DF80000E0687E
:106140000003029060690390206881686846884770
:1061500005B030BD826883881A4003689A5C0A7073
:106160008168491C81607047C26883881A4003684F
:106170009954C168491CC160704710B50446C0B24B
:10618000FEF79AF8204610BD10B5002821D0114B1B
:106190000022001F196803E0814203D80A464968BB
:1061A0000029F9D152B11368841A9C4204D10068C5
:1061B00018441060104602E0506000E0186039B1E9
:1061C00002680B1A934203D10B681A4402604968B3
:1061D000416010BD342B00200B484A8843889A4206
:1061E00011D10A88A2F52063773B0CD18988C91E9A
:1061F0008AB28280054803211346008801EB0040E3
:1062000003A101F0B6BE7047682A0020902B002041
:1062100044617461206C656E20697320736574201D
:10622000746F2030782558282564290010B5094955
:10623000094800F024FD08B1FDF706FF402106489B
:1062400000F011FD002803D0BDE81040FDF7FCBEB2
:1062500010BD0000D9610200682F00202DE9F04137
:10626000124E07460125BD403068FDF7A1FF00280A
:106270000DD10F4C2069284207D1384600F05CFF51
:106280000028E06805D0284304E0A8432061BDE869
:10629000F081A843E060206928432061A16830684C
:1062A000BDE8F0410022FDF73FBF0000F49F02006F
:1062B000942A00200146034802888A4200D0002028
:1062C00070470000E03000202DE9FC5F0E0083469F
:1062D000DDE90C47C6F1000098469246814600D49D
:1062E0000846012503E000BF90FBFAF06D1C504505
:1062F000FADAA84500D9454624B1002E01DB78071B
:1063000000D5641EB80702D5B8F1000F0AD0F8070F
:1063100008D13CB1A54205D220215846641EFFF7A2
:10632000F7FAF6E7002E02DA4E462D2102E0780752
:1063300003D52B215846FFF7EBFA07F0030002289C
:106340000BD1B8F1000F08D13CB1A54205D23021E4
:106350005846641EFFF7DCFAF6E7CDE900474346EE
:1063600052463146584603F0DDFCBDE8FC9F000074
:1063700008B50020ADF8000004496846FEF753FE5A
:10638000014603A0FDF7D4FC08BD0000B42E002098
:1063900025640A0070B50E460446007918494FF48A
:1063A000A27501EB4010017F2068A1B14FF4887104
:1063B00002F0AAF94FF49071206802F0A5F94FF4A9
:1063C0009271206802F0A0F92946206802F09CF939
:1063D0000C49206809E04FF48E7102F084F92946D7
:1063E000206802F080F908492068C0F8041320688A
:1063F00000F0F0FD3146BDE8704000F0CFBD000078
:10640000343200201003020080000200F0B58488BE
:10641000A518944200D82246A41AC288D6189A42D7
:1064200000D81346D21A4B880788BB420CD3408849
:10643000834209D88888A04206D3A84204D8C888D5
:10644000904201D3B04201D90020F0BD0120F0BD3F
:106450000A4810B5807860B1002401E0022C06D013
:106460002046FEF7D7FF641C042CF7D310BD03248D
:10647000F6E7BDE81040FFF703B80000742A0020DB
:1064800003480179C90702D00078FFF731B9704796
:10649000742A002006490120086006480168C1F3FB
:1064A00000410029FAD1044900208870704700009B
:1064B0000C00004018040040C8310020F721018082
:1064C00017214180002101714171FB2181711B2144
:1064D000C17170472DE9F047394E002780463D468F
:1064E000DFF8E090D6F804A057E003D00446D0F8D7
:1064F0001C8035E099F8002002EB4201521CD2B218
:1065000089F8002009EBC10199F80230091D9A426F
:1065100001D189F8005048680A780446012A12D04F
:10652000022A02D0032A3BD108E003F04FF900B160
:106530000127257434E00574C06900E07068002804
:10654000F9D170602CE0207C50BB88686060C8681E
:10655000A0600869E0604869A061F07800B16560FA
:106560006268B168184B501A20F07F40984202D2FE
:10657000A168084406E0881AA16820F07F408142A3
:1065800002D9081A206000E0256065600120A5603E
:1065900020742046E56103F0FBF8B8F10000A4D1B7
:1065A00099F8001099F801008142A3D117B97168D8
:1065B000514502D00120BDE8F0870020FBE7000034
:1065C000A82A002098320020FFFF7F0070B588B015
:1065D000214800F0E7FA2048001F064600F0E2FAE2
:1065E0001E4DD5E9014105E0C0F3891202EB905040
:1065F000641C044404EA010005EB8000C0688207C3
:10660000F2D000200DF1080204EA010305EB830338
:10661000641CDB6842F82030401C0228F4D3029846
:1066200000F00300012808D002280AD102980321B3
:1066300001EB905004EB900403E00298C0F3831048
:1066400004443046002101AAFCF7AFFE002800D028
:106650006C6008B070BD00009839002080350020C3
:10666000A8B0FDF737FD08B1FDF7EEFC1822674929
:106670006846FCF717FF6648069066494FF480703D
:10668000CDE9070109900723634A06A96846FDF78B
:10669000B9FD08B1FDF7D8FC002001F0C9FC08B134
:1066A000FDF7D2FC01F060FB5C490320FEF7D6FF4A
:1066B00008B1FDF7C9FC69460020FEF705FF08B1E7
:1066C000FDF7C2FC01F03EFF08B1FDF7BDFC002460
:1066D00069460120009401F0D9FD08B1FDF7B4FC32
:1066E000684601F07DFE08B1FDF7AEFC9DF808009C
:1066F0004BA120F00F00401C20F0F00010308DF86E
:106700000800132202A87CDF08B1FDF79DFC00946D
:106710001020ADF800003C200194ADF80200ADF867
:1067200004404FF4C870ADF8060068467ADF08B13F
:10673000FDF78AFCFFF77AFD3E48009069463E4827
:10674000FEF78EFB08B1FDF77FFCA0216846FCF741
:10675000C2FE02208DF800008DF8024005208DF861
:1067600003000120ADF84C008DF87C004020334937
:1067700022901491B4202390314826902E486946E7
:106780003030FDF749FF08B1FDF75EFC2A480121D2
:106790003030FDF73EFF1C216846FCF79CFE4FF4AD
:1067A0002030CDE900404FF470200290254805903C
:1067B000032525488DF80C500690ADF80E408DF855
:1067C00010406846FEF714F908B1FDF73DFC02F0F1
:1067D000D7FE02F0D9FAFFF7C1F91CA0FDF7A8FA1D
:1067E0001E481FA1008805EB004001F0B7FB1248CE
:1067F00003213030FEF716F803E000BF01F0C2FAC3
:106800003EDF0028FAD0FDF71FFCF7E75C9F02008F
:10681000B42C0020B42D0020019A0200B5550200CE
:106820004E6F726469635F537465705F436F756E1A
:10683000746572002D8702004C2F00206E2A002004
:10684000BD870200E1870200A55F02000D0A5541E5
:106850005254205374617274210D0A00902B002051
:10686000554152542053746172742100F0B50B30BD
:10687000154D20F007010024144A0FE003688B42F5
:106880000BD38B4205D95E1A43184768C3E90067EA
:1068900000E04368136002C004E0021D1068002895
:1068A000ECD12046002802D1286808B10020F0BDB4
:1068B000064A07481060074A121A22F00702C0E988
:1068C000002401202860D7E7382B0020342B00203B
:1068D0002C3C0020285C002070B5144682880E46AF
:1068E00005462088111D0144921C994201D8FE2AB8
:1068F00001D90C2070BD521C32542088FF21401C4D
:1069000080B2208031542088401C80B220808119C0
:10691000288803F002FA2188084480B22080AA88DF
:1069200042B1A96841B13044FCF7BCFD2088A98878
:1069300008442080002070BD072070BDF8B50546D2
:1069400000200E460B460090032269465520FEF7B4
:1069500027FB002812D1687816499DF800409DF861
:106960000220085C2B788443824343B1012B09D079
:10697000022B09D0032B0DD06FF00300F8BD8DF86A
:1069800000400DE00443FAE702438DF802208DF841
:10699000004007E004438DF800406878085C02433B
:1069A0008DF802203346032269465520FEF70DFC80
:1069B000F8BD0000749F0200F8B5054600200E46A1
:1069C0008DF800000B46012269465620FEF7E8FAD2
:1069D000002811D169781548425C9DF80000904369
:1069E00020EA0214287840B1012809D002280CD0EE
:1069F00003280ED06FF00300F8BD8DF800400EE0C4
:106A000044EA02108DF8000009E022438DF80020CE
:106A100005E042EA040040EA02118DF80010334616
:106A2000012269465620FEF7D0FBF8BD749F020094
:106A30002DE9F047C7880446181D16468946B0FB65
:106A4000F7F1B0FBF7F207FB12009A193A44D21C97
:106A5000B2FBF7F2DDF820A001E02468491E00290E
:106A6000FBD13D1A8846B54216D818E0BAF1000F9E
:106A700005D0211809EB08002A46091D04E020442E
:106A800009EB08012A46001DFCF70CFD00202468D4
:106A9000761BA844B74201D9354600E03D46002E9A
:106AA000E4D1BDE8F087000030B5024669B101F0DD
:106AB000EDFA0021084C0BE001EB410304EB8303EA
:106AC00015685B88AB4202D11160002030BD491CC3
:106AD0008142F1D3052030BD3C2B0020F8B50E4695
:106AE000017814460546012901D1687830B1208823
:106AF000821C9A422DD8012902D006E00720F8BD59
:106B000069780144891C994223D8181A801E87B2DB
:106B1000ADF800702188B01C084469467DDF00286C
:106B2000EDD12878022805D1BDF80010B94201D86E
:106B300009210AE00821012805D16878B84202D865
:106B4000ADF8000001E0ADF80070BDF80000FE28CF
:106B500001D90C20F8BD2288401CB0542088401C6C
:106B600080B2208031542088401C2080BDF8001065
:106B7000084420800020F8BD10B50A8849888A4260
:106B800003D1FCF789FB012010BD002010BD70B5BA
:106B90000C460546FCF763FB002802D06188286894
:106BA000084470BD08B501216A46FCF7F1FB009866
:106BB00008BD38B5044600258DF800506846FDF73D
:106BC00099FB21686268086890420ED9401E0860EF
:106BD0000178238AE26801FB0325227A2168101AD2
:106BE000C0B20A79824200D208719DF80000FDF718
:106BF000A5FB284638BD38B5054600208DF80000B5
:106C00000C466846FDF776FBE868298A201AB0FB37
:106C1000F1F12A681068431C136001709DF80000B0
:106C2000FDF78CFB38BD10B530B1017A42680368BE
:106C3000891AC9B21A6006E00E2010BD03681A68EE
:106C4000541C1C601170491EC9B2F7D200680021A3
:106C50000171084610BDC20800F007030120895CDD
:106C600098400840704728B1A1F11702E12A03D3E8
:106C7000072070470E20704701800020704710B534
:106C800060B10161F72120F8021B20F8021BFB21F3
:106C900000F8021BFFF712FC002010BD0E2010BDF3
:106CA0002DE9F043858895B00C46002D3DD1018833
:106CB000DFF824810026DFF82491012724293CD025
:106CC00006DC102909D011290CD023296DD150E000
:106CD0003A290BD0552968D12AE00146204601F017
:106CE0008DFD62E0A01DFFF7E9FB5EE022464089D2
:106CF00034F8061F814200D808466080172800D269
:106D000017206080106970B1607960B1D8E9001017
:106D1000CDE90310ADF80E506088ADF8100013698E
:106D200003A9104698476671267115B0BDE8F08337
:106D30000146204601F0B0FD37E0011D342206A8CF
:106D4000FCF7B0FBBDF81800BDF81C2004EBC00137
:106D50004A7322694AB3D8E90432CDE90432ADF866
:106D60001200487B8DF814002269204604A9904740
:106D70001BE00496059630F8041F04EBC10201796C
:106D8000127B8A4200D21146ADF81010ADF81210F5
:106D90000088002204A990DF020006D0B9F80000A4
:106DA0000F4907EB004001F0DDF8A07A0028BCD0C5
:106DB000E18828469EDF02000BD0112AB5D0B9F831
:106DC000000015B007EB0040BDE8F043054901F0B5
:106DD000C9B8A672E772A8E7B89F02003C2B002052
:106DE00014A302008CA2020000F180400068002879
:106DF00000D00120704708B500F1804000210160FB
:106E00000068009008BD4FF47A714843AFF30080EA
:106E100000283ED01F49204A096800BF00BF00BFBC
:106E200000BF00BF00BF00BF00BF91422FD000BF16
:106E300000BF00BF00BF00BF00BF00BF00BF00BF5A
:106E400000BF00BF00BF00BF00BF00BF00BF00BF4A
:106E500000BF00BF00BF00BF00BF00BF00BF00BF3A
:106E600000BF00BF00BF00BF00BF00BF00BF00BF2A
:106E700000BF00BF00BF00BF00BF00BF00BF00BF1A
:106E800000BF00BF00BF00BF00BF00BF00BF013890
:106E9000C3D17047302B00200024F40000283ED0DE
:106EA0001F49204A096800BF00BF00BF00BF00BFE4
:106EB00000BF00BF00BF91422FD000BF00BF00BF86
:106EC00000BF00BF00BF00BF00BF00BF00BF00BFCA
:106ED00000BF00BF00BF00BF00BF00BF00BF00BFBA
:106EE00000BF00BF00BF00BF00BF00BF00BF00BFAA
:106EF00000BF00BF00BF00BF00BF00BF00BF00BF9A
:106F000000BF00BF00BF00BF00BF00BF00BF00BF89
:106F100000BF00BF00BF00BF00BF0138C3D1704732
:106F2000302B00200024F40070B50F4C0025207891
:106F300008B1852516E00021A16061602161E16052
:106F40004FF0E020D0F80001012610F0010F03D12E
:106F50000721002000F022F801F03CFB08B90348AB
:106F600006602670284670BDC83100201805004014
:106F700008B500208DF800006846FDF7BBF906480B
:106F8000C168491EC160C06808B9FFF783FA9DF85F
:106F90000000FDF7D3F908BDC83100204907090EEC
:106FA000002806DA00F00F0202F1E02282F8141D38
:106FB00003E000F1E02282F8001400F01F0201213A
:106FC00091404009800000F1E020C0F88012C0F834
:106FD00000117047000B40B2704700002DE9F041EE
:106FE0008846054601F092FC234E002828461AD018
:106FF000FEF7DEFC304490F848008009032802D0F8
:1070000001280ED007E04FF0A040D0F81005E8406E
:1070100010F0010F05D003212846BDE8F04100F033
:10702000A3BD0221F8E701F07DFC002822D028460C
:10703000FEF7BEFC04464FF4807000EB84000F4F57
:1070400081B207EB8400D0F8102542F00102C0F8AD
:107050001025084600F0C0FDB8F1000F0AD0284600
:10706000FEF7A6FC56F82000002803D00120A0401F
:10707000C7F80403BDE8F081DC3100200060004067
:107080002DE9FC41DFF8A480044608EB040000274A
:1070900090F930001346C0170E46401C01D0082757
:1070A00041E0F27819462046FEF75EFC0546401C9A
:1070B00038D0B07850B14FF0A04000EB8400D0F849
:1070C000001721F00201C0F8001707E000217378D3
:1070D000204600910A46019100F0E2FCF078C0B130
:1070E0001348317800EB8500D0F81025114B1A4079
:1070F000C0F810254FF4F8524FF4403302EA04224E
:1071000003EA01410A43D0F810150A43C0F81025DC
:1071100009E008EB0500327810F8481F41EA8211B7
:10712000017000E004273846BDE8FC81DC31002016
:1071300000600040FFE0FCFF4FF0A041D1F81015C7
:10714000C14011F0010000D00120704770B5144D0E
:1071500095F8540008B1082070BD0020411E2A187F
:10716000401CC0B282F830102028F8D300242046FA
:10717000FEF7ECFB641CE4B20C2CF8D307210620CC
:10718000FFF70CFF4FF4BE7000F026FD05494FF0ED
:107190000040C1F80403012085F85400002070BDB0
:1071A000DC31002000600040034890F854000028C3
:1071B00000D0012070470000DC3100200121B1EB3C
:1071C000507F01D101207047002070470121B1EBB1
:1071D000507F01D101207047002070472DE9FC5FEE
:1071E000804640790C4600EBC001454800EB810722
:1071F000387F10B10820BDE8FC9FC7E90023207B41
:107200004FF0A04B4FF00109012805D8227809FA68
:1072100002F0CBF80C0502E0207800F0B6FC4FF04D
:10722000000ACDF800A0CDF804A0207853465246BD
:10723000012100F059FC65784FF0FF36FF2D07D093
:1072400009FA05F0CBF80C05284600F072FC00E0C6
:107250003546A078FF2809D0002206460123CDF844
:1072600000A01146CDF804A000F03EFCE078FF2815
:1072700004D000F08AFCE07800F05BFC98F8050090
:10728000E17800EBC0021E4800EB82008177D8F85D
:1072900000002178C0F80815C0F80C55C0F810653A
:1072A000A168C0F82415227B617B01B10121012A6C
:1072B00004D0022A05D0032A08D105E041F00201DA
:1072C00004E041F0040101E041F00601C0F854156A
:1072D0006179C0F8C015396811B14021C0F80413B4
:1072E0000721C0F80015386820B1217998F9040009
:1072F000FFF754FE504687F81DA087F81C907AE7E8
:10730000543200201FB5069C00918DF80420029392
:107310008DF80C400022694600F002F804B010BD60
:10732000F0B40D4613464179144A01EBC10102EB5A
:1073300081014A7F12B1F0BC112070470C68012214
:107340001CB113F0140F00D14A7795E8D0100C311E
:1073500081E8D01011F8154F24F0070401F82149F5
:107360008C7FFF2C04D04FF0A046A240C6F80C251D
:1073700000682A46F0BC02F027B900005432002011
:107380002DE9F04105460079164F904607EB401471
:107390000E46E07E10B10820BDE8F081707F2077B6
:1073A0002846FCF7E5FF5FEA08006060316921606C
:1073B00003D0317F2846FEF7EDFF287907EB401018
:1073C000007F0028286801D0082100E00421C0F8CF
:1073D00000150020E0752076A0750121E176A076E9
:1073E000DAE70000343200202DE9F041054600794B
:1073F000284E904606EB40140F46207F18B10846F1
:10740000FFF7DCFE80B1626800234FF404704FF494
:10741000017172B12A7906EB4212127F002A2A68A2
:1074200005D0C2F8080304E01020BDE8F081C2F8DE
:107430000813E27DB2B1227E7AB162685AB12A792C
:1074400006EB4212127F1AB12968C1F8040302E068
:107450002868C0F804131120E7E72761012384F8A6
:10746000188005E084F817800020E76060762076B9
:107470002879424606EB40103946007F002828460E
:1074800003D0BDE8F04100F073B8BDE8F04100F072
:107490001BB800003432002070B504460079094D55
:1074A00005EB4010017F00290AD1807E002807D11A
:1074B000204601F06FFB2179012005EB4111887610
:1074C00070BD0000343200202DE9F05F04460079E1
:1074D000264901EB4015A87E184302D1204601F051
:1074E00059FB68680028206806D04FF40171C0F885
:1074F00004130020BDE8F09F4FF4A276314601F05E
:10750000F2F8B1464FF4927A4FF4847B51462068EA
:1075100001F0E4F806465946206801F0DFF880469D
:107520004946206801F0DAF8074648EA0700304388
:10753000ECD056EA070007D12946206801F0B4FADA
:10754000E87D697E8842E1D80020E8750EB103200D
:10755000D0E70FB10F20CDE7A97E012000292168D7
:1075600001D00860C5E74860C3E70000343200205E
:107570002DE9F05F894604464FF488759A46904697
:1075800000260068294601F0BFF84FF4A27739467B
:10759000206801F0B9F82068C0F83495C0F8388543
:1075A0002068BAF1000F14D0D0F8001241F0200189
:1075B000C0F800122179DFF8648008EB41104068C0
:1075C00050B120684FF40471C0F804133046BDE890
:1075D000F09F01210160EDE7AA46B9464FF4927B86
:1075E0005146206801F08BF807464946206801F0B3
:1075F00086F805465946206801F081F8014647EAB9
:1076000005000843ECD02379002208EB4310C27533
:1076100001B10326002DD9D00F26D7E73432002040
:107620002DE9F047054600793F4E904606EB4014A1
:107630000F46207F18B10846FFF7C0FD30B128463D
:1076400000F074F820B11120BDE8F0871020FBE7AE
:1076500084F81680A7600027A78228794FF00108D8
:1076600006EB40143E46207F0028286825D04FF4C2
:107670009079494601F048F84FF4AC7A51462868B1
:1076800001F042F82868A17DA268C0F84425C0F83E
:1076900048152868C0F808806068F0B9494628682D
:1076A00001F02DF880465146286801F028F858EA84
:1076B0000001F3D058BBA7750FE04FF48E7A514606
:1076C00001F011F82868C0F808802146286802F007
:1076D0000BF961684FF4807089B13046B4E75146C8
:1076E000286800F0FBFF10B9A08A4845F7D1A08AAE
:1076F000484505D02146286802F0F6F800E08146AA
:10770000A08AA17D8842EAD3A08A484501D10F26EC
:10771000D1E75146286800F0E1FF0028F9D0286839
:10772000C0F80C80C7E7000034320020007904491B
:1077300001EB4010807D002800D001207047000040
:10774000343200200FB408B50399002904D004AAEC
:1077500000926A4600F00FF801B05DF814FB10B516
:1077600082680446002A05D0D4E9040321689847BA
:107770000020A06010BD2DE9FC4791460C0080461A
:1077800076D014F8011B39B125290ED04046FEF7FA
:10779000BFF820780028F4D198F80C00002867D0B2
:1077A0004046BDE8FC47FFF7DABF00200122217800
:1077B0002B291BD02D2902D0302908D102E040F01E
:1077C000010001E040F00200641C002AEFD1002516
:1077D0002A290ED02178A1F130020A2A11D205EB14
:1077E000850201EB4205641C303DF1E740F00400E6
:1077F000EAE7D9F800100B1DC9F800300968641CCD
:107800000D44217800232E290BD114F8011FA1F17A
:1078100030020A2A05D203EB830201EB4203303B1C
:10782000F3E76C290DD068290BD0692921D00BDC36
:10783000252918D0582931D063290ED0642915D1B3
:1078400017E014F8011FECE7702969D0732932D0D2
:1078500075291BD0782909D120E0D9F80000011D35
:10786000C9F8001001784046FEF752F8641C90E712
:107870006CE0D9F800100A1DC9F800200968CDE9AC
:1078800000500A224046FEF71FFDEFE7D9F800102E
:107890000A1DC9F8002009680A2206E0D9F800107C
:1078A0000A1DC9F8002009681022CDE900504046A1
:1078B00002F038FADAE7D9F8001000270A1DC9F8F3
:1078C00000200E68C00705D112E04046761C7F1CE0
:1078D000FEF71EF831780029F7D104E02021404658
:1078E0006D1EFEF715F8BD42C0D9002DF6D1BDE7DB
:1078F0004EB13046FBF7FAFD074604E02021404632
:107900006D1EFEF705F8BD4206D9002DF6D103E045
:107910004046761CFDF7FCFF31780029F8D1A5E739
:10792000D9F80000011DC9F8001005683021404653
:10793000FDF7EEFF78214046FDF7EAFF0820002121
:10794000CDE90001034610222946B0E7BDE8FC87D7
:107950002DE9F04128B1016819B1C969BDE8F041CC
:1079600008470D4D0D480024461B14270DE000BFAD
:1079700004EB840005EB8000016829B1C9698847E0
:1079800010B10120BDE8F081641CB6FBF7F0A04205
:10799000EED80020F6E70000000000000000000024
:1079A000044801214174007A08B100207047012089
:1079B000704700005C340020012801D0032808D162
:1079C0000449002201284A7400D00020087401F004
:1079D00001B870475C34002070B5254C0246207A0F
:1079E000012837D0022841D122480023022A00680A
:1079F00002D0032A2ED11BE0E360017911B10129E5
:107A000028D10DE0D0E90565711B4FF48056B142D5
:107A100000D33146294481614569A9420ED019E05D
:107A20000169491C01614269914213D1237217E037
:107A3000E168491CE16008290CD9E3602372022A3D
:107A40000ED00D21FEF75FFB0B480A49091D0068A7
:107A5000FFF792F8607C28B1BDE8704000F0C0BD2F
:107A60000021EFE7BDE8704000F0B4BF70BD00003A
:107A70005C340020CC2A00202CA0020070B541EA22
:107A80004201DDE904564FF0A04441EA830141EA96
:107A9000052104EB800041EA0641C0F8001770BDE3
:107AA00070B541EA4201DDE904564FF0A04441EAD5
:107AB000830141EA052104EB800041EA0641C0F858
:107AC000001770BD70B541EA4201DDE904564FF080
:107AD000A04441EA830141EA052104EB800041EA28
:107AE0000641C0F8001770BD70B541EA4201DDE9FA
:107AF00004564FF0A04441EA830141EA052104EB1A
:107B0000800041EA0641C0F8001770BD1CB5002294
:107B10000B46009211460192FFF7D4FF1CBD1CB525
:107B2000002100910B46012201911146FFF7CAFF87
:107B30001CBD1CB5002100910B460122019111468C
:107B4000FFF7D2FF1CBD4FF0A04202EB8000D0F83F
:107B5000002722F44032C0F80027D0F8002742EA7C
:107B60000141C0F8001770474FF0A04202EB8000BF
:107B7000D0F8002722F44032C0F80027D0F80027C0
:107B800042EA0141C0F8001770474FF0A0420121BE
:107B90008140C2F80815704701224FF0A04382408F
:107BA00011B1C3F808257047C3F80C2570470000D1
:107BB00018B5084B6C4601441B68009306E000BFF3
:107BC00054F82030D3F81035401C08C28142F7D851
:107BD00018BD0000F09F0200034908B508440021C9
:107BE00001600068009008BD0060004002494058F4
:107BF000012800D0002070470060004030B5124BD3
:107C000001460020D3F81044224609E0157A854247
:107C100005D1401C0A28F7DB4FF0FF3030BD526819
:107C2000002AF3D1421CF9D00872D3F810242AB1EB
:107C300052684A60D3F81024516030BD0022C3F866
:107C400010144A6030BD0000803500207047FBF7FB
:107C5000FBBD704708B5034A00924023024A00F07A
:107C600005F808BDF18D020080340020F0B595B014
:107C70001C4615460F4608461A9E00F0D7FA1821F2
:107C800009A8FBF728FC0E96CDE909540023082229
:107C900003A9384600F0E4FA059806900498ADF878
:107CA0001C0000208DF820000398082600F0030037
:107CB000012802D002281DD03CE003983346850AF3
:107CC000C0F3C2008DF81E0003980FA9C0F3800016
:107CD0008DF81F000398C0F38314A200384600F00B
:107CE000BFFA09A8009006AB22460FA9284600F06B
:107CF000F9F91FE00398840DC0F3C2008DF81E004F
:107D00000398C0F380008DF81F00082C01D225468F
:107D100000E0082533462A460FA9384600F0A0FAAD
:107D20002E44641B09AB06AA29460FA800F02AF9C5
:107D3000002CEAD1384600F082FA15B0F0BD000000
:107D4000084A012902EBC00005D0022903D003290B
:107D500003D0042903D00020704700797047407990
:107D6000704700007CA9020010B5FFF770FF0421E6
:107D70000348FFF743FF02490120487210BD00008D
:107D8000D82A00202DE9F04F8DB0FDF7D1FD18B1B4
:107D900000200DB0BDE8F08F6E480021C0F8181427
:107DA000BFF34F8FD0E9014604EA060100EB8101E1
:107DB0004FF000090AE000BFC1F3891202EB9151B4
:107DC000641C0C4404EA060100EB8101C9688A07BF
:107DD000F2D0002103AA804604EA060008EB8000E6
:107DE000641CC06842F82100491C0229F4D303989E
:107DF00000F00300022802D001284BD0A4E0039831
:107E00005022810D8A46B2EB905F00D850210D467A
:107E100065F39F50039008314F4800F0BEF907000A
:107E200075D000F003FA4B46082203A9384600F04B
:107E30001DFA04EA0601701A8000001D09F1080B02
:107E4000854220D9434E0C3630B1C2B208EB8101D5
:107E5000281A91460C3104E03146EAB200269146D8
:107E60003046C5B25B46384600F000FA0BEB09031A
:107E700026B12A463146384600F0F8F90AF10300E7
:107E800004EB90043AE008EB81015B462A46384651
:107E90000C31F1E70398C0F38310062800D30620C5
:107EA000039960F38911C1F38310801C0391810051
:107EB000294800F072F9070046D000F0B7F94B46A8
:107EC000082203A9384600F0D1F909F10809002574
:107ED0000EE000BF04EA060008EB80014B460422D6
:107EE00038460C31641C00F0C1F909F104096D1C1D
:107EF0000398C0F38310A842ECD847B1D8F81054C7
:107F0000D8F81804464660B1384600F098F91BE0EE
:107F1000687A012804D12A682846394612689047B1
:107F20006D68002DF4D1384600F089F900208DF8F5
:107F300000006846FCF7DEF9D6F8180400B9746052
:107F40009DF80000FCF7FAF9FDF7F2FC80F0010063
:107F50001FE70000803500204CA1020000231A46D4
:107F600001F08CBB08B5012300926A4601F086FB44
:107F700008BD1CB5CDE9002302236A4601F07EFB53
:107F80001CBD00002DE9F0470E4680461C46924677
:107F900008293ED894F80C9000202073194610460A
:107FA00000F0EAFC0025B54206D218F805201AA117
:107FB0002046FFF7C7FB03E019A12046FFF7C2FBED
:107FC0006D1C082DEFD317A12046FFF7BBFB002542
:107FD000B54210D218F80570FBF760FA0068C05D72
:107FE00010F03E0F01D03A4600E02E220EA12046AE
:107FF000FFF7A8FB03E00DA12046FFF7A3FB6D1CD4
:10800000082DE5D301222146504600F097FC84F864
:108010000C90BDE8F0870000202530327800000089
:10802000202020007C0000002563000020000000CC
:10803000114810B5FF218160002101604160C0F846
:108040001814C0F8141480F81C140C4800F0F5F84B
:1080500000280FD10A480B490B4B401AC1080020D9
:1080600005E000BF00EB400223F82200401C8842DC
:10807000F8D3002010BD0000803500204CA1020084
:10808000D4A902007CA902003C2B0020024803492D
:10809000401AC00870470000D4A902007CA9020061
:1080A00013B56846FEF700FD08B100201CBD02486C
:1080B000009950F831001CBD7CA9020070B5084839
:1080C0000125D0F8104480F81C5405E06572216841
:1080D0002046496888476468002CF7D170BD0000CD
:1080E000803500202DE9FF4781460C9D00200C467D
:1080F0002F7B2873984616462946184600F03CFC0C
:10810000072E42D2DFE806F004090F161F2A3600B8
:1081100049462846FFF716FB37E0494628462268BD
:10812000FFF710FB31E0D4E9002349462846FFF76A
:1081300009FB2AE0A0680090D4E9002349462846BC
:10814000FFF700FB21E0D4E90201CDE90001D4E909
:10815000002349462846FFF7F5FA16E004F1080027
:1081600007C88DE80700D4E9002349462846FFF7F1
:10817000E9FA0AE004F108000FC88DE80F00D4E91D
:10818000002349462846FFF7DDFA002229464046EB
:1081900000F0D4FB2F73BDE8FF872DE9F041058A7D
:1081A00080462D1F4819C01CB0FBF5F0C6B24046F2
:1081B000FEF7FFFC041E19D0002020710120607121
:1081C000E58000272546761EC4F800800BE0404677
:1081D000FEF7EFFC60B16179491C617128600546CA
:1081E0007F1CC0F80080B742F1D32046BDE8F08183
:1081F000204600F002F80020F8E72DE9F04145792B
:1082000001466B1E002201E00968521C9A42FBD312
:108210000F680146002605E038460C68FEF7EBFCC7
:108220002146761CAE42F7D3BDE8F08108B50121A6
:108230006A46001DFBF785F808BDFEF7F4BC38B5AB
:108240000446001D01216A46FBF788F8009810F0EB
:10825000FF0F04D12046BDE83840FFF7CEBF38BD40
:1082600038B501240094FEF7E3FB38BD38B500248F
:108270000094FEF7DDFB38BD20B1034909680160B9
:10828000002070470E207047D8A102002DE9FE4360
:1082900006460D460846FFF7EFFF00287ED18046D0
:1082A000CDF80080CDF80480012403208DF8006013
:1082B000ADF80400CDF808808DF802406946202012
:1082C0002A6869DF3F4F40B100F0FEF90246388866
:1082D0003D4904EB0040FFF745FECDF800808DF8E6
:1082E00000408DF80180CDF80480CDF808808DF82D
:1082F0000280694640202A6869DF40B100F0E4F955
:1083000002463888314904EB0040FFF72BFECDF8D8
:1083100000808DF80060F720ADF80200CDF80480F1
:10832000CDF80880694623202A6869DF40B100F053
:10833000CBF902463888264904EB0040FFF712FECD
:10834000CDF80080CDF80480CDF808808DF800408D
:108350004646694601202A6869DF40B100F0B4F959
:10836000024638881B4904EB0040FFF7FBFD4FF441
:10837000B0600090019602966946A1202A6869DFE4
:1083800040B100F0A1F902463888134904EB0040DF
:10839000FFF7E8FD00960196029600E010E08DF8E8
:1083A00000606946A0202A6869DF40B100F08CF9BE
:1083B00002463888094904EB0040FFF7D3FD00204E
:1083C000BDE8FE83A82B002020A8020068A80200B8
:1083D000B4A8020080A70200CCA702002CA70200CC
:1083E0002DE9F0410446D0F800E060DF2368144D29
:1083F0000646734515D02888022707EB00407246D1
:1084000010A1FFF7B6FDF806D0F80C012168800234
:1084100000F10050421A288816A107EB0040FFF730
:10842000A1FD56B1304600F04FF9024628880121DF
:1084300001EB004018A1FFF795FD3046BDE8F08143
:10844000A82B002052414D20737461727473206117
:108450007420307825782C2063616E20626520615D
:10846000646A757374656420746F20307825782E83
:108470000000000052414D2073697A652063616EEF
:108480002062652061646A757374656420746F206E
:10849000307825782E00000073645F626C655F653C
:1084A0006E61626C6528292072657475726E6564F0
:1084B0002025732E0000000030B5EBB04FF4CE75D0
:1084C000ADF8A8516AA9684661DF30B1052816D019
:1084D0006BB0BDE83040FBF7B7BD6C46094967A8F3
:1084E00000F0AAF807E000BFD0E90021204690473D
:1084F00067A800F0B8F869980028E1D0F4E76BB0FD
:1085000030BD0000DCA1020010B50D4C2078A0B1F8
:108510000120A07000F09AFB11280CD0022000F07E
:10852000ADFB11DF002807D12070A07000F0E4FF40
:10853000032000F0A3FB002010BD082010BD0000A8
:108540002C2B002038B5174C207808B1082038BDF6
:108550000125A570002000F079FB112820D0002013
:1085600000F08CFB1048114900680090684610DF4D
:108570000028ECD12570A07060700721162000F053
:1085800019FB08B1FBF760FD0721152000F012FB75
:1085900008B1FBF759FD00F0CBFF012000F06EFBA6
:1085A000002038BD2C2B002070A10200D13F02001A
:1085B0000EB50749684600F03FF805E0D0E9001025
:1085C0008847684600F04FF802980028F6D10EBDA3
:1085D0008CA1020001480078704700002C2B00207D
:1085E0000548817819B1007818B1FFF78DBF0820D0
:1085F0007047FFF7A7BF00002C2B00201FB568466F
:1086000048DF30B1052814D004B0BDE81040FBF7B6
:108610001BBD084901A800F00FF806E0D0E90021D1
:108620000098904701A800F01EF803980028E6D0B3
:10863000F4E71FBDF8A10200016009684160AFF3D3
:10864000008010B5D0E900215368994201D1002182
:1086500004E0D1E90034A34202D01946816010BD84
:1086600008314160F0E7816800290BD00268926808
:108670000A44826041684B689A4203D108314160E4
:10868000FFF7DFBF70474058002800D00120704737
:108690000C4A10B502F1F0030EE0991AC91001EB73
:1086A000D171491002EBC1010C68844201D90B461B
:1086B00002E005D201F108029A42EED3002010BD7B
:1086C000486810BD50A0020000B5FFF7E1FF002888
:1086D00000D1014800BD00003CA002004058002825
:1086E00000D00120704708B5002242504058009049
:1086F00008BDD0F80403084000D00120704740585E
:10870000002800D00120704708B500224250405890
:10871000009008BD38B1C16929B1016A19B1406A38
:1087200008B1002070474FF0FF3070472DE9F0414D
:1087300005460078002826D10026144F4FF0010886
:1087400012E0A868805DFBF7B7FD04000BD0112C88
:10875000F7D03988224608EB01400DA1FFF702FC53
:108760002046FBF771FC761CA889B042E9D8A9899C
:10877000A868084410F8010C0D2804D10A20FBF762
:108780009BFD1128FAD0BDE8F0810000902B00205D
:108790004661696C656420726563656976696E67B8
:1087A000204E5553206D6573736167652E204572A9
:1087B000726F7220307825782E20000010B550B1ED
:1087C00003280CD10220FCF73DFF002807D0BDE8AC
:1087D0001040FBF739BCBDE8104000F073BE10BD7F
:1087E0000078002807D104483B21408876DF002824
:1087F00001D0FBF729BC7047682A00202DE9FC4115
:108800008E88027900EBC605AC1D2A73C97B01294D
:1088100002D0022904D101E0008800E040882080D5
:10882000218860880127DFF8648081420CD93046B6
:108830009EDF020025D0112A25D0B8F80000144987
:1088400007EB0040FFF78EFBA079E179884216D94B
:10885000002000900190287BADF80000287BADF847
:10886000020000226946304690DF030007D0B8F8C6
:108870000000324607EB00400649FFF77AFBBDE8EF
:10888000FC816771E0E72771DEE700003C2B0020E8
:108890008CA202005CA302007CB506468D88C888C5
:1088A00006EBC504A41D172800D217202188814299
:1088B00000D8084660800020207121882846ADDF5E
:1088C000020007D00E480121008801EB00400D494D
:1088D000FFF748FB6079002810D1306900280DD0DF
:1088E0000948D0E90210CDE90010ADF802506088C7
:1088F000ADF8040032696946304690477CBD0000FF
:108900003C2B0020D0A20200B89F0200044908447A
:1089100090F93000082801DB0120704700207047E3
:10892000DC3100200449084490F93000082801D2C5
:108930000120704700207047DC31002010B50C4644
:10894000C17949B11AB109A12046FEF7FBFE2046C4
:10895000BDE81040FEF703BF007A0028F3D00448BA
:1089600004A102682046FEF7EDFEECE70D0A0000C8
:10897000082B00202573000070B50446C0790D4611
:1089800000281CD1207A50B1A179A088FFF7D8F92E
:108990000B4951F820200BA12846FEF7D3FEA088F2
:1089A0000021FFF77DFB03460549A079143951F8F2
:1089B00020202846BDE8704003A1FEF7C3BE70BD6D
:1089C000082B0020257300003C25733E2025733AB8
:1089D000200000002DE9F041214C0025214E207A95
:1089E000012730B92048311D0068FEF7D0F830600B
:1089F00038B1022020723168087928B101281ED1CF
:108A000016E06560BDE8F081D1E90503C01A4FF4B6
:108A10008052904200D31046B7EB900F01D28208EB
:108A200000E001220869C9681844194429DF03E0FD
:108A3000D1E90301084428DF38B111280ED0032101
:108A40003068FDF760FB2572DBE7207C0028D9D178
:108A5000BDE8F04100210220FEF7BEBF2772D1E73A
:108A60005C340020CC2A00202CA0020070B5012626
:108A700070044FF0E0210025C1F88001084C40103F
:108A8000C4F84803C4F8080366602F20FEF706FA0E
:108A9000A660044C2F20A560FEF700FAA57070BDFB
:108AA00000100140A82A002070B50546C87D0C467C
:108AB00000284FF4847128460AD0FFF714FED5F839
:108AC0001805627EE1688854607E401C607670BD47
:108AD000FFF709FED5F8180570BD30B58FB0054613
