:020000040001F9
:10C00000504800208DC4010095C4010097C4010070
:10C0100099C401009BC401009DC401000000000000
:10C020000000000000000000000000009FC40100AC
:10C03000A1C4010000000000A3C40100A5C40100C8
:10C04000A7C40100A7C401009DC90100A7C4010045
:10C05000A7C40100A7C4010039C50100A7C401009D
:10C06000A7C40100A7C40100A7C40100A7C4010020
:10C07000A7C40100A7C40100A7C40100A7C4010010
:10C08000A7C40100E5C60100A7C40100A7C40100C0
:10C0900009C70100A7C401000DC70100A7C4010022
:10C0A000A7C40100A7C40100A7C40100A7C40100E0
:10C0B000A7C40100A7C401000000000000000000A8
:10C0C000A7C40100A7C40100A7C40100A7C40100C0
:10C0D000A7C40100A7C40100A7C40100000000001C
:10C0E0000000000000000000000000000000000050
:10C0F0000000000000000000000000000000000040
:10C10000000000000000000000000000000000002F
:10C11000000000000000000000000000000000001F
:10C40000DFF80CD000F086F80048004755EF010037
:10C4100050480020401E00BF00BF00BF00BF00BF4B
:10C4200000BF00BF00BF00BF00BF00BF00BF00BF14
:10C4300000BF00BF00BF00BF00BF00BF00BF00BF04
:10C4400000BF00BF00BF00BF00BF00BF00BF00BFF4
:10C4500000BF00BF00BF00BF00BF00BF00BF00BFE4
:10C4600000BF00BF00BF00BF00BF00BF00BF00BFD4
:10C4700000BF00BF00BF00BF00BF00BF00BF00BFC4
:10C4800000BF00BF00BFC5D170470000064880470D
:10C4900006480047FEE7FEE7FEE7FEE7FEE7FEE7A9
:10C4A000FEE7FEE7FEE7FEE731C7010001C4010039
:10C4B00040EA01039B0703D009E008C9121F08C026
:10C4C000042AFAD203E011F8013B00F8013B521EA6
:10C4D000F9D27047D2B201E000F8012B491EFBD21D
:10C4E00070470022F6E710B513460A46044619467F
:10C4F000FFF7F0FF204610BD30B50446002003468C
:10C5000000E05B1C934203D2E05CCD5C401BF8D0A2
:10C5100030BD0000064C074D06E0E06840F0010326
:10C5200094E8070098471034AC42F6D3FFF76CFF4D
:10C530000C0402002C0402002DE9FC5F0025DFF84A
:10C540003491A8464FF4807601242F46304602F0FD
:10C5500071FF38B1D9F80403204203D0304602F00D
:10C560005FFF2543361D64007F1CB6B2082FEDD354
:10C570004FF4BE74204602F05DFF38B1204602F051
:10C580004FFF3D4845F00045D0F800803B4E15F088
:10C59000FF0F14D0012700242F420CD009EB840197
:10C5A000D1F81005D1F81015C0F3042056F8242056
:10C5B000C1F3014190477F00641C082CECD3002D8F
:10C5C00056DA00200190401E4CE0701910F8501F00
:10C5D00090F9000021F0C004401C38D0012000FA7E
:10C5E00004FA1AEA090F32D04FEA911B204601F0F3
:10C5F000A7FA56F82000009010B9BBF1030F26D11E
:10C600005146BBF1030F02D1019808430190A000ED
:10C6100000F1A040D0F800071AEA080FC0F301406B
:10C6200002D0022802D012E0032810D1BBF1030F80
:10C6300007D102281AD00221204602F0E2FE7F1C18
:10C64000FFB2009818B1009A5946204690476D1CD9
:10C65000042DBAD3002F0BD007480068404507D0FF
:10C6600080460198002781463D46AEE70321E3E777
:10C67000BDE8FC9F006000401005005070260020BF
:10C6800000F01F02012191404009800000F1E020EC
:10C69000C0F88012704700F01F020121914040094C
:10C6A000800000F1E020C0F80011704700F01F0288
:10C6B000012191404009800000F1E020C0F8001203
:10C6C00070474907090E002806DA00F00F0000F154
:10C6D000E02080F8141D704700F1E02080F800147D
:10C6E0007047000007480021C0F84011C0F844110D
:10C6F000C0F84811C0F84C11C0F80011C0F804117E
:10C7000003F0F8BB0010014003F090BB074810B5E0
:10C71000406830B18047002807D0BDE8104000F0E5
:10C72000DFBABDE8104002F0AFBA10BD4C210020C6
:10C7300070B58D480023021D0178101D01240629C3
:10C7400007D115782D0704D10578C5F30315032DFE
:10C7500002D0062904D00FE0854E844D75670EE0A7
:10C7600015782D0708D10578C5F30315032D06D0DC
:10C77000042D04D0052D02D0062909D010E04FF079
:10C780008055D5F844527B4EC5F34235356002E002
:10C7900015782D0704D10578C5F30315032D02D0B4
:10C7A000062906D011E0744D2E6826F080762E60A2
:10C7B0000EE015782D0708D10578C5F30315032D74
:10C7C00006D0042D04D0052D02D006290AD011E090
:10C7D0004FF08045C5F80C31C5F81031654D2D1F5F
:10C7E0002B6002E015782D0704D10578C5F30315F9
:10C7F000032D02D0062905D00CE05E4A03216432E5
:10C8000011600AE015782D0704D10578C5F30315EA
:10C81000032D02D006290DD06AE0584A0521116087
:10C82000564978310C60554908310B603F21121D83
:10C83000116002E0117809075AD10078C0F30310A3
:10C84000052855D14E4800684E4908604C48001DE7
:10C850000068091D08604A4808300068091D086022
:10C8600047480C300068091D0860454810300068D2
:10C87000091D0860424814300068091D08604048DE
:10C88000183000683F49203108603D481C3000687E
:10C89000091D08603A4820300068091D08603848C2
:10C8A00024300068091D0860354828300068091DDB
:10C8B000086033482C300068091D0860304830306B
:10C8C00000683049403108602D4834300068091D47
:10C8D00008602B4838300068091D086028483C3043
:10C8E0000068091D0860264840300068091D08607E
:10C8F00021487438016841F470010160BFF34F8F23
:10C90000BFF36F8F4FF01021D1F80002002803DB36
:10C91000D1F80402002822DA1B4A14601B4804687C
:10C92000002CFCD01524C1F800420568002DFCD075
:10C93000C1F8044201680029FCD013600168002995
:10C94000FCD0BFF34F8F0C48F0380168104A01F457
:10C95000E06111430160BFF34F8F00BFFDE70E4957
:10C960000C48086070BD0000E00F00F00DF0ADBA9B
:10C9700000C007403C050040FCED00E010560040C0
:10C980000404001020C5004004E5014000E401401B
:10C990000400FA050090D003602100200348007FC6
:10C9A00008B103F091BB03F00BBB0000C8260020C8
:10C9B00002E008C8121F08C1002AFAD17047704768
:10C9C000002001E001C1121F002AFBD170472DE9B0
:10C9D000FC5F0025168807461580406B1446894683
:10C9E000A8464FF00C0A11234FF0020B98B10178C2
:10C9F0004846032E48D380F800B02288521C92B2D9
:10CA0000228083542288521C92B2228009F802109C
:10CA10002088401C20803A6BDAB12088494600F11A
:10CA20001205B54230D80B5420881023401C80B228
:10CA300020800B542088401C20800F202388155C08
:10CA4000401ECD54238840B25B1C23800028F5DAB9
:10CA5000454697F82E0030B133462246494602F04B
:10CA600081F9050011D197F82D0030B132462146E9
:10CA7000484600F0DBFC050007D1B87820B32088D9
:10CA8000C846001DB04202D95046BDE8FC9F68462A
:10CA900079DF0028F9D12188032008F801002088D7
:10CAA0001921401C80B2208008F800102088401C0A
:10CAB00080B2208000EB0801BDF8000003F070FB9D
:10CAC0000146208808442080F878B8B1228897F978
:10CAD0000310D31C4846B342D6D800F802B02288CF
:10CAE0000123521C92B2228083542288521C92B29B
:10CAF000228009F802102088401C20807868B8B194
:10CB0000218890F90020CB1C4846B342BCD800F8DD
:10CB100001B021880A23491C89B22180435421880D
:10CB2000491C89B2218009F801202088401C2080FE
:10CB3000388950B1CDE900464B460622022107F163
:10CB4000080003F0A0FB05009FD1388A50B1CDE961
:10CB500000464B460722032107F1100003F093FB28
:10CB6000050092D1388B50B1CDE900464B461522D5
:10CB7000142107F1180003F086FB050085D1386AFF
:10CB800030B133462246494601F03AF90500DBD17F
:10CB9000786A30B133462246494602F093FA0500DE
:10CBA000D2D197F82C0038B1334622464946384650
:10CBB00002F074FF0500C7D1387838B133462246F9
:10CBC0004946384602F0B0FA0500BDD128465CE778
:10CBD00010B501220221002000F0CCFD08B1072889
:10CBE00010D107220221012000F0C4FD08B107285E
:10CBF00008D100210A22084600F0BCFD08B1072830
:10CC000000D1002010BD0000064800684FF400214C
:10CC1000044A8143121D1160111D00F400200860B8
:10CC2000704700000405005070B50024064D06E072
:10CC30006868012110F8340002F0E6FA641C2878D4
:10CC40008442F5D3002070BD18210020F8B51546A8
:10CC50000C460646052A01D20720F8BD02F0B6FBB5
:10CC600018B902F089FB0028F7D1104900204E6066
:10CC70000C70C1E902500E4D08610DE006EBC400D6
:10CC80006968009181788DF801100078094A694639
:10CC900002F00CFB0028E0D1641EE4B2EED2BDE845
:10CCA000F840054A0021024800F054B8182100203D
:10CCB00004040200B9EB0100B1DF0100BFF34F8FA4
:10CCC00005480168054A01F4E06111430160BFF3C2
:10CCD0004F8F00BFFDE700000CED00E00400FA05F7
:10CCE0000EB500210091CDE901106A4644F2010021
:10CCF000FFF7E4FF0EBD0000014B1B681847000062
:10CD00004C26002038B50C46074BA268097802EB88
:10CD1000420253F82250054A126A0092024604F178
:10CD200008002369A84738BDB4270020F42000205C
:10CD3000074910B50A7802EB820201EB8201091D56
:10CD4000FFF7E0FFBDE81040042002F0FFBE000046
:10CD5000E8260020074B9B6823B12AB120B1006868
:10CD6000037C1BB108207047072070474174426163
:10CD7000002070472C2100202DE9F047804699467D
:10CD800014460F4690074FF0000634D11C4D8CB36B
:10CD900002F0F2FD0320C5F81490287004F1180089
:10CDA000002107EB4703AC6004EBC102491C16707D
:10CDB00056709770506000EBC3000329F4DBEE60FF
:10CDC0006E70AE701420FFF75BFC06211420FFF795
:10CDD00078FC1420FFF75FFC0A49C1F800800621A7
:10CDE0001120FFF76EFC0748001F00682861002033
:10CDF000BDE8F08701E00720FAE7AE60FBE700003E
:10CE00002C210020081501402DE9F843DFF870902F
:10CE10000D461746D9F80810044651B34CB3052DFA
:10CE200002D20720BDE8F883606910B3607C012856
:10CE300021D0002603F0F4F9D9F80810804601EB60
:10CE4000C800694603F00BFAB8B1012100F8041BD1
:10CE50000C4910C0096880E8E200D9F8081001EB1D
:10CE6000C8009DF8001041701420FFF71FFC00203F
:10CE7000D8E70820D6E72E46DCE70420D2E70000FA
:10CE80002C21002004150140F8B5124E0446B1686B
:10CE9000E1B1DCB16069C8B10027277403F0C0F9C3
:10CEA0000546B068694600EBC50003F0D8F978B1D3
:10CEB000022101704460B0689DF8001000EBC500CD
:10CEC00041701420FFF7F2FB3846F8BD0820F8BD8A
:10CED0000420F8BD2C210020F0B50C4693B01F2192
:10CEE0000726ADF80010ADF80410002750B1C17846
:10CEF00049070DD56A4602A9FFF769FD002808D148
:10CF000002AD02E00025ADF800706CB1E07810B120
:10CF1000304613B0F0BD01AA0AA92046FFF757FD1D
:10CF20000028F6D10AAA02E00022ADF80470BDF88C
:10CF30000400C3B2BDF80000C1B2284672DFE8E7C2
:10CF400070B50D4604991646040040D0F6B341482A
:10CF500000224271C0E90331242231463E48FFF7E6
:10CF6000A7FA00F0D5F83C493431A1F11000016076
:10CF70002031816038215C38FFF7B3FA36482178D8
:10CF800038380170A1788170E178C17061784170A2
:10CF9000D4E90412C0E90412D4E90212C0E9021271
:10CFA000D4E90612C0E90612616AD1B100F1AC0100
:10CFB00000F1B80241628A60636A1B880B80616A73
:10CFC000436A898899800021436A07E0FFE70E20C1
:10CFD00070BD666AB668765C5654491C9E888E425F
:10CFE000F7D8A16AD9B11C4AAC32A2F10C018A600F
:10CFF0008162A36A9B888B80A16A836A09881980F1
:10D000000021836A04E0A66AB668765C5654491C1F
:10D010009E888E42F7D894F82C1080F82C10216A44
:10D0200049B10C4914310162226A52884A80216A4E
:10D03000026A09881180616821B10649891D416031
:10D04000616841602946BDE8704003483838FFF701
:10D0500043BF0000A82000201824002010B502883B
:10D060001D4C102A18D00021112A1BD01B2A18D1C0
:10D07000007A002815D16079012820D0022824D018
:10D08000032824D004280CD12171E2680846002A24
:10D0900007D0BDE810401047817D012901D180886B
:10D0A000208110BD6170808821898842F9D10120DA
:10D0B00006E021690029F4D0BDE8104008470220AD
:10D0C00000F056F80028F4D110BD0320F8E7032043
:10D0D00020710420F4E70000A820002010B50228E9
:10D0E00001D0032810D1094C207800280CD0002052
:10D0F0002070607900F03CF8002805D021690029F3
:10D1000002D0BDE81040084710BD0000A820002054
:10D11000024800218161818381777047A820002027
:10D12000114810B5007801281BD1104C6078C0B9A7
:10D13000607910B174DF002814D10B4901206070B0
:10D1400038390620C870084800213838FFF7C4FE77
:10D15000002807D1607900F00BF810B1216901B106
:10D160008847002010BD000018240020A8200020BF
:10D170002DE9F04F744C87B00026607106A8069622
:10D1800002F0D2F90127082801D030B903E006A83F
:10D1900001F022FC18B9069808B12770C0E0FFF72B
:10D1A000B7FF6A4DDFF8A0814FF0020A687808F1F6
:10D1B00018084FF0030B10B16079012806D0A87849
:10D1C00058B16079012801D002281FD1E16819B156
:10D1D000E7700820884700E0E6706079012806D1F2
:10D1E000687840B108F1010002F05CF918B160798B
:10D1F000022802D00AE084F805A0A87820B108F13E
:10D20000010002F04FF908B984F805B0287B4FF00F
:10D21000040920B96079032801D184F80590287E9B
:10D2200020B96079042801D166712671E16841B1A5
:10D230006079032801D0042803D1287808B16078E8
:10D24000C0B1A67018216846FFF74BF98DF8006051
:10D2500001968DF808600396607901280ED00228A7
:10D2600016D03A4E2436A6F15C0703281DD00428B8
:10D270004CD13AE0A77007208847E3E7ADF8126089
:10D28000CDF804808DF80070ADF8106027713FE094
:10D29000CDF804808DF800702889ADF81200A888B8
:10D2A000ADF8100084F804A032E0A88AADF81200AE
:10D2B000288AADF810002548243003F04BF818B147
:10D2C000287808B1607810B184F804B01EE01F48D7
:10D2D0008DF808A0039687F8039000213838FFF7EF
:10D2E000FBFD00281DD105202BE0A88BADF8100018
:10D2F000288CADF812001548243003F02BF818B133
:10D30000287808B1607878B184F80490607918B111
:10D31000684673DF002804D1E16809B120798847A5
:10D32000002007B0BDE8F08F08488DF808A00396EC
:10D3300087F8039000213838FFF7CEFD0028F0D1A0
:10D3400006202071E2E70000A82000201824002019
:10D3500070B5054601461C220F48FFF7A9F80F4C8F
:10D3600000262670286830B1016861604068A060BE
:10D37000201D7ADF02E00948001D7BDF00280AD16A
:10D380004FF6FF7060806670BDE87040044A00216F
:10D390000448FFF7DFBC70BD04250020C820002032
:10D3A000C1010200A403020070B51E4C06880025CE
:10D3B0001B49E289102E15D01B4B112E1CD0122EAA
:10D3C00029D0502E17D130F8061F914213D1418930
:10D3D000022910D1007B10F0010F11D0BDE8704080
:10D3E00000F054BD83884B808369CB60C0690861BD
:10D3F0004D70002AF2D070BD4FF6FF7048804D701E
:10D400001868FFF741FD0028F5D0A1690029F2D086
:10D41000BDE8704008478268CA60C0680861DDE7FF
:10D42000C820002004250020A40302007CB5054686
:10D4300008880C460930904201D90C207CBD684612
:10D4400071DF0028FAD121880820685420881B2128
:10D45000401C80B2208029542088401C80B220804B
:10D460002844DDF801100160BDF805108180208896
:10D47000801D80B220809DF8001001B10121295447
:10D480002088401C208000207CBD000070B5044630
:10D4900000F096FE2046FFF787FF204600F0A0F838
:10D4A00020880B4D102802D011280BD107E007204F
:10D4B00000F082F908B1FFF713FCA08801E04FF6F5
:10D4C000FF7068802046BDE87040FFF7C7BD0000D0
:10D4D0008020002000B5184887B000230068059020
:10D4E0004822164905A802F079FB08B1FFF7F8FBBE
:10D4F0006A460121002002F05BFB08B1FFF7F0FB58
:10D500000F4802F07FFA08B1FFF7EAFB684602F025
:10D5100045FB08B1FFF7E4FB0A4802F035FB08B110
:10D52000FFF7DEFB084802F073FB002801D0FFF78D
:10D53000D7FB07B000BD0000640302002C230020CD
:10D54000E81F00208DD4010005FE01001CB5044633
:10D5500081786A460C4801F0F9FF002813D1607801
:10D560000A49C0EBC00001EB80001C231A46694643
:10D5700002F0A8F8054806494C30807A51F820207E
:10D580002146684690471CBDEC2000200026002064
:10D59000BC0302007CB5114E0C004FF0000530605A
:10D5A00015D06946002000F0B1F8002815D101A976
:10D5B000012000F0ABF800280FD19DF8041009B14C
:10D5C000022003E09DF8001001B10B20207070686C
:10D5D00010B9FFF7FDFA054628467CBDA0200020C3
:10D5E00010B51A4C0188606810290ED011292BD172
:10D5F000401E606028D1FFF7EBFA002824D0216894
:10D60000002921D0BDE810400847D0B900210122EF
:10D61000084600F0AFF808B107280FD10722022111
:10D62000012000F0A7F808B1072807D10422022141
:10D63000002000F09FF820B1072802D0216801B136
:10D6400088476068401C606010BD0000A02000207A
:10D6500010B5032000F020FA08B1062800D1002000
:10D6600010BD00002DE9F04707460024244802E0E1
:10D67000641C042C41D250F82420BA42F8D1042C66
:10D680003BD21F48DFF87C901F4E0C38A9F11408DC
:10D6900041B301290FD002292FD104EB44003044BB
:10D6A0004578002D29D0D8F81010002925D028461B
:10D6B000BDE8F047084704EB4401755C0E447178FF
:10D6C00061B1D8F804100F4A01EB81014900133A07
:10D6D0008068FFF799FB08B988F80170B17809F8FC
:10D6E0000410DEE78068FFF7CFFB04EB4401314410
:10D6F00019F804008D78A842D3D0BDE8F087000067
:10D70000740302009C200020B423002004280CD2C3
:10D71000074A1268074B13F82030012098409043C5
:10D7200000D001200870002070470020FAE70000B8
:10D73000100500507403020010B5042807D0072814
:10D7400010D00A2812D1BDE8104002F0EBB9084809
:10D750001321408876DF07E0002807D0BDE810409D
:10D76000FFF7BEBAFFF7DCFC0828F5D110BD0000BA
:10D770008020002070B50023042810D20D4D00EB4E
:10D780004004012A02D101290CD00022094E00EBED
:10D790004000304461B1012906D0022906D0072398
:10D7A000184670BD0D30C2B22A55F9E74270F7E74E
:10D7B0008270F5E7B4230020044A01460020127A63
:10D7C000D20702D0084600F055B8704788200020E4
:10D7D00070B50E462149054600200A61C1E9016580
:10D7E000A9071BD50024012211462046FFF7C2FFDE
:10D7F000641C042C02D20028F5D00FE070B9720826
:10D8000004211748FFF722FA40B9FFF70DFA28B9AB
:10D810001348144A00211438FFF79CFAE9070AD08C
:10D82000114A4FF4F01111600F4B00221B1D1A60BA
:10D830000D4A1032116000280FD109480B4A00210F
:10D840001C38FFF787FA002807D1BDE8704004486C
:10D850000121074A1838FFF77DBA70BD88200020E3
:10D8600084030200D5DA010008050050B9ED01007B
:10D8700009CC01002DE9F84F854EDFF810A24FF4D6
:10D88000E01CF16807462CEA010C00910020716849
:10D890000AF10404251D7F4B4FF400324FF4802B16
:10D8A00001EB810E8146182F16D2DFE807F00C1726
:10D8B000173A4E607083868F868FEAA0A0A0A0A042
:10D8C000CAD1D8E1EAEA009A4FF4F01191432160FD
:10D8D000C5F8009086F80090BDE8F88FC4F800C045
:10D8E0004846C5F80090DAF800C08CF4F01C5FEAF6
:10D8F0008C3C09D522602860022F02D14FF4E160F0
:10D9000008E04FF47A6005E02A602060022F3CD0E6
:10D910004FF4C8706422B0FBF2F04143377000222C
:10D920005EE0C4F800C04846C5F80090DAF800C0D0
:10D930008CF4F01C5FEA8C3C04D5226028604FF424
:10D940004870E7E72A6020601FE0C4F800C048463E
:10D95000C5F80090DAF800C08CF4F01C5FEA8C3C4B
:10D9600002D522602860CCE72A602060D0E7C4F8A6
:10D9700000C04846C5F80090DAF800C08CF4F01CEE
:10D980005FEA8C3CDED522602860C820C2E7C4F87C
:10D9900000C04846C5F80090DAF800C08CF4F01CCE
:10D9A0005FEA8C3C02D52260286001E02A6020609A
:10D9B000377014E0C4F800C04DE0DAF800002BEA3C
:10D9C0000002226000F48020286008E0DAF80000FD
:10D9D0002BEA0001216000F48020286071460022BB
:10D9E0001868BDE8F84FFFF70FBA21602EE098469F
:10D9F0005868FFF749FAD7F1110100D040B1F1683A
:10DA000001F4F0112160C5F80090C6F80C9063E7AE
:10DA10004FF40022F26001290CD9C82011FB00F15B
:10DA20006420B1FBF0F1706800224143D8F8040093
:10DA3000FFF7EAF9F16801F4F0112960C4F80090E9
:10DA40004AE74FF4F0112160C5F80090377043E7C2
:10DA50004FF4E01121604946C5F8009006E04FF40C
:10DA6000D01121604946C5F800905A462A60BCE7AB
:10DA70004FF4C01121604946C5F800904FF4C02210
:10DA8000F4E74FF4F01129604946AEE70405005071
:10DA9000882000206803020070B500210C4D01248D
:10DAA00055F82120920002F1A042D2F8006704FA52
:10DAB00001F3034000D0032326F4403646EA034333
:10DAC000C2F80037491C0429EAD3002070BD0000C9
:10DAD0007403020000780221FFF7C4BD05494FF02E
:10DAE000FF32082841F8202002D3084480F848205B
:10DAF0007047000070260020F0B54FF0FF3512B1DE
:10DB00000023082601E008230C260C4C05E000BF8A
:10DB100054F823707F1C04D05B1CB342F8D3284612
:10DB2000F0BD26185DB286F8305044F82310002A64
:10DB3000F5D1E11881F84800F1E7000070260020D7
:10DB40000249084490F93000704700007026002018
:10DB50002DE9F0413B48017801EB810100EB8104A4
:10DB6000D4E9030600EB40013648241DCC3000EB1D
:10DB70008100B0F808804589476801F06EFDB6FB6A
:10DB8000F0F100FB116088B35FF0000008FB05773F
:10DB90006188A288DFF8B08011448D190022C8F88E
:10DBA000102040B101F059FD6188884221D0BD426A
:10DBB00001D1A088E8B1A06803281AD001F04DFD7A
:10DBC000A18844463144B1FBF0F200FB12108008FA
:10DBD000C8F80C0001F041FDB5FBF0F100FB11505D
:10DBE00078B10020BD4228D068B126E0FFE70120CF
:10DBF000CCE701F032FDB6FBF0F10320C8F81410B9
:10DC00001CE00120EEE7ADB2BEB201F026FDB6FB8E
:10DC1000F0F701F022FDB5FBF0F0874201D1701B57
:10DC200009E001F01AFD064601F017FDB5FBF0F121
:10DC300000FB1150301A800820610220BDE8F0413D
:10DC400001F084BFE8260020F42000200648017877
:10DC500001EB810100EB81000079042801D000F084
:10DC600059B8012001F072BFE82600200A480B4A8B
:10DC7000017801EB810100EB8100C188116200791C
:10DC8000012805D0032801D0042804D1FFF760BF84
:10DC9000012001F05BBF7047E8260020F42000203F
:10DCA00000EB80020548002100EB82000222017196
:10DCB000C180C0E90321416101817047E82600204D
:10DCC0002DE9F041114D069E6C780A2C1BD02F785F
:10DCD0003C440A2C00D30A3C04EB840405EB840486
:10DCE00020716261D1E90001C4E90301E38026816A
:10DCF0006878401C68700648007808B9FFF7B6FFDE
:10DD00000020BDE8F0810420FBE70000E8260020A9
:10DD1000F420002010B50E4C207800EB800004EBBE
:10DD200080010020091DFEF7EDFF2078FFF7B8FF06
:10DD30006078401E60702078401CC0B220700A28B5
:10DD400001D100202070BDE81040002001F0FEBE8F
:10DD5000E82600202DE9F05F2648C168F1B3DFF81E
:10DD600098B00E688146DBF800400769C078E11B77
:10DD700021F07F45ED1CB0B9DFF880804FF4803092
:10DD8000C8F84403C8F804031120FEF779FC1120F9
:10DD9000FEF781FC4FF0010AC8F800A02F20FEF723
:10DDA00039FB89F803A0B54200D23546124BE81979
:10DDB0003C3320F07F401860DBF800105A46091B06
:10DDC00021F07F41001B20F07F40C91C81420FD908
:10DDD000106818602F20FEF71DFB00E004E0BDE88E
:10DDE000F05F1120FEF762BCBDE8F05F01F0C4BD3A
:10DDF000BDE8F09F2C2100200415014000100140D7
:10DE00002DE9F04117880646B81D14460D46984284
:10DE100002D90C20BDE8F0813188072206290AD3F7
:10DE20004FF4486C4FF6FF73614501D9994202D116
:10DE30007088062801D21046ECE7604501D9984267
:10DE4000F9D1994203D0984201D08142F3D80520FC
:10DE5000E85520881221401C80B220802954208857
:10DE6000401C80B220804119308802F099F9218845
:10DE7000084480B220804119708802F091F921880D
:10DE8000084420800020C5E7FEF72ABFF8B51348F4
:10DE900000F032FF114D0026114C0C3D30B161698C
:10DEA000B9B101208DF80000684611E0287820B152
:10DEB000616971B18DF80060F6E7687858B1A168C2
:10DEC000084800220068FEF79FFF10B1A16901B168
:10DED00088472E70F8BD6168F2E70000D42000206A
:10DEE00004250020A403020070B5094B0446082055
:10DEF0009E7A00250E4208D0A4F57F40FF3802D05C
:10DF00001889A04202D10020156070BD052070BDA7
:10DF10004026002000EB40020748012100EB820070
:10DF200081724FF6FF710181FF21C17200210160F2
:10DF300081808171704700004026002010B5134C8D
:10DF4000207900071ED46069401C6061E06808B158
:10DF500004200AE000F0DEFE08B1022005E020699E
:10DF600060B16068C10704D00320BDE8104001F033
:10DF70003FBF40F0010060600020F6E7BDE81040C0
:10DF8000FFF764BEBDE8104001F028BFF420002078
:10DF900006494868020707D4820702D540F001000D
:10DFA0004860022001F024BF01F018BFF4200020D7
:10DFB0002DE9F04100260125144C22E06068226919
:10DFC00000EBC607387805FA00F1114217D08A43F2
:10DFD000226101F0C7F902463878E36805FA00F1DA
:10DFE000194002FA00F3994209D17978012901D048
:10DFF000012100E0002151407A6802B19047761C6F
:10E00000F6B220788642D9D3BDE8F08118210020ED
:10E010002DE9FC410E46044681786A46254801F008
:10E0200095FA002828D16078234F00EB400007EBD9
:10E030008000807A400621D4022E1FD0012E1FD0EE
:10E040001E4DA0781E49C0EBC00001EB80010023EB
:10E050001C226846A847A8B1022E0DD02078164988
:10E0600000EB40000C3101EB80001649807A51F83A
:10E070002020214668469047BDE8FC81124DE0E72C
:10E08000124DDEE7022EF7D0607800EB400007EB80
:10E090008000817A21F0400181720749607840391F
:10E0A000C0EBC00001EB80011C231A466846A8475C
:10E0B000D4E70000EC2000204026002065FD010090
:10E0C0003C250020AC030200F1F8010021F801001A
:10E0D0002DE9F04705250F4F904689460646002456
:10E0E000C4EBC40007EB800036B107223146103084
:10E0F000FEF702FA18B106E0018B414503D1002575
:10E10000C9F8004002E0641C072CE9D32846BDE8AA
:10E11000F08700003C2500207CB5054681B26A46A8
:10E12000074801F013FA040008D17421684601F091
:10E1300037FA040002D1284601F0BEF920467CBD22
:10E14000EC20002010B5100001D0FEF7C9FD002022
:10E1500010BD00001FB58DF80C0001F083FA08B166
:10E16000FEF7BEFD03A800F061FA08B1FEF7B8FDA6
:10E170000020CDF805008DF809009DF805006946DE
:10E1800020F07E0040F00100303020F080008DF85B
:10E19000050007208DF8060010208DF807000648BE
:10E1A000009001208DF80400044800F067FB00286F
:10E1B00001D0FEF795FD1FBD45E101008020002044
:10E1C0002DE9F04F054693B0FA48FF2407940078F4
:10E1D0004FF0000A002853D0F74E306800284FD087
:10E1E00001A800F018FA08B1FEF77AFD281D059085
:10E1F0002C20ADF818000027FF208DF806008DF8C0
:10E2000004700097EC4C28880C3CBB4610280FD0BB
:10E21000A8886A460221FFF767FE48B9009800EB1C
:10E22000400104EB8101C97A8DF806108DF80500D4
:10E23000DFF884932888A9F14C091321A9F1C408B7
:10E24000192874D010DC10281DD011285DD0132897
:10E250006ED0142814D1009800EB400004EB80002D
:10E26000C07AFF287CD099E0D44A1A2876D01E289C
:10E2700075D0522804D1B07A52F8201001A88847EE
:10E2800013B0BDE8F08F4FF6FF766A4601213046A5
:10E29000FFF72AFE0028F3D10099022201EB41008A
:10E2A00004EB8000827211228DF810208DF8051089
:10E2B000A9880181A9680160A9898180A97B8171F0
:10E2C000E87DC10708D0BB49083101EB5000007858
:10E2D000FF2809D0079007E0324607A905F108009A
:10E2E000FFF7F6FE00280FD10099079801EB4101D6
:10E2F00004EB8101C8728A7A42F008028A728DF8B2
:10E30000060001A8FFF722F96FE1009800EB40003A
:10E3100004EB8001887A20F002008872010708D59A
:10E3200000060FD5002101A8FFF772FE0AE0BDE04C
:10E3300043E09DF80600FF2804D001F0BDF8FF205F
:10E340008DF806000099102001EB410104EB8101DA
:10E35000887212208DF8100047E101E0FDE042E1F3
:10E360002A8A07A90020FFF7B3FE78B90098079919
:10E3700000EB400004EB8000C172827A42F0080298
:10E3800082728DF8061001A8FFF7E0F8009800EB04
:10E39000400004EB8000C07AFF2804D00098C0EB56
:10E3A000C00109EB810A00980023C0EBC00108EB13
:10E3B0008102A888514686DF62E700988DF8101028
:10E3C00000EB400004EB8001887A40F00400887282
:10E3D000CA7AFF2A0BD040F0400088721620002332
:10E3E0008DF81000A8881A4685217FDF33E00DF1F3
:10E3F0001C0C48F2430300204FEA0802C0EBC0089F
:10E4000002EB880898F81A80B8F1FF0F26D0401C5C
:10E410000728F3D34FEA03070099CDF830B001EB9A
:10E42000410304EB8303DB7AC3EBC30302EB8302F8
:10E43000CDE90D2BC1EBC10209EB8201CDE9081B2F
:10E44000CDF83CB0CDF828B0CDF82CB0321DA8885E
:10E4500008AB00217FDF0028AED1C6E00B78022B8D
:10E4600012D0C0EBC00302EB83034FF0FD0883F82A
:10E470001A80D1F80080C3F81080B1F80480A3F8A6
:10E4800014808979997505E0C0EBC00102EB810128
:10E49000FE238B768CF800000099079801EB410170
:10E4A00004EB81018DF80600C872B5E7707A20F0A0
:10E4B00001007072009E06EB460304EB8300817A34
:10E4C00021F00402827214218DF81010297A31B1E2
:10E4D000510603D4C07AFFF71FFE2F7A85E0697AD0
:10E4E000490739D59DF80610FF297ED042F0080271
:10E4F00082726A7B920707D5C1EBC10508EB8502E2
:10E50000957E25F001059576C27AFF2A6DD014F824
:10E510002320022A0ED0C1EBC10208EB820102685F
:10E520000A6182888A8280798875887E20F002005C
:10E5300088760DE0C6EBC60209EB8200C1EBC10193
:10E54000428A08EB81000283817E21F001018176FD
:10E55000012101A8FFF75CFD47E0287A0121B1EB1A
:10E56000101F2DD100F00F00012829D1009800EBD9
:10E57000400104EB8101897A090721D50E4900EB9E
:10E58000C000303901EB80001A210830FDF7A9FFE7
:10E5900016208DF81000009800EB400004EB80007E
:10E5A000817A41F060018172707A40F002007072ED
:10E5B00017E00000DC2000204C260020CC030200E5
:10E5C000009800EB400004EB8000817A41F080016C
:10E5D000817215208DF81000B07A52F8201001A831
:10E5E0008847002701E08DF810103A4604A901A8D9
:10E5F000FEF782FB9DF8100012287FF4DDAE009834
:10E6000000EB400104EB8101897A01293FF4D4AE8B
:10E61000FFF780FC34E630B1FF210170417081705A
:10E62000C1700020704748F20E0070472DE9FF418D
:10E6300005003AD02B4800240460447284722046BE
:10E64000FFF768FC274824213038FDF74AFF0026F1
:10E65000DFF89480FF27304600F02EFF08F80670A0
:10E66000761C072EF7D37420ADF804000720ADF810
:10E6700006001E481C4900900831684601F076F8F3
:10E6800000280FD1184E0120083E3070287878B14C
:10E69000BDF80400BDF80610484381B206F1100031
:10E6A00000F07EFF04B0BDE8F08148F20E00F9E70B
:10E6B0000F4F00250C48A9B202AA083000F046FF0F
:10E6C00048B9C5EBC50007EB800000231C2202A956
:10E6D00000F0F8FF08B13470E4E76D1C072DE9D3B2
:10E6E000E0E700004C260020E4200020F5E60100D1
:10E6F0003C2500202DE9F04F80465C4891B01E4635
:10E7000000681A9F93468A46002870D0742F6ED8EE
:10E710006846FFF780FF08B1FEF7E2FA00248DF8A3
:10E7200000408DF80440CDE905762546A9B20FAA30
:10E730004F4800F00BFF28B908220FA94046FDF70B
:10E74000DBFEE0B16D1C072DF0D300BF9DF8020089
:10E75000FF287FD04FF020094FF0400C04ADBAF1F4
:10E76000030F0FD0434A1C27B11AB1FBF7F1012365
:10E7700007291AD20295BBF1000F0BD010E08DF8DB
:10E780000250E3E7742F02D08DF804C065E08DF8E5
:10E79000049062E036498340103949680B4259D0F1
:10E7A00001F004FD8DF8049045E030494C39A6EBAA
:10E7B0000108B8FBF7F7DFB101F11C02B11A2427F9
:10E7C000B1FBF7F702F124013FB32B4A8DF804C0E7
:10E7D000964242D0A1F5907252F82020B24239D12F
:10E7E0000295C97A884226D18DF8014023E031E0B4
:10E7F0001E4B02958DF804908DF801400C33079163
:10E80000CDE90B439DF80210C1EBC10102EB810180
:10E81000089107A9CDE905910DE030208DF8014060
:10E820008DF804008DF80330887A800703D4242102
:10E830001046FDF756FE9DF80400BAF1020F11D004
:10E8400040F002008DF804005A4601A9684602957E
:10E85000FEF752FA11B0BDE8F08F9DF8040040F0C9
:10E860000300EFE740F00100ECE700004C26002039
:10E87000EC2000203C250020A8030200174A10B518
:10E8800012785AB148F20E0258B151B10B6843B137
:10E89000134A14683CB148F2040010BD48F2080065
:10E8A00010BD104610BD0E4C13602C3CD1F8053045
:10E8B00023634B7A84F834300979917223F005018F
:10E8C00041F002011172D17921F0040141F00301FC
:10E8D000D17100210170084610BD0000DC2000202D
:10E8E0004C2600200E4910B54A788C780023A242AD
:10E8F00012D0521CD2B24A70022A00D14B70084A80
:10E900004B78183252F8232002600869104420F036
:10E910007F400861012010BD0360002010BD000091
:10E920002C210020002808D0112801D0FEF700BAC1
:10E930000248416841F0080141607047F42000201E
:10E9400010B51F4C204621784068012910D00229BB
:10E950002DD0032932D1000725D46069401C6061A5
:10E9600000F0D8F9D8B12078BDE8104001F0EEB839
:10E97000000718D41348A28B017801EB810100EB4A
:10E980008100C188891A0904090CC18003D0BDE83F
:10E99000104001F0E9B9BDE81040FFF7BBB9BDE890
:10E9A0001040FFF753B9BDE8104000F081BB0648A6
:10E9B000617850F82100BDE81040004710BD00000C
:10E9C000F4200020E8260020F003020028DFFFF7F3
:10E9D000A9BF29DFFFF7A6BF20B10349496D016038
:10E9E0000020704703207047EC270020002070476C
:10E9F00000207047002070472DE9F0474178DFF88C
:10EA0000A890054601EBC10209EB8200002401EB4E
:10EA1000410109F1240A4368274626460AEB810191
:10EA200063B191F80AC05FEA0C6807D55FEA4C6CE5
:10EA300004D459F8226000F108049FB20889D04636
:10EA400033463A462146A9DF48F241090B281ED039
:10EA500000B14846012E18D168784FF6FF7200EBDE
:10EA6000400008EB80000C210089A7DF00280CD0B3
:10EA7000A0F54051023915D0082813D0A0F5405117
:10EA800004390FD011280DD00020BDE8F087687838
:10EA9000012300EB400008EB80003A460089214644
:10EAA000A9DFD9E74846F0E71C26002070B50C46E0
:10EAB000014660780A4D00EBC00005EB800038236A
:10EAC000242200F0FFFD002808D1617801EBC1018C
:10EAD00005EB81014A68521C00D14A6070BD0000FC
:10EAE0001C2600202DE9F04188B0804603271A201B
:10EAF000ADF81C0048782A4E00EB400006EB800081
:10EB00000D4600893B4607AA6946AADF28BB6878FC
:10EB1000A6F1240400EBC00004EB8000BDF81C202B
:10EB200069460830FDF7E8FC0028687807D000EB5C
:10EB3000C00004EB8001496881B11A4E0FE000EB80
:10EB4000400106EB8101897A890724D400EBC000DB
:10EB500004EB80002421FDF7C4FC1CE0124E44F8B5
:10EB600020706878BDF81C2000EBC00004EB80002A
:10EB700069464260687800EBC00004EB8000083012
:10EB8000FDF796FC6878382300EBC00004EB8001A9
:10EB900024224046B04708B00020BDE8F0810000C4
:10EBA00040260020F1F8010021F80100FFF724BF02
:10EBB000FFF77CBFFFF796BF2DE9F041124E0746E5
:10EBC0000125BD403068FEF75FF900280DD10F4CDC
:10EBD0002069284207D1384600F0C4FB0028E068CD
:10EBE00005D0284304E0A8432061BDE8F081A84394
:10EBF000E060206928432061A1683068BDE8F041E9
:10EC00000022FEF701B900000404020018210020D0
:10EC100070B51B4C207900072DD41A48017801EB00
:10EC2000810100EB81052E6900F017FDE9882A8932
:10EC3000761E11443144B1FBF0F02169002549B141
:10EC40006169814206D1E560606840F00100606062
:10EC5000002008E000F05EF810B10220E56002E05C
:10EC6000206920B10320BDE8704001F0C1B8BDE8C3
:10EC70007040FEF7EBBFBDE8704001F0AFB8000098
:10EC8000F4200020E8260020F8B51A4C207800284F
:10EC90002ED0206928B10026E06820B1002526B1D9
:10ECA00010E00126F8E70125F9E7684652DF05285C
:10ECB00003D020B1FEF714F804E0012602E0216938
:10ECC0000098884785B96088ADF800006946A0685B
:10ECD00061DF052803D020B1FEF702F804E001252A
:10ECE00002E0D4E902018847002EDED0002DD6D004
:10ECF000F8BD00004C210020054940880A88904258
:10ED000004D34988884201D8012070470020704709
:10ED1000CC20002070B50E48017801EB810100EB9A
:10ED20008104256900F099FCE18822896D1E114457
:10ED30002944B1FBF0F1074842698A4205D301D169
:10ED4000006910B14FF0000070BD4FF0010070BDC0
:10ED5000E8260020F4200020800701D00020704722
:10ED60000120704730B51488E51C9D4201D90C2064
:10ED700030BD02250D5513881C245B1C9BB21380EB
:10ED8000CC5413885B1C9BB21380012807D0022847
:10ED900007D0032807D0042807D0072030BD002063
:10EDA00004E0012002E0CD5401E00320C8541088A3
:10EDB000401C1080002030BD0348017AC90702D0F2
:10EDC0000078FEF757BD7047882000202DE9F047F6
:10EDD000DFF8ACA0DAF80C009AF8004080469AF808
:10EDE0000460DAF80890DAF810703AE009EBC4052C
:10EDF0002A7833E002EB42016B68521C03EBC1013D
:10EE0000AB78D2B2934200D100220B78022B02D011
:10EE1000032B23D11FE0D1F804C00346014603E0D1
:10EE2000614503D00B46C969C1B1F9E7B1B18B4265
:10EE300005D1C06918B9134F0126BE600027D1F86B
:10EE400000C0C969D96149B10B6863440B6005E032
:10EE50000174C06900E000210028F9D1697891426D
:10EE6000C8D1641EE4B2C1D2CAE903078AF80460BB
:10EE7000404502D00120BDE8F0870020FBE70000FC
:10EE80002C210020001001402DE9F04705462F48B5
:10EE9000002680460778D0F80C904BE0D8F80800A0
:10EEA00000EBC70440E002D02846ED691EE0207860
:10EEB000616800EB4002401CC0B201EBC20120704F
:10EEC000A278904200D126700A784868012A2DD194
:10EED000027C5ABB8A684260CA6882600A69C26062
:10EEE0004969816198F8041001B146604268D8F818
:10EEF0001030DFF85CC0D11A21F07F41614502D2A9
:10EF00008268114406E0991A826821F07F418A42A2
:10EF100002D9511A016000E0066046600121866056
:10EF20000174C66100F0C8FF002DBCD12078617863
:10EF30008842BCD17F1EFFB2B0D2D8F80C10494530
:10EF400002D00120BDE8F0870020FBE72C21002043
:10EF5000FFFF7F00002398B04B4A05211846FDF7BC
:10EF60000BFF08B1FDF7BCFE484A40F6CD41032037
:10EF7000FEF72EFC08B1FDF7B3FE69460020FEF750
:10EF800009FB08B1FDF7ACFE9DF80000022872D025
:10EF90005FF00004FEF79EFA2046FFF7DBF89DF8CD
:10EFA00008003BA120F00F00401C20F0F0001030C2
:10EFB0008DF808000F2202A87CDF08B1FDF790FE53
:10EFC000002400945020ADF80000A0200194ADF87A
:10EFD0000200ADF804404FF4C870ADF80600684672
:10EFE0007ADF08B1FDF77CFE382101A8FDF779FA38
:10EFF00002208DF8040001258DF8065006208DF8BA
:10F00000070027480690ADF8145024210FA8FDF7FB
:10F0100068FA4FF496701390B420009414908DF811
:10F020004850204B0FAA002101A8FDF789FF08B125
:10F03000FDF756FE1C216846FDF753FA4FF42030C9
:10F04000CDE900404FF47020029003208DF80C00B1
:10F050001548059015480690ADF80E408DF8104003
:10F060006846FEF775F908B1FDF73AFE0320FEF792
:10F070007FF803E0FFE701248CE748DF0028FCD09D
:10F08000FDF72EFEF9E700006421002039D70100CA
:10F090004E6F726469635F54656D706C6174650076
:10F0A0008420002065F4010089F4010089DE01005C
:10F0B0000348416821F008014160007800F046BD36
:10F0C000F420002070B5144682880E46054620883C
:10F0D000111D0144921C994201D8FE2A01D90C202D
:10F0E00070BD521C32542088FF21401C80B2208009
:10F0F00031542088401C80B220808119288801F07A
:10F100004FF82188084480B22080AA8842B1A968BB
:10F1100041B13044FDF7CCF92088A988084420800B
:10F12000002070BD072070BDF8B50E46017814466A
:10F130000546012901D1687830B12088821C9A42A5
:10F140002DD8012902D006E00720F8BD69780144D6
:10F15000891C994223D8181A801E87B2ADF8007016
:10F160002188B01C084469467DDF0028EDD128784D
:10F17000022805D1BDF80010B94201D809210AE0E2
:10F180000821012805D16878B84202D8ADF80000FE
:10F1900001E0ADF80070BDF80000FE2801D90C2098
:10F1A000F8BD2288401CB0542088401C80B22080CA
:10F1B00031542088401C2080BDF800100844208075
:10F1C0000020F8BD002070470020704700207047E5
:10F1D0004907090E002806DA00F00F0202F1E022CA
:10F1E00082F8141D03E000F1E02282F8001400F020
:10F1F0001F02012191404009800000F1E020C0F889
:10F200008012C0F8001170472DE9F047884681460A
:10F2100000F072F90124224E0028484618D0FEF76B
:10F220008FFC304490F848008009032802D0012860
:10F2300006D007E01B48006804FA09F4204201D117
:10F24000022100E003214846BDE8F04700F0D9B8AC
:10F2500000F05EF9002820D04846FEF771FC054614
:10F26000114F4FF4807007EB850100EB8500D1F85A
:10F27000102580B242F00102C1F8102500F0D0F84C
:10F28000B8F1000F09D04846FEF75AFC56F82000A6
:10F29000002802D0AC40C7F80443BDE8F087000066
:10F2A0007026002010050050006000402DE9FC4150
:10F2B000DFF8A480044608EB0400002790F9300032
:10F2C0001346C0170E46401C01D0082740E0F278D4
:10F2D00019462046FEF710FC0546401C37D0B07892
:10F2E00048B1A00000F1A040D0F8001721F00201C1
:10F2F000C0F8001707E000217378204600910A4605
:10F30000019100F06DF8F078C0B11448317800EB4D
:10F310008500D0F81025124B1A40C0F810254FF484
:10F32000F8524FF4403302EA042203EA01410A434F
:10F33000D0F810150A43C0F8102509E008EB0500C5
:10F34000327810F8481F41EA8211017000E004276A
:10F350003846BDE8FC8100007026002000600040B7
:10F36000FFE0FCFF03490968C14011F0010000D033
:10F37000012070471005005070B5124D95F85400EB
:10F3800008B1082070BD0020411E2A18401CC0B2E0
:10F3900082F830102028F8D300242046FEF79EFB88
:10F3A000641CE4B20C2CF8D306210846FFF710FFCA
:10F3B00005494FF00040C1F80403012085F85400CE
:10F3C000002070BD7026002000600040034890F8C7
:10F3D0005400002800D00120704700007026002053
:10F3E00030B541EA4201DDE9034541EA830180008D
:10F3F00041EA042100F1A04041EA0541C0F80017AC
:10F4000030BD800000F5E06000F1A040026822F409
:10F4100040320260026842EA014101607047000028
:10F42000034908B50844002101600068009008BD48
:10F430000060004002494058012800D00020704779
:10F44000006000404058002800D001207047D0F8EC
:10F450000403084000D0012070474058002800D025
:10F460000120704710B550B103280CD10220FEF7DF
:10F47000A3F9002807D0BDE81040FDF731BCBDE876
:10F48000104000F04FBB10BD0078002807D10448A1
:10F490003B21408876DF002801D0FDF721BC704772
:10F4A000802000200021425C0AB101207047491CE5
:10F4B0000629F8D30020704770B50546C0EBC5019A
:10F4C0000C48002600EB81042046C4F81160A4F823
:10F4D00015601021FDF705F8FF202074A0764FF687
:10F4E000FF702083284600F061FE02481C3840F877
:10F4F000256070BD3C2500200449084490F9300087
:10F50000082801DB0120704700207047702600208A
:10F510000449084490F93000082801D201207047BE
:10F52000002070477026002006490979490701D458
:10F530000820704720B104494978016000207047D5
:10F540000E207047F4200020E826002070B5124BF2
:10F550001B795B0701D4082070BDB8B1B2B1036854
:10F56000022B11D20D4C03EB430554F825605EB11C
:10F57000466804EB850004894568408901FB046105
:10F5800000FB0450884203D8072070BD0E2070BDD8
:10F59000C2E90031002070BDF4200020B427002013
:10F5A000F8B5044623480E460079400701D40820E8
:10F5B000F8BD24B32068022831D21F4D00EB400073
:10F5C00055F8201059B305EB800042894168008945
:10F5D00002FB00116068814221D9FFF7BDFB80B1B9
:10F5E000D4E9000200EB400005EB8000436801898C
:10F5F000D51AB5FBF1F701FB175585B903E00E20CD
:10F60000F8BD1020F8BDB6FBF1F501FB156535B965
:10F610002EB14089414390191944884201D90720ED
:10F62000F8BD002002460090334621460320FEF735
:10F6300047FBF8BDF4200020B427002010B54FF0A0
:10F6400010204469601C04D000F007F8B4FBF0F00F
:10F6500010BD4FF08050406910BD4FF080500069E0
:10F6600080B2704770B51548002425460470447078
:10F670002846FEF715FB6D1C0A2DF9D3104D6C8042
:10F68000FFF7DCFFC61EFFF7E8FF46430B490020EB
:10F69000AE60CC31C5F8144000EB4002401C41F88C
:10F6A000224001EB8202022814815481F4D32C7091
:10F6B000AC610420EC616860002070BDE826002089
:10F6C000F42000202DE9F843804626481F461646C0
:10F6D00000790C46400702D40820BDE8F883ECB15D
:10F6E000B8F1000F1AD02068022815D21E4D00EB89
:10F6F000400055F8201079B105EB8000428941683F
:10F70000008902FB00116268914205D926B1B0421E
:10F7100002D3F119814203D90720DEE70E20DCE78E
:10F720004046FFF719FBD0B13846FFF715FBB0B1E3
:10F730006068FFF711FB90B160683246C11940461E
:10F74000FCF7B6FE00962068002200EB400043461E
:10F7500055F8205002212046A8470020BDE7102080
:10F76000BBE70000F4200020B42700202DE9F04181
:10F77000294D04460E462879400702D40820BDE8EA
:10F78000F081ECB1E6B12068D0B1FFF766FF014629
:10F79000A088814212D3102810D3E08870B1FFF7FF
:10F7A0004DFF471EFFF759FF4743E288A188A8682D
:10F7B00002FB0102974201D3890703D00720DEE74D
:10F7C0000E20DCE76988022924D0C6E90010134A1C
:10F7D00001EB410302EB83014860206842F82300FB
:10F7E000A0880881E0884881FFF737FFA188E28878
:10F7F000401E01FB0204FFF730FF94FBF0F4FFF71B
:10F800002CFFA96804FB0010A8606888401C688071
:10F810000020B4E70420B2E7F4200020B427002041
:10F82000F8B504461E481E46154600790F464007A7
:10F8300001D40820F8BDDFB1D4B12068022815D268
:10F84000184900EB400051F820207AB101EB80000C
:10F8500042894168008902FB00116268914205D922
:10F8600025B1A84202D3A919814203D90720F8BDC6
:10F870000E20F8BD3846FFF76FFA78B13046FFF733
:10F880006BFA58B16068FFF767FA38B12B463A4611
:10F89000214601200096FEF713FAF8BD1020F8BDAE
:10F8A000F4200020B42700201049024608780028E0
:10F8B0001AD0042818D0022A14D0032A14D10A79A5
:10F8C00012070FD48A69521C8A61B2F57A7F06D07A
:10F8D000022801D000F03AB9487800F089BA0D202A
:10F8E000FDF726BAFFF72CB870470000F42000207F
:10F8F000F8B504461E481E46154600790F464007D7
:10F9000001D40820F8BDDFB1D4B12068022815D297
:10F91000184900EB400051F820207AB101EB80003B
:10F9200042894168008902FB00116268914205D951
:10F9300025B1A84202D3A919814203D90720F8BDF5
:10F940000E20F8BD3846FFF707FA78B13046FFF7CA
:10F9500003FA58B16068FFF7FFF938B12B463A4611
:10F96000214604200096FEF7ABF9F8BD1020F8BD43
:10F97000F4200020B427002070B5012670044FF059
:10F98000E0210025C1F88001084C4010C4F848036C
:10F99000C4F8080366602F20FCF73CFDA660044C09
:10F9A0002F202561FCF736FDE57070BD0010014089
:10F9B0002C21002009480A490022C37DC1F80821F2
:10F9C00043B1D1F81815437EC268D154417E491C19
:10F9D00041767047D1F8180570470000C82600200E
:10F9E000002000401FB501228DF8080004488DF862
:10F9F00000200191D0E90012684690471FBD000029
:10FA0000C826002008B502490020009108BD00006A
:10FA10008020002010B50121202803DA1D4A8140F2
:10FA2000114004E0402803DAA0F12002914041B1E6
:10FA3000002809DA00F00F0101F1E02191F8141D0E
:10FA400006E042F2010010BD00F1E02191F800143F
:10FA50004909082914D299B1012911D004290FD0DC
:10FA600005290DD00C4A946800F01F03012199402C
:10FA7000400944B152F820300B4342F8203007E0EF
:10FA800042F2020010BD800000F1E020C0F8001139
:10FA9000002010BDFC06FFBC442800202DE9F041E9
:10FAA0000746806A14468846C8B3002531E000BF87
:10FAB000B96A05EB450001EB8006B088801CFE2882
:10FAC00002D90C20BDE8F0812288401C08F8020011
:10FAD00020881622401C80B2208008F80020208850
:10FAE000401C80B2208000EB0801308800F058FBF9
:10FAF0002188084480B22080B28842B1B16871B1D7
:10FB00004044FCF7D5FC2088B188084420806D1C57
:10FB1000EDB297F82C00A842CAD80020D2E7FFE740
:10FB20000720CFE710B50020FDF746FE08B1FDF72E
:10FB3000D7F8FDF78DFD08B1FDF7D2F83CDF0028BE
:10FB400003D0BDE81040FDF7CBB810BD0C490870DC
:10FB500040B101280FD002280FD003280FD14869E7
:10FB6000FEF734BF00208861C8610648407800284D
:10FB700005D0FEF77BB800F0F7B800F053B8704737
:10FB8000F4200020E826002018B10349C8600020B6
:10FB900070470E20704700004C2100201CB503491F
:10FBA00001910091694660DF1CBD000080200020AB
:10FBB00070B50E460546144614211046FCF791FC1C
:10FBC000012020800021216121732672657205B118
:10FBD000A072002070BDFDF771B8000030B409B10B
:10FBE0008C0702D0072030BC7047074C0125A1606C
:10FBF00062800649636010DF0028F4D1257030BCB4
:10FC00001620FFF707BF00004C210020D7FB0100A2
:10FC100018B103490861002070470E2070470000AA
:10FC20004C2100202DE9F041164C606820F00100C5
:10FC300060601548017801EB810100EB81063569B0
:10FC4000FFF70BFDB5FBF0F76761FFF706FDF188E5
:10FC50006D1E2944B1FBF0F08742606802D140F08C
:10FC6000020001E020F0020060602079E16800F00D
:10FC70000200084304D00020BDE8F04100F0B8B80D
:10FC80000220F9E7F4200020E8260020014840691E
:10FC9000FEF79CBEF420002010B5FFF7CFFC441EF9
:10FCA000FFF7DBFC4443FFF7D8FC05494A69521EC5
:10FCB0005043CA682146BDE81040FEF78ABE0000E6
:10FCC000F42000202DE9F0411048017801EB81017A
:10FCD00000EB81042569FFF7C0FCE188228911440B
:10FCE0002944B1FBF0F200FB1216FFF7A7FC471EF8
:10FCF000FFF7B3FC07FB0061E08822891044044A47
:10FD000028441269BDE8F041FEF763BEE8260020F2
:10FD1000F420002010B5FFF791FC441EFFF79DFC76
:10FD20004443FFF79AFCB4FBF0F0BDE81040FEF747
:10FD30004DBE000070B5FFF790FC8608FFF78DFC04
:10FD40000749496900FB01F4FFF778FC451EFFF7FE
:10FD500084FC684332462146BDE87040FEF739BE58
:10FD6000F42000200020704770B51448017801EBA2
:10FD7000810100EB8104241DFFF76FFC6188104EA8
:10FD8000884211D2FFF769FC61880D1AFFF765FC04
:10FD90008208A188E0680844216928442944FEF7C4
:10FDA00018FEFFF75AFC07E0A288E06810448A08B2
:10FDB0002169FEF70EFE6088F06170BDE826002024
:10FDC000F420002004480079000702D4012000F04C
:10FDD0000FB800F003B80000F42000200348416889
:10FDE00021F008014160407800F002B8F4200020C2
:10FDF00002494870024951F820000047F4200020D1
:10FE0000DC03020010B50446FFF74EFD2046BDE8B6
:10FE10001040FDF763B9000003480079000701D4E2
:10FE2000FDF714BFFFF7DABFF42000202DE9F84FEB
:10FE3000204C00256846D4E903B6FEF753FD804602
:10FE4000FEF7C4FF0746A946B8F1000F25D00023EE
:10FE5000009ACC46E06819E007680146974202D94B
:10FE6000BA1A026014E0C1F800C0D1F80C80D21BAD
:10FE7000C8693B448A46B8F1000F07D0F71827F04D
:10FE80007F47C1E90178CAF81C500D460028E3D12C
:10FE9000E0602846FEF7F8FF04E02846FEF7F4FF8E
:10FEA00000B917B15846FDF755FF84F80490BDE836
:10FEB000F88F00002C2100200D4B10B5D96831B10E
:10FEC00002680C68A24204D8A21A0A60C161D86014
:10FED00010BD0B4603E00B46C969121B21B10C682B
:10FEE0009442F8D3A41A0C600260C161D86110BDBD
:10FEF0002C2100202DE9F0411D4DEC68002C35D05F
:10FF00001C48002700682969B846401A20F07F463F
:10FF10002068B04215D82246361A0744E469107C9E
:10FF200068B182F810806B6933B1D2E90501984756
:10FF300028B1FCF7D5FE02E0D2E905108847002C75
:10FF4000E6D16978A878814206D1401CC0B2A87079
:10FF5000022801D185F802800548A978183040F8B8
:10FF60002170BDE8F0411420FCF7A0BBBDE8F08192
:10FF70002C21002004150140064A0020C2F81C0173
:10FF80000548838A8168C95C838A5B1C8382C2F8C6
:10FF90001C15704700200040C82600201FB5002116
:10FFA0008DF8080005488DF800108268019281756F
:10FFB000D0E90012684690471FBD0000C826002007
:10FFC0002DE9FF413E4D4FF400712846FFF73FFAFF
:10FFD00001273C4C4FF40178002600B34FF4927196
:10FFE0002846FFF72FFAD0B1C5F82461C5F8088379
:10FFF000A07E00B96F6002208DF80000D5F8800463
:020000040002F8
:10000000C5F880040390E07D8DF80800E068019059
:10001000E6752676D4E900126846904724E004216C
:100020002846FFF714FAF8B14FF484712846FFF719
:1000300009FAC8B1FFF7BEFCE07D617E884213D1AA
:10004000227E3AB1607EE168E2752269E26026763E
:10005000667607E0A07E00B96F60C5F80883E67594
:10006000607EE168FFF7BEFC4FF48E712846FFF713
:10007000E9F958B1A18AA07D814202D2FFF77CFF45
:1000800004E0C5F81C6108B1FFF788FF4FF4A271C6
:100090002846FFF7D7F900280FD0C5F84461A07EA5
:1000A00000B12F60E07D002807D0E675607EE16832
:1000B00004B0BDE8F041FFF795BCBDE8FF8100004A
:1000C00000200040C82600207FB5334C4FF49271C9
:1000D0002046FFF7C2F9314D0026B0B1C4F82461C3
:1000E00002208DF80000D4F88004C4F88004039046
:1000F000D4F83C058DF80800E8680190EE752E767E
:10010000D5E90012684690471FE04FF488712046F9
:10011000FFF7A3F9C8B1C4F81061D4F83C05E97D34
:10012000C0B2814211D12A7E5AB1E968D4F80032B6
:1001300023F02003C4F80032EA752A69EA602E76BB
:1001400001E0EE75E968FFF74DFC4FF4A27120461F
:10015000FFF783F950B1C4F84461E87D30B1EE7522
:10016000D4F83C05E968C0B2FFF73CFC4FF490714D
:100170002046FFF772F900280CD0C4F82061A87D52
:10018000002807D0D4F84C0504B0C0B2BDE87040D8
:10019000FFF704BF7FBD000000200040C8260020FC
:1001A0000870000A48700220704700000121814059
:1001B000024842688A43426070470000DC20002009
:1001C00038B515494888A0F57F42FF3A23D04A78D0
:1001D000124C521CD2B24A70237B93420AD3091D9F
:1001E00075DF002817D0A169002914D001B0BDE83F
:1001F0003040084700254D70217C29B13B2176DF36
:1002000010B1A16901B188476169002903D08DF857
:1002100000506846884738BDC820002004250020CB
:10022000EFF30580C005C00D13D0103840B2002890
:1002300006DA00F00F0000F1E02090F8140D03E062
:1002400000F1E02090F800044009022803D00628BD
:1002500003D0022070470020704701207047427889
:100260008378521CD2B2934200D100220378934289
:1002700001D1002070470A704168407800EB4000CF
:1002800001EBC00070472DE9FC411646DDE908543A
:10029000CDE900541F468046022200F00CF80028E9
:1002A00007D1CDE900543B4610223146404600F0CC
:1002B00002F8BDE8FC812DE9FC5F0026DDE90C4B6E
:1002C000994692468E4680462788354630E0D8F8D3
:1002D0000400002200EB850069460068019001A837
:1002E00065DF002830D19DF8000050451FD10EB1C8
:1002F000002100E00221228808441118594522D823
:1003000046B9521C90B2208009F800E02088401CB9
:1003100020800126218801A801EB0902694665DFDA
:10032000002811D120889DF80010084420806D1C01
:10033000B8F80000A842CADC56B12088C01B401E95
:1003400080B2FF2802D90C20BDE8FC9F09F8070005
:100350000020F9E7017911B9007B002800D00120C5
:100360007047000001000007742300209423002040
:10037000C02300200D0000000E0000000F00000050
:10038000100000000D00030065D601000E00030000
:1003900065D601000F00030065D6010010000300C0
:1003A00065D60100E4240020FFFFFFFFCDF101002E
:1003B000E5EA0100F5E90100B5EB0100C9F1010032
:1003C000ADEA0100F1E90100B1EB0100C5F1010066
:1003D000F9E90100EDE90100ADEB010015FD0100B7
:1003E00035FD01008DFC0100C5FC010099FC0100F8
:1003F000C5FD010091DF01003DDF010019FE010094
:1004000011EC0100CC270020030000002C040200A6
:1004100080200020E4000000B0C9010010050200A7
:1004200064210020EC260000C0C901000000FFFF8D
:100430000A18010000000000000000000000000099
:1004400000000000000000000000000000000000AC
:10045000000000000000000000000000FFFF00009E
:10046000000000000000000000000000000000008C
:10047000000000000000000000000000000000007C
:10048000000000000000000000000000000000006C
:10049000000000000000000000000000000000005C
:1004A000000000000000000000000000000000004C
:1004B000000000000000000000000000000000003C
:1004C000000000000000000000000000000000002C
:1004D000000000000000000000000000000000001C
:1004E000000000000000000000000000000000000C
:1004F00000000000000000000000000000000000FC
:100500000000000000000000000000000090D00388
:040000050001C40131
:00000001FF
