:020000040002F8
:10300000904C00204D33020055330200573302002C
:10301000593302005B3302005D3302000000000000
:103020000000000000000000000000005F3302000C
:1030300061330200000000006333020065330200C8
:10304000AD360200673302002D3A020067330200FA
:103050006733020067330200D53402006733020091
:1030600067330200673302006733020067330200F0
:1030700067330200673302006733020067330200E0
:10308000673302000537020067330200673302002E
:1030900029370200673302002D3702006733020030
:1030A00067330200673302006733020067330200B0
:1030B00067330200673302000000000000000000D8
:1030C0006733020067330200673302006733020090
:1030D000673302006733020067330200000000001C
:1030E00000000000000000000000000000000000E0
:1030F00000000000000000000000000000000000D0
:1031000000000000000000000000000000000000BF
:1031100000000000000000000000000000000000AF
:10312000000000000000000000000000000000009F
:10313000000000000000000000000000000000008F
:10314000000000000000000000000000000000007F
:10315000000000000000000000000000000000006F
:10316000000000000000000000000000000000005F
:10317000000000000000000000000000000000004F
:10318000000000000000000000000000000000003F
:10319000000000000000000000000000000000002F
:1031A000000000000000000000000000000000001F
:1031B000000000000000000000000000000000000F
:1031C00000000000000000000000000000000000FF
:1031D00000000000000000000000000000000000EF
:1031E00000000000000000000000000000000000DF
:1031F00000000000000000000000000000000000CF
:10320000DFF80CD000F028F900480047F55B020019
:10321000904C002030B4044654E8000F0D4644E8BA
:103220000053002BF8D1156030BC704730B4044611
:1032300054E8000F40EA010544E80053002BF7D1A1
:10324000156030BC704730B4044654E8000F00EA03
:10325000010544E80053002BF7D1156030BC7047DE
:1032600030B4044654E8000F80EA010544E80053F6
:10327000002BF7D1156030BC704730B4044654E8D9
:10328000000F00EB010544E80053002BF7D1156057
:1032900030BC704730B4044654E8000FA0EB010581
:1032A00044E80053002BF7D1156030BC7047000094
:1032B00030B4044654E8000F0D4644E80053002B98
:1032C000F8D1156030BC704730B4044654E8000FA4
:1032D00040EA010544E80053002BF7D1156030BCEB
:1032E000704730B4044654E8000F00EA010544E892
:1032F0000053002BF7D1156030BC704730B4044642
:1033000054E8000F80EA010544E80053002BF7D190
:10331000156030BC704730B4044654E8000F00EB31
:10332000010544E80053002BF7D1156030BC70470D
:1033300030B4044654E8000FA0EB010544E8005304
:10334000002BF7D1156030BC70470000064880475D
:1033500006480047FEE7FEE7FEE7FEE7FEE7FEE77A
:10336000FEE7FEE7FEE7FEE731370200013202002A
:103370002DE9F05F0546002092469B4688460646AA
:10338000814640241BE0284641464746224600F03D
:1033900053F853465A46C01A914110D31146184665
:1033A000224600F03AF82D1A67EB01084F462246F4
:1033B0000120002100F031F817EB00094E41201EDA
:1033C000A4F10104DFDC484631462A464346BDE805
:1033D000F09F40EA01039B0703D009E008C9121FD0
:1033E00008C0042AFAD203E011F8013B00F8013BBF
:1033F000521EF9D27047D2B201E000F8012B491EEB
:10340000FBD270470022F6E710B513460A46044681
:103410001946FFF7F0FF204610BD202A04DB203AB2
:1034200000FA02F1002070479140C2F1200320FA17
:1034300003F3194390407047202A04DB203A21FA15
:1034400002F00021704721FA02F3D040C2F12002BD
:103450009140084319467047064C074D06E0E06866
:1034600040F0010394E8070098471034AC42F6D3CB
:10347000FFF7CAFEFC8602001C87020070B58C189C
:1034800010F8015B15F0070301D110F8013B2A1178
:1034900006D110F8012B03E010F8016B01F8016B65
:1034A0005B1EF9D12B0705D40023521E0DD401F861
:1034B000013BFAE710F8013BCB1A921C03E013F82A
:1034C000015B01F8015B521EF9D5A142D8D300205F
:1034D00070BD00002DE9F04700268CB0DFF8609148
:1034E000B0464FF48075012437460696284603F00F
:1034F0000FF938B1D9F80403204203D0284603F06D
:10350000FDF826432D1D64007F1CADB2082FEDD3BE
:103510004FF4BE74204603F0FBF848B1204603F098
:10352000EDF846F0004606AA0121002003F0D2F88B
:10353000444D16F0FF0F15D00127002437420DD05F
:1035400009EB8401D1F81005D1F81015C0F304205F
:1035500055F82420C1F3014102B190477F00641C5B
:10356000082CEBD3002E67DA4FF0FF30CDE908804E
:1035700000263446281910F8507F90F9000027F0F3
:10358000C008401C44D009A9404602F0F9FC58B3D9
:103590004FEA9719404601F067FD55F820701FB1BA
:1035A000B9F1030F03D00FE0B9F1030F30D108A830
:1035B0004FEAD80208F00703815C4FF0010C0CFAC7
:1035C00003FC41EA0C0181544FF0A04101EB88005B
:1035D000D0F8000706A9C0F3014A404602F0D0FC2B
:1035E00018B1BAF1020F03D012E0BAF1030F0FD1F4
:1035F000B9F1030F08D1BAF1020F1BD002214046E6
:1036000003F04CF8761CF6B217B149464046B8476D
:10361000641C042CAED3002E0ED06A46012100207B
:1036200003F058F806990098884205D0069008984B
:1036300009909DE70321E2E70CB0BDE8F0870000A8
:1036400000600040C424002000F01F0201219140CE
:103650004009800000F1E020C0F88012704700F0BF
:103660001F02012191404009800000F1E020C0F8D4
:103670000011704700F01F020121914040098000B5
:1036800000F1E020C0F8001270474907090E002839
:1036900006DA00F00F0000F1E02080F8141D7047FA
:1036A00000F1E02080F80014704700002DE9F0419F
:1036B0004FF48077384602F021FD0124104EA50713
:1036C00048B1384602F021FD0120C5F808037470A6
:1036D000002001F0D1FC4FF48277384602F00EFD55
:1036E00000280BD0384602F010FD0220C5F8080370
:1036F000B470BDE8F041012001F0BEBCBDE8F0812E
:10370000B024002007480021C0F84011C0F844113F
:10371000C0F84811C0F84C11C0F80011C0F80411ED
:1037200004F038B90010014004F082B803F0CEBABA
:10373000F0B5AE480023021D01780125101D4FF0A1
:10374000805406290BD11678360708D10678C6F3BF
:103750000316032E06D0042E04D0052E02D006290F
:1037600007D00EE0B4F82463A14FC6F304263E60F0
:1037700002E01678360704D10678C6F30316032E46
:1037800002D0062904D00FE09B4F9A4E7E670EE0D0
:103790001678360708D10678C6F30316032E06D02E
:1037A000042E04D0052E02D0062907D00EE0D4F84E
:1037B0004462924FC6F342363E6002E01678360706
:1037C00004D10678C6F30316032E02D0062906D0CC
:1037D00011E08B4E376827F0807737600EE016785F
:1037E000360708D10678C6F30316032E06D0042E3A
:1037F00004D0052E02D006290AD011E04FF08046F1
:10380000C6F80C31C6F810317C4E361F336002E02A
:103810001678360704D10678C6F30316032E02D0B5
:10382000062905D00CE0754F032664373E600AE098
:103830001678360704D10678C6F30316032E02D095
:1038400006290DD014E06F4F05263E606D4E783688
:1038500035606C4E083633603F263F1D3E6002E007
:103860001678360704D10678C6F30316052E02D063
:10387000062957D062E0644E3668644F3E60624E5F
:10388000361D36683F1D3E605F4E083636683F1D68
:103890003E605D4E0C3636683F1D3E605A4E103617
:1038A00036683F1D3E60584E143636683F1D3E60F8
:1038B000554E18363668554F20373E60524E1C36EE
:1038C00036683F1D3E60504E203636683F1D3E60D4
:1038D0004D4E243636683F1D3E604B4E28363668C6
:1038E0003F1D3E60484E2C3636683F1D3E60464EBA
:1038F00030363668454F40373E60434E3436366882
:103900003F1D3E60404E383636683F1D3E603E4E9D
:103910003C3636683F1D3E603B4E403636683F1DA4
:103920003E6002E01678360708D10678C6F3031623
:10393000032E06D0042E04D0052E02D0062907D06F
:1039400019E0D4F85812324A01F04F01116002E038
:10395000117809070FD10078C0F30310032803D0B2
:10396000042801D0052806D12A480168C90702D0D9
:103970006FF00101016022487438016841F4700160
:103980000160BFF34F8FBFF36F8F4FF01021D1F85D
:103990000002002803DBD1F80402002822DA1E4AC4
:1039A00015601E480468002CFCD01524C1F80042A4
:1039B0000568002DFCD0C1F8044201680029FCD044
:1039C000136001680029FCD0BFF34F8F0C48F0381A
:1039D0000168134A01F4E06111430160BFF34F8FA6
:1039E00000BFFDE710490F480860F0BDE00F00F090
:1039F000403501400DF0ADBA00C007403C05004025
:103A0000FCED00E0105600400404001020C500400A
:103A1000E40E00400004004004E5014000E40140E1
:103A20000400FA050090D0037C2100200448017FA7
:103A300004480029024901D004F093B804F002B808
:103A40001C2500200020004002E008C8121F08C109
:103A5000002AFAD170477047002001E001C1121F0F
:103A6000002AFBD1704700000121202803DA8140A1
:103A70000548014003E0402802DA2038814009B1BE
:103A80000120704700207047FC06FFBD800701D071
:103A90000020704701207047C3688B4206D811444C
:103AA0000069491E814201D80120704700207047FB
:103AB00010B501220221002001F00EF908B10728FB
:103AC00010D107220221012001F006F908B10728D0
:103AD00008D100210A22084601F0FEF808B10728A3
:103AE00000D1002010BD022000F0EEBF70B5002410
:103AF000064D06E06868012110F8340002F0AAFBC8
:103B0000641C28788442F5D3002070BD2021002059
:103B1000F8B515460C460646052A01D20720F8BD21
:103B200002F07EFC18B902F04DFC0028F7D11049D4
:103B300000204E600C70C1E902500E4D08610DE08E
:103B400006EBC4006968009181788DF80110007857
:103B5000094A694602F0D0FB0028E0D1641EE4B2B5
:103B6000EED2BDE8F840054A0021024800F050B806
:103B700020210020087F020091560200A15202007D
:103B8000134C0121208801EB004012A102F09EFE9F
:103B900002F0B0FE02F0C4FD0028FBD10F4800681F
:103BA000C00700D000BE2088032101EB00400CA11B
:103BB00002F08CFEBFF34F8F0848E43801680D4ACD
:103BC00001F4E06111430160BFF34F8F00BFFDE7D7
:103BD000DC210020466174616C000000F0ED00E023
:103BE000486974207765616B2068616E646C6572EA
:103BF000000000000400FA050EB500210091CDE997
:103C000001106A4644F20100FFF7BAFF0EBD000042
:103C1000074B9B7823B12AB120B10068037C1BB10C
:103C200008207047072070474174426100207047A8
:103C30005C25002070B503F069FB104800240B21BF
:103C4000047044700E4D817014206C602C706C7088
:103C5000FFF7FAFC07211420FFF717FD1420FFF7E8
:103C6000FEFC0848046007211120FFF70EFD0548FF
:103C7000001F0068A860002070BD00005C250020C7
:103C800034210020081501402DE9FC47DFF8789029
:103C900099F8023073B368B3052902D20720BDE852
:103CA000FC87436933B3437C012B25D000270446AE
:103CB0000025884616468DF80050684600F038F812
:103CC00001A803F0FFFFC8B1012101700F49446052
:103CD0000968C0E90218C0E904769DF8040089F873
:103CE00001009DF8000000F047F81420FFF7C2FC27
:103CF0002846D4E70820D2E70F46D8E704259DF8E8
:103D0000000000F039F8F3E75C25002004150140BD
:103D10000649897839B130B1416921B10021017476
:103D2000022103F013BE0820704700005C2500202C
:103D300030B5EFF3108172B60D4A9468012324B1B7
:103D40000370002900D162B630BD93604FF0E023CC
:103D5000D3F88051074C25401560C3F88041D3F853
:103D6000844154605A17C3F8842100220270E8E7A6
:103D700068260020FC06FFBD0B498A68002A11D086
:103D800000280FD1EFF3108072B60B684FF0E022DD
:103D9000C2F800314B68C2F8043100228A60002862
:103DA00000D162B670470000682600202DE9F0437C
:103DB0000546007D93B00E460024A0B107949DF8FF
:103DC0001C0020F00F00401C20F0F00010308DF897
:103DD0001C00707B8DF81D009DF81E0020F0060071
:103DE000801C8DF81E001C216846FFF70BFB9DF818
:103DF000000040F002008DF80000297D11B140F074
:103E0000100001E020F010008DF8000001940394F0
:103E10000494287D00B107A8CDE9050401278DF899
:103E2000427042F61920ADF840000D94B07B8DF839
:103E30003400F07B8DF835009DF83600142120F019
:103E40000600801C20F019008DF83600307B8DF8BC
:103E5000440008A8FFF7D6FA0DF140080DF1340927
:103E6000ADF8287011A8CDE90889ADF82A40ADF861
:103E70002C700C90A888AB1D08AA6946A2DF002808
:103E800038D1B06898B38DF8427042F60810ADF89A
:103E900040000D94307C8DF834009DF8350020F002
:103EA000FF008DF835009DF8360020F00600801CDC
:103EB00020F019008DF836000EA8B16800F0E8FD7A
:103EC0000646142108A8FFF79DFAADF828600EA851
:103ED000CDE90889ADF82A40ADF82C600C90E8884F
:103EE00005F10E0208A9A3DF002803D101E0FFE7D6
:103EF000EC81002013B0BDE8F0832DE9FC470025DC
:103F000017880646158090F82D001446894630B172
:103F10003A462146484600F059FB050009D1B078E1
:103F20004FF00C0A18B32088C846001DB84202D9C9
:103F30005046BDE8FC87684679DF0028F9D1208823
:103F4000032108F8001020881921401C80B220802D
:103F500008F800102088401C80B2208000EB080187
:103F6000BDF8000003F075FE218808442080F07839
:103F70000222C8B1218896F9033001F1030C4846AA
:103F8000BC45D5D8425421884FF0010C491C89B258
:103F9000218000F801C02188491C89B2218009F8DC
:103FA00001302088401C20807068B8B1218890F9C9
:103FB000003001F1030C4846BC45B9D84254218871
:103FC0000A22491C89B2218042542188491C89B2A5
:103FD000218009F801302088401C2080308950B1B0
:103FE000CDE900474B460622022106F1080003F006
:103FF00081FE05009DD1308A50B1CDE900474B4686
:104000000722032106F1100003F074FE050090D191
:10401000308B50B1CDE900474B461522142106F1F3
:10402000180003F067FE050083D1306A30B13B46CB
:104030002246494601F08AF80500DBD1706A30B1AA
:104040003B462246494601F099FE0500D2D196F83A
:104050002C0038B13B4622464946304603F0C6FAAA
:104060000500C7D1307838B13B4622464946304634
:1040700001F0F1FE0500BDD128465AE7F0B50C4627
:1040800093B01F210726ADF80010ADF804100027EB
:1040900050B1C17849070DD56A4602A9FFF72DFF37
:1040A000002808D102AD02E00025ADF800706CB127
:1040B000E07810B1304613B0F0BD01AA0AA920463D
:1040C000FFF71BFF0028F6D10AAA02E00022ADF894
:1040D0000470BDF80400C3B2BDF80000C1B22846A8
:1040E00072DFE8E780F82410704770B50D000446D1
:1040F00053D0F4B3012020700026E670202205F191
:104100007801201DFFF765F984F82460D5F8980040
:10411000C4F8CC00D5F89C00C4F8D0004FF6FF706E
:10412000A4F8C800C4F82560A4F8296084F82B60BE
:1041300004F130003C210646FFF764F9287884F842
:104140003000A87884F83200E87884F83300687882
:1041500084F83100D5E90401C4E91001D5E9020170
:10416000C4E90E01D5E90601C4E9120195F82D0054
:1041700000E012E084F85D00686AD8B104F17801CB
:1041800004F16C0061676065696A09880180686A8A
:10419000616D80888880002008E00E2070BD696A0B
:1041A00022188968095C82F87810401C616D898842
:1041B0008142F4D8A86AE8B104F1A400C4F8A000D0
:1041C0000C38A065A96A89888180A86AA16D0088D9
:1041D0000880002006E0A96A22188968095C82F834
:1041E000A410401CA16D89888142F4D895F82C0058
:1041F00084F85C00286A48B104F1C4002065296A8B
:1042000049884180286A216D00880880686800B16B
:10421000606305F13C013046BDE87040FFF72EBFFA
:1042200010B50288102A1AD0112A1FD01B2A1CD1BF
:10423000007A0C46002818D1E0780521401CB0FB1C
:10424000F1F201FB1201204600F055F800280CD0D5
:10425000D4F8D010002908D0BDE810400847C27B30
:10426000012A02D18088A1F8C80010BD0C460021A7
:1042700084F8D4108088B4F8C8108842F5D1207929
:104280000028F2D10121DEE710B50C46022801D04A
:10429000032811D1607800280ED000206070E178EA
:1042A000204600F028F8002806D0D4F8D0100029C5
:1042B00002D0BDE81040084710BD10B5044674DFB9
:1042C000012084F8D400002084F8D600062084F869
:1042D0003300002104F13000FFF7D0FE002809D19F
:1042E000E178204600F007F818B1D4F8D01001B1F9
:1042F0008847002010BD2DE9FF47044600780F468F
:1043000038B1E770002002F0BDF8012628B16670D0
:10431000D2E0082004B0BDE8F0870025C4F825509D
:10432000A4F8295084F82B50A07910B1E078012826
:1043300006D0E07970B1E078012801D0022809D1D7
:10434000D4F8CC1021B184F82C600820884701E013
:1043500084F82C5004F1260100200A5C0AB1304692
:1043600003E0401C0628F8D300204FF002084FF06D
:10437000030A4FF00409012F06D0022F09D0032FA2
:104380000CD0042F12D10DE0A17911B108B1304643
:104390000DE0E17911B108B1404608E0207A08B19A
:1043A000504604E0607A08B1484600E02846E070D4
:1043B000D4F8CC1041B1032801D0042804D160798D
:1043C00010B194F8D400A8B184F8D55000950295A6
:1043D000019503958DF800508DF80850E17804F1AF
:1043E000250004F13002052958D2DFE801F0670A00
:1043F000131F3B0084F8D65084F8D5600720884707
:10440000E4E7A67001908DF80060ADF80C50ADF8AF
:104410000A5043E084F8028001908DF80060208A01
:10442000ADF80C00A089ADF80A0037E0A08AADF81D
:104430000A00208BADF80C00607980B194F8D400AC
:1044400068B994F8D60050B18DF8088084F833909C
:1044500000211046FFF712FE00BB05211AE084F888
:1044600002A01BE0A08BADF80A00208CADF80C0078
:10447000607988B194F8D40070B994F8D60058B136
:104480008DF8088084F8339000211046FFF7F6FD80
:1044900020B90621A17001E084F80290E07830B1E3
:1044A00094F82410684673DF00287FF433AFD4F803
:1044B000CC1009B1A078884700202BE7A570F6E75B
:1044C00038B50D4604001BD0D5B1286820604FF6E2
:1044D000FF70608228792075FF20207401208DF8FC
:1044E000020041F60F00ADF80000221D69460120D0
:1044F000A0DF002803D129462046FFF757FC38BD2E
:104500000E2038BD38B5002922D0002820D00288DE
:10451000102A18D0112A18D0502A19D10C46097D1A
:10452000002915D030F8061F6289914210D14189C7
:1045300002290DD1216800290AD00C3000F0A4FA1C
:1045400038B1002006E0808801E04FF6FF70488215
:1045500038BD01208DF8000022686946204690474A
:1045600038BD000070B5040012D001461C2214486A
:10457000FEF72FFF1248134D0560206850B17ADF17
:10458000002806D12068016829604068686005E05D
:104590000E2070BD0B487BDF0028FAD108484FF68B
:1045A000FF711438084A20F8041B054934390160AA
:1045B0000021FFF72DFB0028EBD0032070BD000089
:1045C000DC230020182100205D7C02007CB505461C
:1045D00008880C460930904201D90C207CBD684601
:1045E0006DDF0028FAD121880820685420881B211B
:1045F000401C80B2208029542088401C80B220803A
:104600002844DDF801100160BDF805108180208884
:10461000801D80B220809DF80010490800D0012143
:1046200029542088401C208000207CBD10B5044601
:10463000008888B021281FD009DC01282FD010283D
:104640000FD0112816D1002000F068FB20E03B2895
:104650001BD0512827D056280CD1A088132176DFF3
:1046600016E0072000F05AFB08B1FFF7C5FA1F4912
:10467000A088488008B010BD00200090A08869463E
:104680008FDF2EE0FFF7B8FAF4E7A088132176DF7A
:104690000028EFD008B0BDE81040FFF7ADBAA08801
:1046A000002166DFF4E71022A11D04A8FEF791FEA9
:1046B0009DF810100029DDD09DF81800042803D0C3
:1046C000062801D00528D5D102290DD05FF00100C0
:1046D0008DF800004FF4C170ADF80400A088694661
:1046E000A8DF0028CED1C5E70220F1E7E0200020B6
:1046F00010B51A4C0188606810290ED011292BD1F1
:10470000401E606028D1FFF7D3F9002824D021682B
:10471000002921D0BDE810400847D0B9002101226E
:10472000084600F0D9FA08B107280FD10722022164
:10473000012000F0D1FA08B1072807D10422022194
:10474000002000F0C9FA20B1072802D0216801B189
:1047500088476068401C606010BD00001021002088
:104760002DE9F04701883B4E40F2F3194FF6FF75F3
:1047700010291BD011293ED0122954D0502946D1DE
:10478000C188F289841D914241D1618902293ED1BB
:104790008688304601F0F8F8050038D004F10C00A6
:1047A00000F072F9A8B3294630464EE0C17B8788F5
:1047B000044601292BD1A846284601F0E5F805005A
:1047C00017D02F8000202872234843464A460168AC
:1047D000C5F80A104068C5F80E0004F1100105F193
:1047E0000A0001F0DBF86872F08900280FD1294631
:1047F0002AE0042013E0808801F0C6F8040006D007
:104800006068FFF785FA08B102F0DCFE2580BDE89C
:10481000F087FFE76868FFF77BFA0028F7D0BDE86C
:10482000F04702F0CFBE87880646384601F0ACF864
:104830000400ECD02B464A4606F1080104F10A00B8
:1048400001F0ACF8607221463846BDE8F04700F050
:10485000C3BC0000DC230020182100202DE9F04714
:10486000044603883F480122A4B000F1480A102BF7
:1048700009D0112B54D01A2B70D1217AB2EB111F11
:1048800053D2012352E0D0E911218A430546011D8C
:1048900012A802F06AFE442212A901A8FEF799FDAF
:1048A000DFF8C0900026374609F144090DF10408ED
:1048B0000AE000BF08EB46001D2283884946281DF8
:1048C000009702F017FE761C0198B042F2D8686C8F
:1048D000A688C04302F030FEA0F57F41FF3917D013
:1048E00005EB40000123868032465146281D02F028
:1048F00061FE012332464946281D02F05BFEE07B43
:1049000002280BD000231749A2884C31281D20E033
:1049100024B00420BDE8F047FFF76EB90123F2E7A9
:104920000023A2885146001D13E000230D490546CF
:10493000A2885031001D02F03DFE207A0221B1EB29
:10494000101F01D2012300E000230649A288543140
:10495000281D24B0BDE8F04702F02CBE24B0BDE80D
:10496000F0870000F823002038B50446086820606E
:104970004FF6FF70E082887A207601208DF80200E1
:1049800041F609000D46ADF80000221D69460120E0
:10499000A0DF00280ED12946204600F0B0FE0028F6
:1049A00008D1687A28B12946204600F045FF002842
:1049B00000D1002038BD30B50446C08A8BB0A0F5C8
:1049C0007F42FF3A23D005AA204600F0FEFE0546AE
:1049D000ADF8000000200190029003900490E1885F
:1049E000ADF804100221ADF808008DF8061005A8F6
:1049F000CDF80CD00490E08A01A9A6DF002804D1EC
:104A0000BDF80010A94200D00C200BB030BD08202A
:104A1000FBE738B50288102A12D0112A12D0502A8A
:104A200014D0532A0BD10A46C088C988884206D1BF
:104A300002208DF80000136869461046984738BD7B
:104A4000808801E04FF6FF70C88238BD0C4630F810
:104A5000061F62899142F8D141890229F5D1216866
:104A60000029F2D00C3000F00BF808B1002000E073
:104A700001208DF80000226869462046904738BD25
:104A80000078C0F340007047007800F001007047E4
:104A90000A78027049784170022070470149085C29
:104AA00070470000BC7E02000649095C4FF0A04040
:104AB000D0F81005C84010F0010000D0012080F0AF
:104AC00001007047BC7E020007490B5C4FF0A0411B
:104AD000D1F804250120984020EA0203C1F80835E6
:104AE0001040C1F80C057047B87E02000249085C0E
:104AF000012101F0E4BD0000B87E02000249085C1B
:104B0000002101F0DCBD0000B87E02000649095C0E
:104B10004FF0A040D0F80405C84010F0010000D0CC
:104B2000012080F001007047B87E02007CB50024AF
:104B3000084E25460122305D00950023114601955F
:104B400001F077FD641C042CF4D3BDE87C4000F038
:104B500003B80000B87E020010B500242046FFF71D
:104B6000C5FF641C042CF9D310BD10B500242046E9
:104B7000FFF7C4FF641C042CF9D310BD10B5024626
:104B8000064B4FF0FF3000215C5C944201D1084697
:104B900010BD491C0429F7D310BD0000BC7E0200E3
:104BA00070B50C4E0C004FF0000530600BD00120AA
:104BB00000F06AF808B1022004E0002000F064F878
:104BC00000B10B202070706810B9FEF771FF054628
:104BD000284670BD1021002010B5002000F0D0F94B
:104BE00008B1062806D1012000F0CAF908B106284C
:104BF00000D1002010BD00002DE9F0470D46814690
:104C0000FFF7BCFF0446042836D2DFF874801B4847
:104C10001C4EA8F10C0725B3012D0ED0022D2BD16F
:104C200004EB440030444578002D25D0B9680029B4
:104C300022D02846BDE8F047084704EB4401755CE4
:104C40000E44717849B10E4A4FF40041093A806828
:104C5000FFF71AF808B987F80390B17808F804103C
:104C6000E2E78068FFF754F804EB4401314418F898
:104C700004008D78A842D7D0BDE8F087C07E02003E
:104C80000C2100207C230020FFF70EBF01461048B6
:104C900010B54088042907D007290ED00A2915D15C
:104CA000BDE8104002F05EBD132176DF0CE0002865
:104CB0000CD0BDE81040FEF79FBFA0F57F41FF3943
:104CC00004D10448FFF7F9FA0828F0D110BD00001C
:104CD000E02000205422002070B50023042810D2C8
:104CE0000D4D00EB4004012A02D101290CD0002215
:104CF000094E00EB4000304461B1012906D0022981
:104D000006D00723184670BD0E30C2B22A55F9E707
:104D10004270F7E78270F5E77C230020044A0146E1
:104D200000201279D20702D0084600F04DB8704733
:104D30000021002070B506461E480024C0E901612C
:104D4000B00720D50025012211462846FFF7C4FFF1
:104D50006D1C0446042D02D2002CF4D013E094B94B
:104D600040F2666204211448FEF7D2FE04000AD124
:104D7000FEF7BCFE040006D10F48104A0021001FB8
:104D8000FEF746FF0446F00701D0FFF7CFFE74B9E7
:104D900009480B4A00210C38FEF73AFF040006D1FF
:104DA0000548084A01210838FEF732FF044620462C
:104DB00070BD000000210020CC7E0200FD4F0200EB
:104DC0001D5A0200E73A02002DE9F05F6A4C0546E1
:104DD00000266078B34618B184F801B000F006FEF2
:104DE000664F4FF47A694FF4C87A4FF00108182DD6
:104DF00062D2DFE805F0AC0C0C31404D62676B7499
:104E00006B74BE7D7D7D7D7DACAFB2B5BEBE002036
:104E1000FFF77CFE00284FF0000008D0FFF766FE89
:104E2000022D02D14FF4E16008E0484606E0FFF7AA
:104E300065FE022D01D1C82000E05046410CC003A0
:104E40004FF4FA72801841F10001257052000023DE
:104E5000FEF78EFA01462AE00020FFF757FE0028F1
:104E60004FF0000004D0FFF741FE4FF44870E5E733
:104E7000FFF744FEDFE70020FFF748FE00284FF071
:104E8000000002D0FFF732FECFE7FFF737FED4E78E
:104E90000020FFF73BFE00284FF0000002D0FFF794
:104EA00025FE01E0FFF72AFE257041F69A11002247
:104EB0003868FEF7E9FE064646E00020FFF704FEEC
:104EC000257008E0002051E025703DE084F8018065
:104ED0000120FFF7F9FD002240F6CD41E8E784F814
:104EE00001800120FFF7F0FD00224FF48041DFE751
:104EF0007868FEF70DFF0646D5F1110000D02EB1FF
:104F00000220FFF7F3FD84F802B01DE0012816D956
:104F100080B2C8214843C117C90341EA5041C003C8
:104F20004FF4FA72801841F1000152000023FEF79D
:104F30001FFA014600227868FEF7A6FE0646022008
:104F4000FFF7DCFD84F802803046BDE8F09F00F0FA
:104F50004DFDB9E700F04AFDB4E700F047FD04E07D
:104F600000F044FD0020FFF7C9FD0120FFF7C6FD5A
:104F7000AAE7FFF7FAFDA7E700210020C07E0200A4
:104F800010B5FFF78BFD032101F077FB002010BD6A
:104F9000F8B5861C00208DF800000C4601276846F5
:104FA000FEF7C6FE0F4801682160D0E90012891A99
:104FB00082680446511AB51C07E000BF00F0D2FD1C
:104FC000D4E90001401AA168091A491C8D42F5D89C
:104FD0002068304420609DF80000FEF7CDFE384682
:104FE000F8BD000070280020034803C8814201D1A9
:104FF00001207047002070477028002000780221AF
:10500000FFF7FABD05494FF0FF32082841F820208C
:1050100002D3084480F8482070470000C4240020D0
:10502000F0B54FF0FF3512B10023082601E0082348
:105030000C260C4C05E000BF54F823707F1C04D0F4
:105040005B1CB342F8D32846F0BD26185DB286F843
:10505000305044F82310002AF5D1E11881F84800B7
:10506000F1E70000C42400200249084490F9300010
:1050700070470000C424002070B5084C050009D01A
:1050800010342168002907D0086820604968284644
:105090008847F6E70834F4E770BD0000B02400202C
:1050A0002DE9F05F26484168F1B3DFF898B00E684B
:1050B0008146DBF8004087688078E11B21F07F455E
:1050C000ED1CB0B9DFF880804FF48030C8F844039D
:1050D000C8F804031120FEF7B7FA1120FEF7BFFA53
:1050E0004FF0010AC8F800A02F2001F017F889F846
:1050F00002A0B54200D23546124BE8193C3320F0ED
:105100007F401860DBF800105A46091B21F07F41F0
:10511000001B20F07F40C91C81420FD91068186025
:105120002F2000F0FBFF00E004E0BDE8F05F11205D
:10513000FEF7A0BABDE8F05F02F0E8B8BDE8F09F66
:105140003421002004150140001001402DE9F041F8
:1051500017880646B81D14460D46984202D90C2001
:10516000BDE8F0813188072206290AD34FF4486C44
:105170004FF6FF73614501D9994202D17088062824
:1051800001D21046ECE7604501D99842F9D1994225
:1051900003D0984201D08142F3D80520E8552088F9
:1051A0001221401C80B2208029542088401C80B2EB
:1051B00020804119308802F04CFD2188084480B2DB
:1051C00020804119708802F044FD21880844208025
:1051D0000020C5E7FEF710BD38B54A7A0F4B62B123
:1051E00000220A725969002906D001228DF8002098
:1051F000ADF802006846884738BD0A7A62B19B68FC
:105200004C68024619462046FEF73EFD0028F3D0C2
:10521000BDE8384002F0D6B95B68F1E7DC23002036
:105220007FB50C4610B1012004B070BD2079002676
:1052300038B141F61D5501281BD0022826D00F2079
:10524000F2E702960396E0680190694601A801F032
:10525000CFFF50B102988188E18000882081BDF89D
:105260000010029802F038F800E00A2002212171B3
:10527000DAE70A4B6A460021A01D01F075FF38B13C
:10528000064908398E60CE600A28CDD12846CBE782
:1052900002488188019802F01FF8F5E750210020AC
:1052A0002DE9F04100260125144C22E060682269B6
:1052B00000EBC607387805FA00F1114217D08A438F
:1052C000226101F075F802463878E36805FA00F1CA
:1052D000194002FA00F3994209D17978012901D0E5
:1052E000012100E0002151407A6802B19047761C0C
:1052F000F6B220788642D9D3BDE8F0812021002083
:105300000E4910B50A784C780023A24212D0521CE4
:10531000D2B20A70022A00D10B70084A0B780C3204
:1053200052F8232002608868104420F07F40886093
:10533000012010BD0360002010BD000034210020BA
:1053400010B503780022072B06D2DFE803F005042E
:105350000610202930000A7010BD01230B7003894C
:105360008B818388CB81C06888600A7410BD02225B
:105370000A7002898A818288CA81C2688A60807DB7
:10538000062802D00020087410BD0120FBE703228C
:105390000A70C2888A810289CA81C068886010BD8B
:1053A00004230B70C0888881CA818A6010BD0520E3
:1053B000087010BD70B5064D0646002455F824103F
:1053C00009B130468847641C042CF7D370BD000037
:1053D0008026002030B50446006885B00D46806800
:1053E00000281CD014216846FEF70CF80195A0682F
:1053F0000490207910B101280DD104E001208DF82E
:105400000000206904E002208DF80000E06800033D
:10541000029060690390206881686846884705B0FB
:1054200030BD000002490A7882430A7070470000CC
:105430004821002002490A7802430A7070470000A0
:1054400048210020406801F0FBBD000070B508B1A4
:10545000012070BD184C0025207B08B1257301E0A8
:1054600000F0A2F82078082824D2DFE800F0230416
:10547000080C1023141EBDE8704000F01FB8BDE8F2
:10548000704000F07FB8BDE8704000F061B8BDE842
:10549000704000F037B808496088203901EB0010EF
:1054A0004068BDE8704001F093BD6560BDE87040A4
:1054B00001F09CBD0F2070BD282700201049F0B4DA
:1054C0008A1C00200346A1F120050C18A67A3EB1E3
:1054D000A37205EB0014A68916B9A47B012C0AD08F
:1054E000401C80B20228F0D30B704B804B60F0BCA4
:1054F00041F61D5070471080F0BC00F043B800002A
:105500002827002010B50F4CA4F12001608801EB82
:105510000010818961B1052020700B480221002311
:1055200081800168BDE810400122084800F082BF78
:10553000416800230122054800F07CFF042121700E
:1055400010BD0000282700205821002080210020C5
:1055500038B50A49084803240B684268898803EB78
:10556000810153880470DB1C00201B0400909B0BFE
:10557000034801F02BF838BD2827002058210020CF
:1055800080210020074910B54888091D01F07EFEE2
:1055900018B1BDE81040FFF7DBBFBDE81040FFF7D2
:1055A000B1BF000028270020F0B51D481D49012586
:1055B000067802248B88A0F12002082E18D2DFE89A
:1055C00006F00417171A212C2C160189491C018199
:1055D0000021418080F80C1002EB01131B7843B1CD
:1055E00000234418491C89B2A3720229F4D3057020
:1055F000F0BD0123F5E742685288D21C1A448A8024
:105600000470F0BD46880D6802EB061256680E6005
:10561000556013818C80062100E007210170F0BDE8
:10562000282700205821002010B5002303700121F5
:10563000164C4170817061680A46491C6160991E70
:10564000017102F5FA628260017302EBC201052268
:10565000B1FBF2F101F548610161216941616169C4
:1056600081610421017704F1100081791B31C9B2F5
:1056700081713B2908D93C3981714179491CC9B2F2
:1056800041713B2900D9437110BD0000E02000208A
:105690002DE9F041124E07460125BD403068FEF766
:1056A00037FB00280DD10F4C2069284207D138461E
:1056B00000F07EFE0028E06805D0284304E0A843FF
:1056C0002061BDE8F081A843E060206928432061A3
:1056D000A1683068BDE8F0410022FEF7D5BA0000AD
:1056E000087F0200202100208188A1F57F42FF3A37
:1056F00003D0008808B1012070470020704770B5C2
:105700009CB00024064608949DF820000D4620F029
:105710000F00401C20F0F00010308DF820009DF8A4
:10572000220020F00600801C8DF8220008798DF8F8
:1057300021001C2101A8FDF765FE9DF804000294DC
:1057400040F020008DF8040008A80494CDE905403D
:10575000012007948DF86E0042F61C20ADF86C0015
:1057600000949DF8020020F00600801C8DF80200D5
:1057700069798DF80010A9798DF8011020F01800D2
:1057800040F001008DF80200142109A8FDF73AFE4F
:1057900020210EA8FDF736FE1BA80990CDF828D0D1
:1057A00016AA0EA9304600F010F8ADF82C0014200F
:1057B000ADF8300016A8ADF82E400D90B088B31D9E
:1057C00009AA01A9A2DF1CB070BD30B5087800237A
:1057D00000B101234C780CB143F0020320B143F037
:1057E00001030C7B086901E00C79886864F31F6091
:1057F0005070050A9570050CD570000E10714C782C
:10580000052084B18C8A5471240A94718C7DD471E2
:10581000CC7D14720C7E54724C7E94728C7E43F05C
:105820000203D4720C208C7824B1097F115443F008
:105830000403401C137030BDF0B58FB00D46064612
:105840001C2101A8FDF7DEFD9DF80400002440F0B6
:1058500002008DF80400012705948DF8367042F699
:105860001D20ADF8340000949DF80200029420F051
:105870000600801C8DF80200049406940794E979D0
:105880008DF80010297A8DF8011020F019008DF89C
:105890000200142108A8FDF7B5FDA87A8DF838009C
:1058A0000DA80890ADF828700EA8CDF824D0ADF85A
:1058B0002A40ADF82C700C90B08806F10E0308AAAF
:1058C00001A9A2DF0FB0F0BD2DE9F0410F4628B1CC
:1058D0000120FFF7A7FD0120BDE8F081397961B112
:1058E0000026264D01290DD0254C4FF00208022933
:1058F000206822D003293CD128E001F077FB012168
:10590000397134E05FF0000005EB001109780229DD
:105910000CD0401C80B20228F6D30220FFF78AFD8B
:105920000120FFF77FFD41F61D50D5E705EB001480
:10593000606801F04DFB267019E00146002301224A
:10594000104800F077FDA4F804800FE001F040FB60
:105950000A4922682031498805EB01114B68236010
:105960004A60A2880A81A4F804800E703E71002863
:10597000B2D00120FFF756FD0E20ADE7082700202A
:1059800058210020802100200146034802888A42D5
:1059900000D0002070470000C8230020F0B58488A4
:1059A000A518944200D82246A41AC288D6189A4252
:1059B00000D81346D21A4B880788BB420CD34088C4
:1059C000834209D88888A04206D3A84204D8C88850
:1059D000904201D3B04201D90020F0BD0120F0BDBA
:1059E000800701D000207047012070470A4810B599
:1059F000807860B1002401E0022C06D02046FFF739
:105A000075F8641C042CF7D310BD0324F6E7BDE839
:105A10001040FFF7A1B800000021002003480179E1
:105A2000C90702D00078FFF7CFB9704700210020E6
:105A300006490120086006480168C1F300410029B9
:105A4000FAD1044900208870704700000C00004023
:105A500018040040B024002017210180418000215B
:105A6000017141711B218171C17170472DE9F047AE
:105A7000394E002780463D46DFF8E090D6F804A076
:105A800057E003D00446D0F81C8035E099F8002098
:105A900002EB4201521CD2B289F8002009EBC1018D
:105AA00099F80230091D9A4201D189F800504868DE
:105AB0000A780446012A12D0022A02D0032A3BD1D6
:105AC00008E001F013FF00B10127257434E00574EC
:105AD000C06900E070680028F9D170602CE0207C7B
:105AE00050BB88686060C868A0600869E060486969
:105AF000A061F07800B165606268B168184B501A17
:105B000020F07F40984202D2A168084406E0881A3B
:105B1000A16820F07F40814202D9081A206000E08D
:105B2000256065600120A56020742046E56101F0D4
:105B3000BFFEB8F10000A4D199F8001099F8010057
:105B40008142A3D117B97168514502D00120BDE847
:105B5000F0870020FBE70000342100205C250020B6
:105B6000FFFF7F002DE9FE43214DD5E9014704EAFF
:105B7000070005EB800605F583600C3600F0BFF9E1
:105B800005F21440804600F0BAF90AE0C0F389112A
:105B900001EB9050641C044404EA070005EB800606
:105BA0000C3630688107F1D00020694604EA07020C
:105BB00005EB8202641CD26841F82020401C0228B8
:105BC000F4D3009800F00300022800980AD0C0F334
:105BD00083100444404600F08CF9002800D06C602B
:105BE000BDE8FE83032101EB905004EB9004F1E744
:105BF00070280020A8B0FEF71DF8041E04D0FDF7A1
:105C0000FBFF2046FDF7F8FF53490320FFF792F80A
:105C100008B1FDF7F1FF69460020FEF7C1FF08B1AA
:105C2000FDF7EAFF01F026F808B1FDF7E5FF0024D3
:105C300069460120009400F0E3FE08B1FDF7DCFFA7
:105C4000684600F067FF08B1FDF7D6FF9DF8080031
:105C500042A120F00F00401C20F0F00010308DF821
:105C600008000B2202A87CDF08B1FDF7C5FF0094F5
:105C70005020ADF80000A0200194ADF80200ADF86E
:105C800004404FF4C870ADF8060068467ADF08B1EA
:105C9000FDF7B2FF34485121012501606421C0E9BC
:105CA000011505730146314801F094FC2E4800218E
:105CB000EC3800F06DF908B1FDF79EFFA0216846B1
:105CC000FDF7A0FB02208DF80000ADF8100027487A
:105CD0008DF8025006218DF80310103805904FF40E
:105CE00096702290B4202390214826901E488DF86B
:105CF0007C506946D838FEF7F8F908B1FDF77CFF0B
:105D000019480121D838FEF7EDF901F0B3FC1C2148
:105D10006846FDF777FB4FF42030CDE900404FF4A3
:105D20007020029003208DF80C0012480590124854
:105D30000690ADF80E408DF810406846FEF712FC54
:105D400008B1FDF759FF08480321D838FEF7D3FA08
:105D500008B1FDF751FFFEE78D4C0200536166610B
:105D60007961745F48544D002C230020F8200020F6
:105D7000296E02004D6E0200D551020070B5144626
:105D800082880E4605462088111D0144921C9942C6
:105D900001D8FE2A01D90C2070BD521C3254208833
:105DA000FF21401C80B2208031542088401C80B2EA
:105DB00020808119288801F04CFF2188084480B296
:105DC0002080AA8842B1A96841B13044FDF701FBA7
:105DD0002088A98808442080002070BD072070BD5D
:105DE0002DE9F047C7880446181D16468946B0FBC2
:105DF000F7F1B0FBF7F207FB12009A193A44D21CF4
:105E0000B2FBF7F2DDF820A001E02468491E00296A
:105E1000FBD13D1A8846B54216D818E0BAF1000FFA
:105E200005D0211809EB08002A46091D04E020448A
:105E300009EB08012A46001DFDF7CBFA0020246873
:105E4000761BA844B74201D9354600E03D46002EF6
:105E5000E4D1BDE8F087F8B50E4601781446054652
:105E6000012901D1687830B12088821C9A422DD84E
:105E7000012902D006E00720F8BD69780144891C99
:105E8000994223D8181A801E87B2ADF80070218875
:105E9000B01C084469467DDF0028EDD1287802282F
:105EA00005D1BDF80010B94201D809210AE0082146
:105EB000012805D16878B84202D8ADF8000001E0A9
:105EC000ADF80070BDF80000FE2801D90C20F8BD27
:105ED0002288401CB0542088401C80B2208031545D
:105EE0002088401C2080BDF800100844208000203D
:105EF000F8BD08B500216A46FDF7F3F908BD08B5FD
:105F000001216A46FDF7E0F9009808BD38B504465E
:105F100000258DF800506846FDF70AFF2168626889
:105F2000086890420ED9401E08600178238AE26812
:105F300001FB0325227A2168101AC0B20A79824235
:105F400000D208719DF80000FDF716FF284638BD05
:105F500038B5054600208DF800000C466846FDF770
:105F6000E7FEE868298A201AB0FBF1F12A68106878
:105F7000431C136001709DF80000FDF7FDFE38BD65
:105F8000C20800F007030120895C98400840704770
:105F900010B560B10161172120F8021B20F8021B27
:105FA0001B2100F8021BFFF757FD002010BD0E203B
:105FB00010BD00002DE9F043858895B00C46002DFA
:105FC0003DD10188DFF824810026DFF824910127E4
:105FD00024293CD006DC102909D011290CD0232912
:105FE0006DD150E03A290BD0552968D12AE00146FD
:105FF000204600F039FF62E0A01DFFF72DFD5EE0B6
:106000002246408934F8061F814200D80846608045
:10601000172800D217206080106970B1607960B1D4
:10602000D8E90010CDE90310ADF80E506088ADF846
:106030001000136903A9104698476671267115B0C0
:10604000BDE8F0830146204600F05CFF37E0011D0B
:10605000342206A8FDF7BDF9BDF81800BDF81C20D4
:1060600004EBC0014A7322694AB3D8E90432CDE98E
:106070000432ADF81200487B8DF8140022692046E6
:1060800004A990471BE00496059630F8041F04EB22
:10609000C1020179127B8A4200D21146ADF810107C
:1060A000ADF812100088002204A990DF020006D08B
:1060B000B9F800000F4907EB004000F00BFCA07A94
:1060C0000028BCD0E18828469EDF02000BD0112AB0
:1060D000B5D0B9F8000015B007EB0040BDE8F043BB
:1060E000054900F0F7BBA672E772A8E7EC7E020054
:1060F0009421002068810200E080020000F18040CD
:106100000068002800D00120704708B500F18040E9
:10611000002101600068009008BD000000283ED00A
:106120001F49204A096800BF00BF00BF00BF00BF71
:1061300000BF00BF00BF91422FD000BF00BF00BF13
:1061400000BF00BF00BF00BF00BF00BF00BF00BF57
:1061500000BF00BF00BF00BF00BF00BF00BF00BF47
:1061600000BF00BF00BF00BF00BF00BF00BF00BF37
:1061700000BF00BF00BF00BF00BF00BF00BF00BF27
:1061800000BF00BF00BF00BF00BF00BF00BF00BF17
:1061900000BF00BF00BF00BF00BF0138C3D17047C0
:1061A0007C2100200024F40070B50F4C00252078DD
:1061B00008B1852516E00021A16061602161E160E0
:1061C0004FF0E020D0F80001012610F0010F03D1BC
:1061D0000721002000F022F800F08AFD08B90348EA
:1061E00006602670284670BDB024002018050040C7
:1061F00008B500208DF800006846FDF799FD0648B7
:10620000C168491EC160C06808B9FFF711FC9DF85C
:106210000000FDF7B1FD08BDB02400204907090EBC
:10622000002806DA00F00F0202F1E02282F8141DC5
:1062300003E000F1E02282F8001400F01F020121C7
:1062400091404009800000F1E020C0F88012C0F8C1
:10625000001170472DE9F0418846054600F0D8FE50
:10626000234E002828461AD0FEF7FEFE304490F850
:1062700048008009032802D001280ED007E04FF023
:10628000A040D0F81005E84010F0010F05D0032120
:106290002846BDE8F04100F001BA0221F8E700F01D
:1062A000C3FE002822D02846FEF7DEFE04464FF447
:1062B000807000EB84000F4F81B207EB8400D0F8B0
:1062C000102542F00102C0F81025084600F016FA29
:1062D000B8F1000F0AD02846FEF7C6FE56F8200097
:1062E000002803D00120A040C7F80403BDE8F081D6
:1062F000C4240020006000402DE9FC41DFF8A480A8
:10630000044608EB0400002790F930001346C0173C
:106310000E46401C01D0082741E0F278194620467D
:10632000FEF77EFE0546401C38D0B07850B14FF0E5
:10633000A04000EB8400D0F8001721F00201C0F863
:10634000001707E000217378204600910A4601916A
:1063500000F081F9F078C0B11348317800EB850086
:10636000D0F81025114B1A40C0F810254FF4F85200
:106370004FF4403302EA042203EA01410A43D0F811
:1063800010150A43C0F8102509E008EB0500327823
:1063900010F8481F41EA8211017000E004273846D6
:1063A000BDE8FC81C424002000600040FFE0FCFF49
:1063B0004FF0A041D1F81015C14011F0010000D0FC
:1063C0000120704770B5144D95F8540008B10820AD
:1063D00070BD0020411E2A18401CC0B282F8301047
:1063E0002028F8D300242046FEF70CFE641CE4B2FB
:1063F0000C2CF8D307210620FFF710FF4FF4BE70D6
:1064000000F07CF905494FF00040C1F80403012079
:1064100085F85400002070BDC424002000600040B6
:10642000034890F85400002800D001207047000075
:10643000C42400202DE9F0411F46154604000E46F5
:1064400016D02068B8B1C5B160680268501E3042ED
:1064500015D16A432046FDF71FFB80B120683B46FB
:106460002A46D0F810C031462046BDE8F0416047CA
:106470000E20BDE8F0810820FBE70920F9E7102095
:10648000F7E700002DE9F04128B1016819B1496929
:10649000BDE8F04108470D4D0D480024461B142768
:1064A0000DE000BF04EB840005EB8000016829B11A
:1064B0004969884710B10120BDE8F081641CB6FB32
:1064C000F7F0A042EED80020F6E70000802100207F
:1064D0009421002008B1012808D1054801218170CC
:1064E000017809B9407808B1002070470120704751
:1064F00060210020012801D0032808D1044900228E
:1065000001288A7000D00020C87000F0E9BD7047F3
:1065100060210020F0B52B4E074687B0307800256B
:10652000F0B3294C022F206FC0EBC00004EB8001B8
:10653000304602D0032F39D117E04560087910B1F9
:10654000012833D10AE0D1E90502801A4FF48053C3
:10655000984200D318461044886102E00869401C44
:1065600008614A69904206D020E04268521C4260AD
:10657000082A1BD945601C226846FCF72AFF606F79
:10658000401E6067206F401C2067042800D12567EB
:106590003570022F05D00D216846FEF71BFF05E080
:1065A00001E00021F8E7707800B17570B07820B193
:1065B00007B0BDE8F04000F0A1BB07B0BDE8F04077
:1065C00000F08EBD60210020382700202DE9F8431F
:1065D0001D46089F1646884604000DD066B1206807
:1065E00060B135B160684068B5FBF0F100FB115057
:1065F00030B10920BDE8F8830E20FBE70820F9E759
:106600004046FDF743FA90B13046FDF73FFA70B1CE
:106610002A4641462046FDF73FFA40B100972068E0
:106620002B463246C76841462046B847E2E710206D
:10663000E0E770B541EA4201DDE904564FF0A044BD
:1066400041EA830141EA052104EB800041EA064169
:10665000C0F8001770BD70B541EA4201DDE904568B
:106660004FF0A04441EA830141EA052104EB800098
:1066700041EA0641C0F8001770BD4FF0A04202EB9E
:106680008000D0F8002722F44032C0F80027D0F86C
:10669000002742EA0141C0F8001770474FF0A042BE
:1066A00002EB8000D0F8002722F44032C0F8002727
:1066B000D0F8002742EA0141C0F8001770470122D4
:1066C0004FF0A043824011B1C3F808257047C3F8CA
:1066D0000C25704718B5084B6C4601441B680093A5
:1066E00006E000BF54F82030D3F81035401C08C233
:1066F0008142F7D818BD0000047F0200034908B5A5
:106700000844002101600068009008BD006000405E
:1067100002494058012800D0002070470060004026
:106720002DE9FE4FFEF760FC10B10020BDE8FE8FA2
:1067300063480021C0F81414D0E9014604EA0601B8
:1067400000EB81014FF000090AE000BFC1F389129C
:1067500002EB9151641C0C4404EA060100EB810138
:10676000C9688A07F2D000216A46804604EA06001A
:1067700008EB8000641CC06842F82100491C022913
:10678000F4D3009800F00300022800981CD0C0F356
:106790008311062900D3062161F389100090C0F30C
:1067A0008310801C8100474800F0B8F8070075D0BE
:1067B00000F0FDF84B4608226946384600F00FF914
:1067C00009F10809002557E0810D50228A46B2EBF5
:1067D000905F00D850210D4665F39F50009008311E
:1067E000384800F09BF8070058D000F0E0F84B461E
:1067F00008226946384600F0F2F804EA0601701AE9
:106800008000001D09F1080B854220D92C4E0C3662
:1068100030B1C2B208EB8101281A91460C3104E074
:106820003146EAB2002691463046C5B25B4638464C
:1068300000F0D5F80BEB090326B12A46314638465D
:1068400000F0CDF80AF1030004EB90041AE008EB25
:1068500081015B462A4638460C31F1E704EA06001E
:1068600008EB80014B46042238460C31641C00F0D2
:10687000B6F809F104096D1C0098C0F38310A84212
:10688000ECD85FB11048FFF734FBD8F810544646F7
:1068900005B140B1384600F091F87460FEF7A4FBF2
:1068A00080F0010042E7687A012804D12A6828466E
:1068B0003946126890476D68002DF4D1EAE7000070
:1068C0007028002028800200842C002000231A4613
:1068D00000F062BF08B5012300926A4600F05CFF39
:1068E00008BD1CB5CDE9002302236A4600F054FF21
:1068F0001CBD000070B508480125D0F8104480F890
:106900001C5405E065722168204649688847646820
:10691000002CF7D170BD0000702800202DE9F04157
:10692000058A80462D1F4819C01CB0FBF5F0C6B281
:106930004046FFF7EBFA041E19D000202071012019
:106940006071E58000272546761EC4F800800BE0C4
:106950004046FFF7DBFA60B16179491C617128603C
:1069600005467F1CC0F80080B742F1D32046BDE841
:10697000F081204600F002F80020F8E72DE9F04110
:10698000457901466B1E002201E00968521C9A42BB
:10699000FBD30F680146002605E038460C68FFF778
:1069A000D7FA2146761CAE42F7D3BDE8F08108B590
:1069B00001216A46001DFCF760FC08BD38B504469D
:1069C000001D01216A46FCF765FC009810F0FF0FDE
:1069D00004D12046BDE83840FFF7D0BF38BD38B5F8
:1069E00000240094FFF7FCF938BD000020B10349F2
:1069F00049680160002070470E207047AC8002009B
:106A00002DE9FE4302460E460846FFF7EFFF002839
:106A10006FD1002400940194012503208DF80020FB
:106A2000ADF8040002948DF80250694620203268C7
:106A300069DF314F40B100F0D1F9024638882F4963
:106A400005EB0040FFF746FF00948DF800508DF8ED
:106A50000140019402948DF802406946402032685A
:106A600069DF40B100F0BAF902463888244905EBE5
:106A70000040FFF72FFF0094019402948DF800402E
:106A800069460120326869DF40B100F0A7F902468B
:106A900038881C4905EB0040FFF71CFFDFF86880D1
:106AA00001940294D8F8080000906946A120326849
:106AB00069DF40B100F092F902463888134905EBCE
:106AC0000040FFF707FF00940194029498F800003B
:106AD0008DF800006946A020326869DF40B100F0FF
:106AE0007DF9024638880A4905EB0040FFF7F2FEBF
:106AF0000020BDE8FE830000F42100200C86020087
:106B0000548602006C850200AC800200B885020049
:106B1000188502002DE9F0410446076860DF22680D
:106B2000134D0646BA4214D02888022707EB0040CE
:106B300010A1FFF7CFFEF806D0F80C012168800203
:106B400000F10050421A288814A107EB0040FFF71B
:106B5000C1FE56B1304600F041F9024628880121B5
:106B600001EB004017A1FFF7B5FE3046BDE8F0810C
:106B7000F421002052414D207374617274207368B7
:106B80006F756C642062652061646A7573746564F6
:106B900020746F20307825782E00000052414D205F
:106BA00073697A652073686F756C64206265206113
:106BB000646A757374656420746F20307825782E4C
:106BC0000000000073645F626C655F656E61626CFB
:106BD0006528292072657475726E65642025732E90
:106BE0000000000030B593B05FF03805ADF84450B8
:106BF00011A903A861DF30B1052816D013B0BDE894
:106C00003040FCF7F9BF03AC0949684600F0A2F830
:106C100007E000BFD0E9002120469047684600F019
:106C2000B0F802980028E1D0F4E713B030BD0000BE
:106C3000B880020010B50E4C2078B8B10120A070C9
:106C400000F02AFC11280FD0022000F03DFC11DFDB
:106C500000280AD12070A070162000F09BFB0028AD
:106C600003D1032000F030FC002010BD082010BD2F
:106C70007821002038B5124C207808B1082038BDA2
:106C80000125A570002000F007FC112815D0002078
:106C900000F01AFC0B480C4900680090684610DFB1
:106CA0000028ECD12570A0706070162000F092FBD7
:106CB0000028E4D1012000F007FC002038BD0000CE
:106CC000782100204C800200813B02000EB507496C
:106CD000684600F03FF805E0D0E9001088476846B4
:106CE00000F04FF802980028F6D10EBD688002002F
:106CF000014800787047000078210020054881781D
:106D000019B1007818B1FFF795BF08207047FFF759
:106D1000B1BF0000782100201FB5684648DF30B1C0
:106D2000052814D004B0BDE81040FCF765BF084941
:106D300001A800F00FF806E0D0E900210098904784
:106D400001A800F01EF803980028E6D0F4E71FBD64
:106D5000D4800200016009684160AFF3008010B583
:106D6000D0E900215368994201D1002104E0D1E922
:106D70000034A34202D01946816010BD0831416041
:106D8000F0E7816800290BD0026892680A448260AB
:106D900041684B689A4203D108314160FFF7DFBF79
:106DA000704700000C4A10B502F1F0030EE0991A8A
:106DB000C91001EBD171491002EBC1010C6884428A
:106DC00001D90B4602E005D201F108029A42EED346
:106DD000002010BD486810BD387F020000B5FFF7E5
:106DE000E1FF002800D1014800BD0000247F02001F
:106DF0004058002800D00120704708B500224250BA
:106E00004058009008BDD0F80403084000D001208D
:106E100070474058002800D00120704708B5002274
:106E200042504058009008BD10B550B103280CD115
:106E30000220FDF773FF002807D0BDE81040FCF7E3
:106E4000DBBEBDE8104000F08DBC10BD007800280E
:106E500007D104483B21408876DF002801D0FCF7A9
:106E6000CBBE7047E02000202DE9FC418E880279DE
:106E700000EBC605AC1D2A73C97B012902D002298B
:106E800004D101E0008800E04088208021886088EB
:106E90000127DFF8648081420CD930469EDF020072
:106EA00025D0112A25D0B8F80000144907EB00407E
:106EB000FFF710FDA079E179884216D900200090F3
:106EC0000190287BADF80000287BADF8020000227D
:106ED0006946304690DF030007D0B8F8000032461C
:106EE00007EB00400649FFF7FCFCBDE8FC81677139
:106EF000E0E72771DEE7000094210020E080020037
:106F0000B08102007CB506468D88C88806EBC504B2
:106F1000A41D172800D217202188814200D80846D6
:106F200060800020207121882846ADDF020007D054
:106F30000E480121008801EB00400D49FFF7CAFC13
:106F40006079002810D1306900280DD00948D0E9B7
:106F50000210CDE90010ADF802506088ADF80400D1
:106F600032696946304690477CBD0000942100207C
:106F700024810200EC7E020010B508780D4C88B028
:106F800018B1022810D1002011E0207800280BD180
:106F90006846FEF749FB69460748FDF70CFD28B136
:106FA000082801D0FCF728FE08B010BD0120207091
:106FB000FAE70000E0200020242200200389CA1CF8
:106FC0001A4402814289511AC91E4181704700004A
:106FD00008B50021009101460823024A0248FFF744
:106FE000F5FA08BD1C7F02008021002008B50020B2
:106FF000009004480823044A01680448FFF7E6FAB1
:1070000008BD000058210020147F020080210020CC
:107010000449084490F93000082801DB012070473A
:1070200000207047C42400200449084490F930002F
:10703000082801D20120704700207047C424002096
:10704000F0B5264C002785B0216F41F61D56C1EBE7
:10705000C10104EB81052978072919D2DFE801F085
:10706000180408080C0C10002946FEF72DFC09E056
:10707000294600F0A7FE05E02946FEF7D1F801E019
:10708000FEF7E4F9002822D0B04202D1019701E0D6
:107090000F20019069462846FEF752F96846FEF730
:1070A00089F9206F1C21C0EBC00004EB8000FCF7C5
:1070B000A9F9606F68B194F87010491C01F00301E0
:1070C000401EC4E91C1004D00020FFF7B9FF05B032
:1070D000F0BD0420FEF7A6F9F9E700009026002095
:1070E000F0B41F48416F00292FD0016F1D4DC1EB37
:1070F000C10100EB810401262E70207910B1012816
:107100001BD113E0D4E90501401A4FF4805290429C
:1071100000D31046B6EB900F01D2820800E00122A6
:107120002069E3680844194429DF03E0D4E9030136
:10713000084428DF58B1112804D02046F0BC0321B0
:10714000FEF748B9002028706E70F0BC7047E878F0
:107150000028FAD1F0BC00210220FFF7DBB90000C3
:1071600038270020602100202DE9F04707461E48FF
:107170001C46154600780E46800702D40220BDE862
:10718000F08765B15CB1DFF864804FF00009A0883A
:10719000022827D208EB00100078F8B916E0052085
:1071A000EDE720681FB181883A8891420ED11EB167
:1071B00001883288914209D180682860206868601F
:1071C0000A482030008928810020D8E7A08821467D
:1071D00000F05CF80028E4D1C4F80090A088401CBE
:1071E000A080D4E70A20CAE7482100200827002011
:1071F000F8B505464068234F0C46002638B32249AF
:10720000CA68824223D80969814220D3FEF7E8FB8D
:10721000E8B128893989884219D1D5E900018A68FD
:10722000904214D10020A7F1200300BF03EB00120D
:1072300052688A4205D202F580528A4201D92080E2
:1072400011E0401C80B20228F0D30020F8BD268057
:1072500000960AE0009829688068884205D1009865
:107260006860388928810120F8BD2088694600F0CF
:107270000DF80028EED12088401C80B22080022822
:10728000E6D3E2E7282700208021002070B50E46D3
:107290000A68104901EB00151AB1508802EB80040E
:1072A0000CE06C6808340AE02046FEF71DFA10B1C5
:1072B0000120346070BD608804EB80040C34686881
:1072C00000F58050A04202D92068401CECD100207B
:1072D00070BD00000827002038B50C460021009141
:1072E00001460423064A0748FFF770F908B10E204B
:1072F00038BD0549012001EB04118873002038BD19
:10730000107F0200802100200827002070B5012690
:1073100070044FF0E0210025C1F88001084C4010B6
:10732000C4F84803C4F8080366602F20FEF7F6FE91
:10733000A660044C2F20A560FEF7F0FEA57070BD7E
:10734000001001403421002070B50546C87D0C4670
:1073500000284FF4847128460AD0FFF74EFDD5F877
:107360001805627EE1688854607E401C607670BDBE
:10737000FFF743FDD5F8180570BD1FB501238DF843
:1073800000308DF808100192D0E90012684690474D
:107390001FBD000010B50446FCF766FB68B10C4A3F
:1073A000936804F01F0001218140600943B152F845
:1073B00020308B4342F8203007E042F2010010BD3C
:1073C000800000F1E020C0F88011002010BD000016
:1073D0006826002010B50446FCF746FB40B1002C9F
:1073E00009DA04F00F0000F1E02090F8140D06E037
:1073F00042F2010010BD04F1E02090F800044109C0
:10740000082912D289B101290FD004290DD00C4AC4
:10741000936804F01F0101208840610943B152F8CC
:107420002130034342F8213007E042F2020010BD50
:10743000890001F1E021C1F80001002010BD000029
:107440006826002038B50021012558B101280ED04A
:1074500003280BD107210020FEF7E0FEBDE83840ED
:10746000FEF7C6BE4FF0E020C0F8805138BD8DF861
:1074700000106846FCF75CFC064C207808B9FEF763
:1074800093FEE068401CE060A5709DF80000FCF7EA
:1074900073FC38BDB02400203EB504460949684657
:1074A000FFF758FC08E000BFD0E9002120469047D4
:1074B00030B16846FFF765FC02980028F4D13EBD64
:1074C00011203EBD508002003EB504460849684682
:1074D000FFF740FC07E000BFD0E9002120469047BD
:1074E0006846FFF74EFC02980028F5D13EBD00002B
:1074F0005C80020070B50028049D18D0002916D0C9
:10750000002A14D05FF0000430F814609E420FD1BE
:1075100000200123A34008E001EB800426680DB1A0
:107520001E4300E09E43401C26609042F4D370BD91
:10753000641C202CE8D370BD70B50546002421469C
:10754000284600F00AF808B1204670BD641CA4B2B9
:10755000202CF4D34FF6FF7070BD01228A40024206
:1075600001D001207047002070472DE9F04192B012
:1075700080464FF0000017460D00009012D0002406
:107580006E46A1B23846FFF7E8FF40B1009935F8E2
:10759000140006EB410188800098401C0090641C98
:1075A000202CEED3442269464046FBF712FF12B06E
:1075B000BDE8F08108B5009313460122FFF79AFF5A
:1075C00008BD000002498969002900D008477047BA
:1075D000DC2300200A7B1AB149680160002102E027
:1075E0000968016001210171704700002DE9F04137
:1075F0000746806A14468846C8B3002531E000BFBC
:10760000B96A05EB450001EB8006B088801CFE28B6
:1076100002D90C20BDE8F0812288401C08F8020045
:1076200020881622401C80B2208008F80020208884
:10763000401C80B2208000EB0801308800F009FB7C
:107640002188084480B22080B28842B1B16871B10B
:107650004044FBF7BEFE2088B188084420806D1CA2
:10766000EDB297F82C00A842CAD80020D2E7FFE775
:107670000720CFE710B588B0002438480294009066
:107680008DF80940022001948DF80A009DF804004D
:10769000694620F00F00401C20F0F00020308DF8EB
:1076A00004009DF8050020F0FF008DF805009DF80E
:1076B000060020F0FF008DF806009DF8070020F07E
:1076C0000F00401C20F0F00010308DF807009DF8EE
:1076D000080020F0FF008DF808002148FDF744F96C
:1076E00008B1FCF789FA142103A8FBF78BFE9DF87B
:1076F0001900039420F00F00401C20F0F00010301F
:107700008DF819009DF81A00059420F00F00401C18
:1077100020F0F00010308DF81A009DF81B0003A92E
:1077200020F0FF008DF81B009DF81C0020F00F00DA
:10773000401C20F0F00010308DF81C0001208DF866
:10774000100064208DF8180005481838FCF7B8FEC2
:10775000002801D0FCF750FA08B010BD796F020084
:107760002422002010B50020FDF7D8FA08B1FCF75C
:1077700043FAFDF731FA08B1FCF73EFA32DF002890
:1077800003D0BDE81040FCF737BA10BD002801D186
:10779000FDF772BC704700002DE9F843DFF88C80DC
:1077A0000446914698F81C04D8F808500F461E4627
:1077B000002838D169461846FDF7EAFB002832D088
:1077C0000098C44600EA050108EB810252F80C1F3C
:1077D00021F00301491C401C1160E30602D541F071
:1077E000040101E021F0040164F3C50166F389118D
:1077F00067F39F21116000EA0501220C0CEB810167
:10780000401CCA60009000200BE000BF009959F8AE
:10781000203001EA05020CEB8202491CD360401CB7
:107820000091B042F2D3BDE8F88300007028002038
:107830002DE9F84F1D4C00256846D4E901A6FDF757
:107840005FFD002738B30023009A61681CE0D1F87F
:1078500000C00846944503D9ACEB02020A6015E06B
:10786000A2EB0C0263440760D0F80CC0C1698146EA
:10787000BCF1000F08D006EB030828F07F48C0E9F0
:10788000018CC9F81C5005460029E0D128466160EA
:10789000FEF7ECF803E02846FEF7E8F810B1504692
:1078A000FDF7FEFBE770BDE8F88F000034210020F3
:1078B0000D4B10B5596831B102680C68A24204D86A
:1078C000A21A0A60C161586010BD0B4603E00B4666
:1078D000C969121B21B10C689442F8D3A41A0C6038
:1078E0000260C161D86110BD342100202DE9F04152
:1078F000144E77683D462C4603E0844204D025466A
:10790000E469002CF9D11BE0D4B1A5420BD1F86990
:10791000706040B90C49012088600021B160F070AE
:107920002F20FEF7FBFB2168E069E86110B10268D7
:10793000114401607068874202D00120BDE8F081E7
:107940000020FBE734210020001001407CB50646F2
:1079500000240D468DF800406846FCF7E9F901A8BF
:1079600000F0B0F970B10570094946609DF8040057
:1079700048709DF80000FCF7FFF91420FBF77AFE31
:1079800020467CBD04249DF80000FCF7F5F9F7E7DC
:107990005C2500202DE9F041194D6C68002C2CD09D
:1079A000184800270068A968B846401A20F07F46AA
:1079B0002068B0420CD82146361A0744E469087C96
:1079C00020B181F81080886949698847002CEFD17F
:1079D00029786878814206D1401CC0B268700228BC
:1079E00001D185F80180064869780C3040F8217093
:1079F000BDE8F0411420FBF73DBEBDE8F08100007A
:107A0000342100200415014070B50C4605464FF4A2
:107A10008E71FFF7F2F9A18AA068415CA08A401C30
:107A2000A082C5F81C1570BD1FB500228DF800207E
:107A30008DF80810816801918275D0E900126846BE
:107A400090471FBD2DE9FF470C4605464FF40071D6
:107A5000FFF7D9F901274FF40178002618B34FF446
:107A6000927949462846FFF7C3F9E0B149462846CE
:107A7000FFF7C3F9C5F80883A07E00B96F60022044
:107A80008DF80000D5F88004C5F880040390E07DEF
:107A90008DF80800E0680190E6752676D4E90012BA
:107AA0006846904727E004212846FFF7ACF910B359
:107AB0004FF484712846FFF79BF9E0B12146284630
:107AC000FFF742FCE07D617E884214D1207E38B110
:107AD000617EE268E0752069E0602676667607E000
:107AE000A07E00B96F60C5F80883E675617EE26824
:107AF0002046FFF742FC4FF48E7841462846FFF7B8
:107B000077F988B1A08AA17D884204D2214628460F
:107B1000FFF77AFF08E041462846FFF76EF9A17D9E
:107B200011B12046FFF780FF4FF4A2784146284666
:107B3000FFF75EF9002812D041462846FFF75DF9AD
:107B4000A07E00B12F60E07D002808D0E675617E40
:107B5000E26804B02046BDE8F047FFF70EBCBDE880
:107B6000FF872DE9FF410C464FF4927705463946D1
:107B7000FFF74FF90026C0B139462846FFF74EF906
:107B800002208DF80000D5F88004C5F88004039029
:107B9000D5F83C058DF80800E0680190E67526767A
:107BA000D4E900126846904724E04FF488773946BC
:107BB0002846FFF72EF9E8B139462846FFF72EF997
:107BC000D5F83C05C1B2E07D884213D1207E60B17A
:107BD000E268D5F8000220F02000C5F80002207EFF
:107BE000E0752069E060267601E0E675E2682046EF
:107BF000FFF7C3FB4FF4A27739462846FFF709F990
:107C000068B139462846FFF709F9E07D38B1E675D5
:107C1000D5F83C05E268C1B22046FFF7AEFB4FF451
:107C2000907631462846FFF7F4F800280FD0314609
:107C30002846FFF7F3F8A07D002808D0D5F84C05BA
:107C400004B0C1B22046BDE8F041FFF7EDBEBDE88B
:107C5000FF810870000A487002207047F8B5054699
:107C600080B2FDF791FE040013D0154E207A002754
:107C7000317B88420ED2A8B204F10A0175DF28B127
:107C8000112806D0BDE8F840FFF79CBC207A401CC4
:107C90002072F8BD2772307C38B1A8B23B2176DF64
:107CA00018B1082801D0FFF78DFC71690029F0D0C8
:107CB0008DF80070ADF8025068468847F8BD0000A6
:107CC000DC2300200A494A788B78521CD2B29342B6
:107CD00000D100220B78934201D10020704702703E
:107CE000487800EB400001EBC000001D7047000029
:107CF0005C2500202DE9FC411646DDE90854CDE95C
:107D000000541F468046022200F00CF8002807D1DC
:107D1000CDE900543B4610223146404600F002F8BF
:107D2000BDE8FC812DE9FC5F0026DDE90C4B99469E
:107D300092468E4680462788354630E0D8F80400C3
:107D4000002200EB850069460068019001A864DF0D
:107D5000002830D19DF8000050451FD10EB1002100
:107D600000E00221228808441118594522D846B95A
:107D7000521C90B2208009F800E02088401C20802E
:107D80000126218801A801EB0902694664DF002869
:107D900011D120889DF80010084420806D1CB8F88F
:107DA0000000A842CADC56B12088C01B401E80B229
:107DB000FF2802D90C20BDE8FC9F09F8070000202D
:107DC000F9E700002DE9F8430D46898A374A02EBAE
:107DD000011630B1E9883046FFF7F0F80120BDE820
:107DE000F88331897068002400EB81072F48A97D52
:107DF00094384FF00E08072950D2DFE801F00D2D1E
:107E0000162404404C004460A969016027482849B1
:107E10009438FFF7EDF930B10220A87504233946F4
:107E20002A1D009423E00A20D9E728692A4608B1D0
:107E3000032000E001209075042305F10C0207F1F6
:107E40000801009413E00120A8750094E88807F168
:107E50000C0183002A690AE028782A4603280CD0FE
:107E600006209075042305F10802391D009411487D
:107E7000FEF7ACFBB8B1444611E00520F1E70C4930
:107E80004068891E4988FFF727FA04004FF0060072
:107E9000A87504D107E041F61D5400E00F24E988DD
:107EA0003046FFF78BF8204699E7000008270020AE
:107EB0004A21002080210020111213140D0E0F10F2
:107EC0003C2300205C230020882300200D000300B9
:107ED000F94B02000E000300F94B02000F000300F3
:107EE000F94B020010000300F94B0200770A000072
:107EF00000000000770A0000000000007ADA0000AD
:107F000000000000000000503C250020030000009D
:107F10000000FFFFDEC0ADDEFF011EF1DEC0ADDE02
:107F2000FE011EF1556E6B6E6F776E206572726F7B
:107F30007220636F6465000000000000E8840200A6
:107F400001000000A8830200020000002882020055
:107F5000030000001C840200040000007084020082
:107F6000050000006883020006000000088302008C
:107F70000700000058840200080000007C83020013
:107F800009000000C88302000A000000D08402003B
:107F90000B000000108202000C000000948302001D
:107FA0000D000000F48402000E000000488402006E
:107FB0000F0000008484020010000000B88402005A
:107FC00011000000088502008000000048830200C4
:107FD00081000000CC820200820000008C8202003E
:107FE000830000006C82020084000000A88202006E
:107FF000850000002083020086000000308402001B
:1080000090000000E8820200910000004C82020013
:10801000008200009884020001820000E4830200D4
:1080200002820000008402007021002068210020EC
:1080300070210020B027002018000000AC8702004B
:10804000B4870200000000000000000001000007EB
:108050003C8002004C800200080000007480020096
:1080600084800200080000008480020094800200E6
:1080700008000000DC870200EC870200000000001E
:1080800000000000CC870200DC8702000000000036
:10809000000000006C8702007487020074870200F1
:1080A0008487020084870200AC8702000100000080
:1080B000E02000208005000094800200AC800200D7
:1080C00008000000B4870200C4870200C4870200D1
:1080D000CC870200C4800200D480020008000000A7
:1080E00073645F626C655F67617474635F65786316
:1080F00068616E67655F6D74755F726571756573D4
:108100007428292072657475726E656420756E65B9
:10811000787065637465642076616C75652030786D
:1081200025782E0073645F626C655F676174747399
:108130005F65786368616E67655F6D74755F7265B2
:10814000706C7928292072657475726E656420756B
:108150006E65787065637465642076616C75652002
:10816000307825782E00000073645F626C655F676D
:1081700061705F646174615F6C656E6774685F7580
:108180007064617465282920287265706C792920D3
:1081900072657475726E656420756E65787065635E
:1081A0007465642076616C756520307825782E00C2
:1081B00073645F626C655F6761705F646174615F67
:1081C0006C656E6774685F757064617465282920DA
:1081D000287265717565737429206F6E20636F6EE8
:1081E0006E656374696F6E203078257820726574CF
:1081F00075726E656420756E65787065637465640C
:108200002076616C756520307825782E000000009E
:108210004E52465F4552524F525F494E56414C496D
:10822000445F4441544100004E52465F4552524F14
:10823000525F534F46544445564943455F4E4F5451
:108240005F454E41424C4544000000004E52465F9F
:108250004552524F525F464541545552455F4E4F2D
:10826000545F454E41424C45440000004E52465F2B
:108270004552524F525F4D555445585F554E4C4FE5
:10828000434B5F4641494C45440000004E52465F17
:108290004552524F525F4D555445585F4C4F434BDA
:1082A0005F4641494C4544004E52465F4552524F4D
:1082B000525F4D555445585F434F4E445F494E49B8
:1082C000545F4641494C4544000000004E52465F11
:1082D0004552524F525F4D555445585F494E49548F
:1082E0005F4641494C4544004E52465F4552524F0D
:1082F000525F4150495F4E4F545F494D504C454D80
:10830000454E5445440000004E52465F4552524F80
:10831000525F4E4F545F535550504F525445440096
:108320004E52465F4552524F525F4D4F44554C4559
:108330005F414C52454144595F494E495449414C73
:10834000495A4544000000004E52465F4552524F84
:10835000525F4D4F44554C455F4E4F545F494E4917
:108360005449414C5A4544004E52465F4552524F83
:10837000525F4E4F545F464F554E44004E52465F3B
:108380004552524F525F494E56414C49445F5354F7
:10839000415445004E52465F4552524F525F444150
:1083A00054415F53495A45004E52465F4552524F21
:1083B000525F5356435F48414E444C45525F4D49CE
:1083C0005353494E470000004E52465F4552524FAC
:1083D000525F494E56414C49445F4C454E475448C4
:1083E000000000004E52465F4552524F525F4452C9
:1083F000565F5457495F4552525F414E41434B00CF
:108400004E52465F4552524F525F4452565F545748
:10841000495F4552525F444E41434B004E52465FC6
:108420004552524F525F494E5445524E414C000006
:108430004E52465F4552524F525F53544F5241473E
:10844000455F46554C4C00004E52465F4552524FD8
:10845000525F4E554C4C00004E52465F4552524FB3
:10846000525F494E56414C49445F504152414D0084
:108470004E52465F4552524F525F4E4F5F4D454DF3
:10848000000000004E52465F4552524F525F464F29
:108490005242494444454E004E52465F4552524F67
:1084A000525F4452565F5457495F4552525F4F5690
:1084B000455252554E0000004E52465F4552524FB3
:1084C000525F494E56414C49445F4144445200007A
:1084D0004E52465F4552524F525F494E56414C49AB
:1084E000445F464C414753004E52465F5355434309
:1084F000455353004E52465F4552524F525F5449C6
:108500004D454F55540000004E52465F4552524F64
:10851000525F42555359000073645F626C655F633C
:1085200066675F73657428292072657475726E655D
:1085300064202573207768656E20617474656D70A2
:1085400074696E6720746F2073657420424C455FB8
:1085500047415454535F4346475F5345525649433E
:10856000455F4348414E4745442E000073645F62B7
:108570006C655F6366675F73657428292072657434
:1085800075726E6564202573207768656E2061744E
:1085900074656D7074696E6720746F2073657420E4
:1085A000424C455F434F4D4D4F4E5F4346475F56EC
:1085B000535F555549442E0073645F626C655F6379
:1085C00066675F73657428292072657475726E65BD
:1085D00064202573207768656E20617474656D7002
:1085E00074696E6720746F2073657420424C455F18
:1085F00047415454535F4346475F415454525F547C
:1086000041425F53495A452E0000000073645F6287
:108610006C655F6366675F73657428292072657493
:1086200075726E6564202573207768656E206174AD
:1086300074656D7074696E6720746F207365742043
:10864000424C455F434F4E4E5F4346475F47415064
:108650002E00000073645F626C655F6366675F7322
:10866000657428292072657475726E65642025739F
:10867000207768656E20617474656D7074696E67CB
:1086800020746F2073657420424C455F4741505FF2
:108690004346475F524F4C455F434F554E542E0063
:1086A000626C655F6761747400000000636C6F63E7
:1086B0006B0000006770696F74650000756172740B
:1086C0000000000062616C6C6F6300007077725F85
:1086D0006D676D7400000000617070006E72665FFF
:1086E000736468006E72665F7364685F626C6500D5
:1086F0006E72665F7364685F736F6300EC8702007D
:10870000E02000202C0100007C34020008880200D8
:108710000C220020842A0000583A0200A0860200A1
:1087200000000300AC86020000000000B4860200D6
:1087300000000000BC86020000000000C4860200A9
:1087400000000000CC86020000000000D886020075
:1087500000000300DC86020000000300E486020043
:1087600000000300F0860200000003005D480200E4
:10877000000000002D46020000000000F14602004B
:1087800000000000054502000C220020134A0200F0
:1087900024220020B55F0200402200202142020076
:1087A000542200206147020000000000D56402004E
:1087B000000000008D770200000000001565020037
:1087C000000000008942020054220020E56B0200F4
:1087D00000000000196D0200000000004574020056
:1087E00000000000F5640200000000002143FFFFCC
:1087F000140F18011A0A040787E1071F0A100F84D3
:0888000090D0030481455402ED
:0400000500023201C2
:00000001FF
